:1000000053C1000082C1000080C100007EC1000019
:100010007CC100007AC1000078C1000076C10000F8
:1000200074C1000072C1000070C100006EC1000008
:100030006CC100006AC1000068C1000066C1000018
:1000400064C1000062C1000060C100005EC1000028
:100050005CC100005AC1000058C10000C0C30000CC
:1000600054C10000D1C20000A6C200004EC1000071
:100070004CC100004AC1000048C1000046C1000058
:1000800044C1000042C1000040C100003EC1000068
:100090003CC100003AC1000038C1000036C1000078
:1000A00034C1000032C1000030C100002EC1000088
:1000B0002CC100002AC1000028C1000026C1000098
:1000C00024C1000022C1000020C100001EC10000A8
:1000D0001CC100001AC1000018C1000016C10000B8
:1000E00014C1000069036C035B035F036303A30394
:1000F000700374037A037E03820388038C039003E6
:10010000A30396039A039E036572726F7220736550
:100110006E64207061636B65740053746172742047
:100120006E6F742072656365697665640000000A0D
:100130000B02090C0D0E080703040100000000006B
:1001400000000000000000000000000000000000AF
:10015000000000000000000000121110000000006C
:10016000000000000000000000000000000000008F
:1001700000000073697A65206F6620636F6D6D61A2
:100180006E642000496E6974206E72662064726924
:10019000766572202D20005374617274732073652C
:1001A0007475702073656374696F6E2000207265CA
:1001B000636569766564207061636B6574200053C4
:1001C00065742062726F616463617374206D6F6423
:1001D000650000002200250028002B002E003100C1
:1001E000340002010000050108010B01000021009C
:1001F000240027002A002D003000330001010000F8
:10020000040107010A010505050507050808080896
:10021000020202020A0A080804040404010101019E
:100220000101010103030303030303030407070799
:100230000C0C0C0C0C0C0C0C02020202060606063E
:10024000060606060B0B0B0B0B0B0B0B010210200B
:1002500020080810204010204080020102010804FC
:100260000201010204081020408080402010080490
:1002700002018004020180402010080402010804E9
:10028000020101020408102040800102040810202D
:1002900040800001020304051112131415160A0B05
:1002A0000C0D0E0F81097E0911241FBECFEFD1E284
:1002B000DEBFCDBF00E00CBF12E0A0E0B2E0E4E79B
:1002C000F0E200E00BBF02C007900D92A835B10725
:1002D000D9F723E0A8E5B2E001C01D92AA36B20723
:1002E000E1F711E0C3E5D1E000E006C02197010984
:1002F000802FFE010E94940DC235D10780E00807CF
:10030000A9F70E94290A0C9429107ACEFC01918D3C
:10031000828D981761F0828DDF01A80FB11D5D9667
:100320008C91928D9F5F9F73928F90E008958FEFD5
:100330009FEF0895FC01918D828D981731F0828D89
:10034000E80FF11D858D90E008958FEF9FEF0895E0
:10035000FC01918D228D892F90E0805C9F4F821B44
:1003600091098F7399270895FC01848DDF01A80FEF
:10037000B11DA35ABF4F2C91848D90E001968F73CD
:100380009927848FA689B7892C93A089B1898C91EC
:1003900080648C93938D848D981306C00288F389B2
:1003A000E02D80818F7D80830895EF92FF920F93DF
:1003B0001F93CF93DF93EC0181E0888F9B8D8C8D11
:1003C000981305C0E889F989808185FD23C0F62E40
:1003D0000B8D10E00F5F1F4F0F731127E02E8C8DD8
:1003E000E8120BC00FB607FCFACFE889F9898081C3
:1003F00085FFF5CFCE01B8DFF2CF8B8DFE01E80F80
:10040000F11DE35AFF4FF0820B8FEA89FB8980814F
:10041000806207C0EE89FF896083E889F98980815D
:100420008064808381E090E0DF91CF911F910F91F4
:10043000FF90EF900895CF93DF93EC01888D882390
:10044000C1F0EA89FB89808185FD05C0A889B98949
:100450008C9186FD0EC00FB607FCF5CF808185FF1D
:10046000F2CFA889B9898C9185FFEDCFCE017CDFD1
:10047000E8CFDF91CF91089580E090E0892B19F0CB
:1004800005D6811125C080E090E0892B41F080E005
:1004900090E0892B21F00E94000081111CC080E0B7
:1004A00090E0892B41F080E090E0892B21F00E94C0
:1004B0000000811113C080E090E0892BA1F080E062
:1004C00090E0892B81F00E94000081110AC00895FC
:1004D0000E940000D8CF0E940000E1CF0E940000DF
:1004E000EACF0C94000008958230910538F0880F0F
:1004F000991F880F991F05970197F1F708953FB746
:10050000F89480915D0290915E02A0915F02B0919B
:10051000600226B5A89B05C02F3F19F00196A11DCA
:10052000B11D3FBFBA2FA92F982F8827820F911D89
:10053000A11DB11DBC01CD0142E0660F771F881FD0
:10054000991F4A95D1F708950E94950EDB011496E4
:100550002D913C911597FC01468157812417350751
:1005600029F5ED91FC91DC0112966D917C91139728
:10057000309719F06115710599F46115710549F00D
:10058000232BB1F0FB01808190E091958195910939
:100590000AC0309769F0232B59F0808190E003C0A6
:1005A000CF010E94A20E21E0892B19F020E001C0AA
:1005B00021E0822F08951F920F920FB60F921124FF
:1005C0000BB60F922F933F934F935F936F937F934D
:1005D0008F939F93AF93BF93EF93FF9381E692E046
:1005E000C3DEFF91EF91BF91AF919F918F917F916A
:1005F0006F915F914F913F912F910F900BBE0F9094
:100600000FBE0F901F9018951F920F920FB60F926A
:1006100011240BB60F922F938F939F93EF93FF9319
:10062000E0917102F09172028081E0917702F09185
:10063000780282FD12C0908180917A028F5F8F7361
:1006400020917B02821751F0E0917A02F0E0EF599D
:10065000FD4F958F80937A0201C08081FF91EF91C9
:100660009F918F912F910F900BBE0F900FBE0F9007
:100670001F901895362F90E0FC01E35DFE4F4491EA
:10068000FC01E45BFD4F2491FC01EA5FFD4F949176
:10069000992309F46BC0442309F455C050E0FA01D2
:1006A0003197E231F10508F04EC08827EE58FF4F30
:1006B0008F4F0C94940D809180008F7707C08091AC
:1006C00080008F7D03C080918000877F80938000B1
:1006D0003AC084B58F7702C084B58F7D84BD33C0A6
:1006E0008091B0008F7703C08091B0008F7D8093A0
:1006F000B00029C0809190008F7707C08091900052
:100700008F7D03C080919000877F809390001BC0F5
:100710008091A0008F7707C08091A0008F7D03C0DB
:100720008091A000877F8093A0000DC08091200160
:100730008F7707C0809120018F7D03C080912001B9
:10074000877F80932001E92FF0E0EE0FFF1FEE522C
:10075000FE4FA591B4918FB7F894EC91311103C07D
:1007600020952E2301C02E2B2C938FBF08958F929E
:100770009F92AF92BF92CF92DF92EF92FF926B0166
:100780007C01BDDE4B015C01C114D104E104F10424
:10079000E9F0B5DEDC01CB0188199909AA09BB098A
:1007A000883E9340A105B10578F321E0C21AD10833
:1007B000E108F10888EE880E83E0981EA11CB11CA8
:1007C000C114D104E104F10421F7DECFFF90EF90D2
:1007D000DF90CF90BF90AF909F908F9008951F9221
:1007E0000F920FB60F9211242F933F938F939F93E5
:1007F000AF93BF938091590290915A02A0915B02EE
:10080000B0915C023091580223E0230F2D3720F481
:100810000196A11DB11D05C026E8230F0296A11D5A
:10082000B11D209358028093590290935A02A093CD
:100830005B02B0935C0280915D0290915E02A09198
:100840005F02B09160020196A11DB11D80935D020F
:1008500090935E02A0935F02B0936002BF91AF914C
:100860009F918F913F912F910F900FBE0F901F90EE
:100870001895FC01808191818913FCCE0895CF9356
:10088000DF93EC019CB59F7D9CBD9CB5937F9CBD87
:100890009CB59C7F9CBD9DB591609DBD8981EADE24
:1008A0008A899B89DF91CF911FCE61E0E8CF60E01C
:1008B000E6CF8EBD00000DB407FEFDCF8EB50895C6
:1008C000EF92FF921F93CF93DF931F92CDB7DEB7C6
:1008D0007C016983ECDF6981862FEBDF182FC7016C
:1008E000E4DF812F0F90DF91CF911F91FF90EF9068
:1008F00008950F931F93CF938C01D9DF80E6D9DF42
:100900008FEFD7DFC82FC801D0DFC13250F062EEC1
:10091000C801D6DF62E070E080E090E028DF80E090
:1009200001C08C2FCF911F910F91089561EEC8CF18
:10093000EF92FF921F93CF93DF931F921F92CDB739
:10094000DEB77C014A836983B2DF6981862F8F71AC
:100950008062AFDF182F4A81842FABDFC701A5DF8C
:10096000812F0F900F90DF91CF911F91FF90EF900B
:100970000895CF92DF92EF92FF920F931F93CF9340
:10098000DF931F921F92CDB7DEB78C01FC019581DA
:10099000C42E941708F4C92EF8018681811103C072
:1009A000D92EDC1801C0D12CC80169837A837FDF7E
:1009B00081E67FDF6981E62E7A81F72EC60ECE149E
:1009C00031F08FEF76DFF70181937F01F8CFDD20E3
:1009D00021F08FEF6EDFDA94FACFC80166DF40E7CF
:1009E00067E0C8010F900F90DF91CF911F910F9199
:1009F000FF90EF90DF90CF909BCFCF92DF92EF925E
:100A0000FF920F931F93CF93DF9300D0CDB7DEB744
:100A10007C01142F2A835B83698349DF6981862FD8
:100A20008F71806246DF082FC12E5B81D52E2A810F
:100A3000120F1C1529F0F60181916F013ADFF9CFF1
:100A4000C70133DF802F0F900F900F90DF91CF9170
:100A50001F910F91FF90EF90DF90CF900895EF924C
:100A6000FF921F93CF93DF931F92CDB7DEB77C0128
:100A700069831DDF6981862F8F711BDF8FEF19DF7F
:100A8000182FC70112DF812F0F90DF91CF911F9197
:100A9000FF90EF900895EF92FF920F931F93CF93E3
:100AA0008C017B0166E0DBDFC82FC77D82E0E816A2
:100AB000F10431F4C0628BE990E0A0E0B0E00DC039
:100AC000EA94EF2829F085E590E0A0E0B0E005C0C9
:100AD000C86081E490E0A0E0B0E0F80186879787E5
:100AE000A08BB18B4C2F66E0C80122DF66E0C80105
:100AF000B6DF91E08C1390E0892FCF911F910F9179
:100B0000FF90EF90089567E1AADF809581700895C6
:100B1000CF93DF93EC0160E0A2DF81FD0CC0482F92
:100B2000426060E0CE0104DF65E070E080E090E0CC
:100B3000DF91CF911CCEDF91CF910895CF93DF93BA
:100B4000EC0160E096DE8E859F85CEDC6DE1CE0106
:100B500086DF81FF05C08E859F85C6DCCE01E6DE7F
:100B600060E0CE017CDF482F4E7F60E0CE01E0DE0A
:100B700062E0CE0174DFE2E9F2E0E49141E050E0AE
:100B800001C0440FEA95EAF7482B62E0CE01DF91FD
:100B9000CF91CECECF93DF93EC01BADF60E0CE01F0
:100BA0005EDF482F416060E0CE01C2DE40E767E0D3
:100BB000CE01BEDE61E0CE015CDE8F81882341F094
:100BC0002C85AE01495F5F4F6AE0CE0116DF12C08F
:100BD00062E0CE0144DFE2E9F2E0E49121E030E0BE
:100BE00001C0220FEA95EAF72095422F482362E0E0
:100BF000CE019EDE6DE1CE0132DF81FF04C0CE0169
:100C0000DF91CF9193CEDF91CF9108954F925F9274
:100C10006F927F928F929F92AF92BF92CF92DF920C
:100C2000EF92FF920F931F93CF93DF93CDB7DEB771
:100C3000A9970FB6F894DEBF0FBECDBF7C01DB01D4
:100C400014968D919C911597892B71F08D919C91A3
:100C5000009719F00E94EE0F01C060E0D7011896CE
:100C6000ED91FC911997668FFE0131965F0181E24B
:100C7000DF011D928A95E9F7F70100851185D801FA
:100C800012961C9212974FE361E08D919C9150DE79
:100C9000F801468D4E3708F04DE765E0D8018D919B
:100CA0009C9146DED7011896ED91FC911997038926
:100CB0001489258936894789508D618D728D80818F
:100CC0009181D8D2D7011896ED91FC911997808126
:100CD000918160DF8FB7F8944090590250905A028A
:100CE00060905B0270905C028FBF8FB7F894409168
:100CF000590250915A0260915B0270915C028FBF61
:100D0000D7011896ED91FC91199744195509660978
:100D10007709DF01A05CBF4F8D919C91A0E0B0E00E
:100D200084179507A607B707F8F080819181EBDE5D
:100D30008823D9F2D7011896ED91FC9119978081FB
:100D40009181D7DD182FD7011896ED91FC91199755
:100D5000482FB501808191810CDE123031F68981F6
:100D6000833509F0C2CF05C08AE191E077D280E0F7
:100D7000FBC0D7011896ED91FC9119978081918164
:100D8000DDDED7011896ED91FC9119978081918154
:100D9000CDDDD7011896ED91FC9119970081118155
:100DA00083898AA384898BA385898CA386898DA353
:100DB00087898EA3808D8FA3818D88A7828D89A737
:100DC000F8012485AE014E5D5F4F6AE0C80115DE73
:100DD000D8011C962C91AE014E5D5F4F60E1C801B9
:100DE0000CDEF801458161E1C801A2DDD70118964A
:100DF000ED91FC911997C080D180F6011581812E6B
:100E0000113210F080E2882ED60116968C91811155
:100E100003C0912E981801C0912CC60148DD80EACC
:100E200048DD0EE212E08A94FFEF8F1629F0F801F8
:100E300081918F013EDDF7CF192D112321F080E044
:100E400038DD1150FACFC60130DD61E0C60111DD99
:100E50006FEFC60135DD8073D9F360E0C60109DDAF
:100E600040E767E0C60164DD84FF05C0C6015EDDC2
:100E700088E091E07BCFD7011896ED91FC9119970E
:100E80000081118167E1C801EADD84FD0FC06FEFC9
:100E9000C80116DD84FFF6CF40E167E0C80148DDF8
:100EA00060E0C801E6DCC80141DD03C060E0C801C4
:100EB000E0DCD7011896ED91FC911997038914890C
:100EC000258936894789508D618D728D8081918108
:100ED000D1D1D7011896ED91FC911997808191811C
:100EE00059DE8FB7F8944091590250915A0260919F
:100EF0005B0270915C028FBFD7011896ED91FC9157
:100F000019974419550966097709DF01A05CBF4F9D
:100F10008D919C91A0E0B0E084179507A607B707D4
:100F2000C8F080819181EFDD8823D9F2D70118962E
:100F3000ED91FC91199740E2B5018081918119DD15
:100F4000D7011896ED91FC91199780819181D1DCA0
:100F500011E001C010E0D7011896ED91FC911997AE
:100F600080819181EBDD812FA9960FB6F894DEBFC9
:100F70000FBECDBFDF91CF911F910F91FF90EF90EA
:100F8000DF90CF90BF90AF909F908F907F906F90A9
:100F90005F904F90089526E232E0FC013183208378
:100FA0008281938183C7CF93DF93EC01F4DFCE017D
:100FB000DF91CF917BC70F931F93CF93DF938C016A
:100FC000C0E0D0E0F801EC0FFD1F6491662371F0E2
:100FD000E0916102F09162020190F081E02D81E6E2
:100FE00092E01995892B11F02196ECCFCE01DF917B
:100FF000CF911F910F91089590E0FC01E45BFD4FAC
:101000002491FC01EA5FFD4F8491882399F090E0E0
:10101000880F991FFC01E451FE4FA591B491FC018A
:10102000EE52FE4F859194918FB7F894EC91E22B9C
:10103000EC938FBF0895CF92DF92EF92FF920F93C0
:101040001F93CF93DF936C017A018B01C0E0D0E056
:10105000CE15DF0589F0D8016D918D01D601ED9196
:10106000FC910190F081E02DC6011995892B11F4B6
:101070007E0102C02196ECCFC701DF91CF911F9175
:101080000F91FF90EF90DF90CF90089581E692E06E
:101090005FD921E0892B09F420E0822F0895009781
:1010A00061F0FC0101900020E9F73197AF01481B86
:1010B000590BBC0181E692E0BECF80E090E008953C
:1010C0008F929F92AF92BF92CF92DF92EF92FF9258
:1010D0000F931F93CF93DF93CDB7DEB7A1970FB6D2
:1010E000F894DEBF0FBECDBF6C01990FEE08FF086C
:1010F000F7FE2FC0E0916102F09162020190F08151
:10110000E02D6DE281E692E019958C0122273327CC
:10111000A9012C193D094E095F0919A2CE0181963A
:101120007C019AE0892E912CA12CB12CCA01B90125
:10113000A5019401D7D4605DF70162937F01211569
:1011400031054105510591F7CF01A9DF080F191F9E
:101150001CC0A701960119A28E010F5D1F4F8AE0E6
:10116000C82ED12CE12CF12CCA01B901A70196019E
:10117000B9D4605DF80162938F01211531054105F5
:10118000510591F7CF018BDF8C018FE492E087DF6F
:10119000800F911FA1960FB6F894DEBF0FBECDBF92
:1011A000DF91CF911F910F91FF90EF90DF90CF9043
:1011B000BF90AF909F908F900895EF92FF920F9302
:1011C0001F93CF93DF93EC017B018A018881998182
:1011D000009729F02A813B8124173507E8F4B801EC
:1011E0006F5F7F4FBED4009759F0998388831B832C
:1011F0000A832C813D81232B79F4FC0110820CC0E1
:1012000088819981009709F051D6198218821D8230
:101210001C821B821A8206C01D830C83B701888141
:10122000998199D5CE01DF91CF911F910F91FF90B8
:10123000EF900895FC0111821082138212821582B0
:1012400014826115710549F0FB0101900020E9F756
:101250003197AF01461B570BB0CF0895CF93DF9363
:10126000AADEEC018FE492E01ADF8C0F9D1FDF9164
:10127000CF910895EF92FF920F931F93CF93DF9337
:10128000CDB7DEB728970FB6F894DEBF0FBECDBF3F
:101290007C0109831A832B833C834D835E836F8398
:1012A0007887EFE9F2E06491FC012485AE014F5F9D
:1012B0005F4FA3DBE9E9F2E06491F7014581C701E3
:1012C00037DB62E0C701CBDBE3E9F2E0E49141E028
:1012D00050E001C0440FEA95EAF7482B62E0C701ED
:1012E00027DB28960FB6F894DEBF0FBECDBFDF9187
:1012F000CF911F910F91FF90EF9008958EEF92E0A4
:101300004ACECF93DF9300D000D0CDB7DEB7109296
:1013100064021092630288EE93E0A0E0B0E0809354
:10132000650290936602A0936702B09368028AE018
:1013300092E0909362028093610285EC90E090933A
:101340006E0280936D0284EC90E090937002809323
:101350006F0280EC90E0909372028093710281ECB6
:1013600090E0909374028093730282EC90E09093EB
:1013700076028093750286EC90E0909378028093D9
:10138000770210927A0210927B0210927C021092E5
:101390007D0285E080934F0396E090935003109276
:1013A000530390E2909354031092550380935B0390
:1013B00085E090E0A0E0B0E0809361039093620349
:1013C000A0936303B0936403109256038FE493E0F9
:1013D000909309038093080310920A0310924E031E
:1013E00062E572E0CE01019625DF86E292E09093FD
:1013F000FF028093FE0210920103109200031092EC
:1014000003031092020310920503109204036981F2
:101410007A816115710529F04D815E8180E093E04C
:10142000CCDE88E093E090930703809306038981E4
:101430009A813CD58AE192E09093FF028093FE026C
:1014400026960FB6F894DEBF0FBECDBFDF91CF91C9
:101450000895CF93DF93CDB7DEB7CC54D1090FB643
:10146000F894DEBF0FBECDBF789484B5826084BD92
:1014700084B5816084BD85B5826085BD85B5816098
:1014800085BD80916E00816080936E001092810016
:1014900080918100826080938100809181008160D1
:1014A0008093810080918000816080938000809192
:1014B000B10084608093B1008091B000816080931E
:1014C000B0008091910082608093910080919100A2
:1014D0008160809391008091900081608093900062
:1014E0008091A10082608093A1008091A100816021
:1014F0008093A1008091A00081608093A0008091E2
:10150000210182608093210180912101816080937B
:1015100021018091200181608093200180917A00D7
:10152000846080937A0080917A00826080937A0050
:1015300080917A00816080937A0080917A0080683F
:1015400080937A001092C100E0917102F0917202D2
:1015500082E08083E0916D02F0916E021082E09152
:101560006F02F09170028FEC808310927902E0910B
:101570007502F091760286E08083E0917302F0912B
:101580007402808180618083E0917302F091740223
:10159000808188608083E0917302F0917402808181
:1015A00080688083E0917302F091740280818F7D66
:1015B000808384E891E0FFDC809008039090090329
:1015C000D4018C9111969C91891316DDF4018181CF
:1015D0009081981311DD1FB7F894809165038111F4
:1015E00020C0EBE3F2E08491E1E8F2E09491E82F8F
:1015F000F0E0EE0FFF1FE451FE4FA591B491EC9186
:10160000E92319F461E085E335D885E3F5DC8CB591
:1016100080618CBD8CB580648CBD84E3EDDC83E39C
:10162000EBDC809165038F5F809365031FBF60E0F3
:10163000C4011FD961E0C40122D965E070E080E0F7
:1016400090E095D84CE060E0C40172D94FE564E0C9
:10165000C4016ED962E070E0C4011DDA882321F074
:1016600081E0D40114968C9366E0C401F8D9182F58
:1016700060E070E0C4010FDAC40119D980E519D91E
:1016800083E717D9C40111D940E06DE1C40150D9F5
:1016900040E06CE1C4014CD940E767E0C40148D99F
:1016A0004CE465E0C40144D962EEC40109D9C40127
:1016B0003DD9C4012DDA60E0C401D1D9482F4E7F55
:1016C00060E0C40135D9115081E090E01E3F10F078
:1016D00080E090E0F5DC009108031091090343E0FD
:1016E00063E0C80125D985E0F80184874FE164E013
:1016F00080910803909109031BD900910803109170
:10170000090360E0C801ABD9837F482F486060E0DF
:10171000C8010ED900910803109109036DE1C801B9
:101720009ED9482F44606DE1C80102D96CE1C8011F
:1017300096D9482F4F636CE1C801FAD881E0D801EF
:1017400016968C9360E070E08091080390910903F5
:10175000A2D98AE08093260388E78093250310921C
:1017600013031092140387EC8093150380931603E0
:1017700080931703109218031092190310921A0302
:101780009FEF90930B0390930C0380930D03809332
:101790000E0380930F031092100310921103109206
:1017A000120380931B0310921C0380931D038093EC
:1017B0001E0380931F0310922003109221031092A6
:1017C000220388EB9BE0909349038093480383E7CF
:1017D00091E0F1DB80914E03823078F4E82FF0E065
:1017E000EE0FFF1FE65BFC4F2EEF32E031832083CC
:1017F0008F5F80934E0381E001C080E090E060DC69
:1018000087E991E0D8DBFE0131962F0180916603D4
:1018100090916703009711F48AE693E09201281BE8
:10182000390BC9014DDCCE01819629969FAF8EAF51
:10183000299780910A03811149C08FEB91E00EDD59
:101840008091660390916703009711F48AE693E014
:10185000D201A81BB90BCD0133DC60E085E00E940A
:101860003A036AE070E080E090E00E94B7034091A4
:1018700025034E3708F04DE765E08091080390910D
:10188000090356D840E061E0809108039091090374
:101890004FD800910B0310910C0320910D03309150
:1018A0000E0340910F03509110036091110370914A
:1018B00012038091080390910903DCDC80910803F6
:1018C0009091090367D981E080930A03809108030E
:1018D0009091090318D9882309F401C18091080364
:1018E0009091090306D8182F40E267E273E08091D7
:1018F0000803909109033DD88DEA91E05CDB812ECD
:10190000012E000C9908C401DBDB11160CF0E7C0B6
:1019100000E010E0081519050CF0E1C0F801E85FDF
:10192000FC4F878D8A3321F580E22996EEADFFAD1D
:101930002997282F11922A95E9F7D2011D928A95AD
:10194000E9F7A80167E273E0CE0181960BD20F5F41
:10195000602F70E0A401461B570B695D7C4FC201EC
:1019600001D29AE4892E93E0992E00E010E005C0A0
:101970000F5F1F4FCFCF0F5F1F4F80914E0390E03F
:10198000081719070CF0ABC0D401ED91FC91019040
:10199000F081E02D66807780BE016F5D7F4FCE01C4
:1019A0008F5B9F4F47DCBE016F5B7F4FF4018191DE
:1019B00091914F01F3011995782E23968EAD9FAD2D
:1019C000239774D27720B9F280910803909109038C
:1019D000B5D810920A03F1E02A96FFAF2A97712C2E
:1019E000812C912C2B961FAE2B97612C212C312C06
:1019F000000F111F9801265B3C4F2D963FAF2EAF75
:101A00002D972A962FAD2A97372DA4012B966FADCF
:101A10002B97762DC101A0901303B0901403C090B2
:101A20001503D0901603E0901703F090180300916F
:101A3000190310911A0380D020931B0330931C03C9
:101A400040931D0350931E0360931F037093200364
:101A500080932103909322032D96AEADBFAD2D97B9
:101A6000ED91FC910190F081E02D04811581B2018E
:101A7000CE018F5B9F4FDEDBBE016F5B7F4F2D96EC
:101A8000EEADFFAD2D9780819181F80119952396D8
:101A90008EAD9FAD23970AD22A962FAD2A97372D68
:101AA000A4012B966FAD2B97762DC101A1E04DD0EF
:101AB0002A962FAF2A97732E4A012B966FAF2B973A
:101AC000672E1C01A401762DC1012D323140410544
:101AD0005105610571058105910509F092CF0E94BC
:101AE0003C02A7CEA1E21A2EAA1BBB1BFD010DC012
:101AF000AA1FBB1FEE1FFF1FA217B307E407F507BE
:101B000020F0A21BB30BE40BF50B661F771F881F99
:101B1000991F1A9469F760957095809590959B012F
:101B2000AC01BD01CF010895EE0FFF1F881F8BBFD1
:101B30000790F691E02D19942A0D3B1D4C1D5D1D5B
:101B40006E1D7F1D801F911F08950024A7FD009426
:101B50002A0F301D401D501D601D701D801D901DE1
:101B600008956F927F928F929F92AF92BF92CF9281
:101B7000DF92EF92FF920F931F93CF93DF93EC01CD
:101B8000009781F4CB01DF91CF911F910F91FF90CE
:101B9000EF90DF90CF90BF90AF909F908F907F900D
:101BA0006F90EFC0FC01E60FF71F9C012250310936
:101BB000E217F30708F4A8C0D9010D911C91119701
:101BC00006171707A8F00530110508F49BC0C801D7
:101BD00004978617970708F495C002501109061B51
:101BE000170B019311936D937C93CF015FD18AC042
:101BF0005B01A01AB10A4C01800E911EA0916803EE
:101C0000B091690340E050E0E12CF12C109709F409
:101C10004AC0A815B905D1F56D907C901197630164
:101C200082E0C80ED11CCA14DB0480F1A3014A195A
:101C30005B096A0182E0C80ED11C1296BC90129713
:101C40001396AC91B5E0CB16D10440F0B282A383D9
:101C500051834083D9016D937C930AC00E5F1F4F5F
:101C6000C301800F911FF90191838083EB2DFA2F1F
:101C7000E114F10431F0D7011396FC93EE9312971F
:101C800041C0F0936903E09368033CC08D919C913F
:101C900011974817590708F4AC017D0112960D9071
:101CA000BC91A02DB3CF80916603909167038815F6
:101CB0009905E1F446175707C8F480910002909106
:101CC0000102009741F48DB79EB7409104025091F4
:101CD0000502841B950BE817F907B0F4F09367032E
:101CE000E0936603F901718360830CC0CB0149D096
:101CF0007C01009749F0A801BE011BD0CE01D6D0CF
:101D0000C70104C0CE0102C080E090E0DF91CF9116
:101D10001F910F91FF90EF90DF90CF90BF90AF9009
:101D20009F908F907F906F90089581E090E0F8945D
:101D300090C1FB01DC0102C001900D924150504066
:101D4000D8F70895FB01DC018D91019080190110F5
:101D5000D9F3990B0895FB01DC0101900D9200204D
:101D6000E1F70895FB01DC014150504048F001903B
:101D70000D920020C9F701C01D9241505040E0F77C
:101D80000895CF93DF938230910510F482E090E0C4
:101D9000E0916803F091690320E030E0C0E0D0E01A
:101DA000309711F14081518148175907C0F0481709
:101DB000590761F482819381209719F09B838A836C
:101DC0002BC0909369038093680326C021153105C9
:101DD00019F04217530718F49A01BE01DF01EF0111
:101DE0000280F381E02DDCCF2115310509F1281B9C
:101DF000390B2430310590F412968D919C911397F4
:101E00006115710521F0FB019383828304C09093D7
:101E1000690380936803FD01329644C0FD01E20F1F
:101E2000F31F81939193225031092D933C933AC033
:101E30002091660330916703232B41F42091020225
:101E400030910302309367032093660320910002D0
:101E5000309101022115310541F42DB73EB7409173
:101E6000040250910502241B350BE0916603F091AA
:101E70006703E217F307A0F42E1B3F0B281739075F
:101E800078F0AC014E5F5F4F2417350748F04E0FD6
:101E90005F1F50936703409366038193919302C041
:101EA000E0E0F0E0CF01DF91CF9108950F931F9311
:101EB000CF93DF93009709F48CC0FC013297138213
:101EC000128200916803109169030115110581F4D4
:101ED00020813181820F931F209166033091670327
:101EE0002817390779F5F0936703E093660371C00B
:101EF000D80140E050E0AE17BF0750F412962D9184
:101F00003C911397AD012115310509F1D901F3CFAA
:101F10009D01DA013383228360817181860F971FCF
:101F20008217930769F4EC0128813981260F371F46
:101F30002E5F3F4F318320838A819B8193838283ED
:101F4000452B29F4F0936903E093680342C013968C
:101F5000FC93EE931297ED01499159919E01240F44
:101F6000351FE217F30771F480819181840F951F6B
:101F7000029611969C938E938281938113969C93E3
:101F80008E931297E0E0F0E0D80112968D919C912B
:101F90001397009719F0F8018C01F6CF8D919C9161
:101FA00098012E5F3F4F820F931F2091660330915F
:101FB00067032817390769F4309729F410926903E9
:101FC0001092680302C01382128210936703009379
:101FD0006603DF91CF911F910F9108951F93FC012C
:101FE00099278827BC01E89411911032E9F3193040
:101FF00010F01E30C8F31B3249F01D3241F46894D2
:1020000005C012D0610F711D811D911D11911053DA
:102010001A30B8F33EF490958095709561957F4F96
:102020008F4F9F4F1F910895592F482F372F262FDD
:10203000660F771F881F991F660F771F881F991FCC
:10204000620F731F841F951F660F771F881F991FCC
:10205000089511E0C3E5D1E000E005C0802FFE0146
:1020600063DD2196011DC435D10780E00807B1F773
:04207000F894FFCF12
:1020740000006A03800000000000D5011B08A801CD
:1020840086019A011B0200000000CB07D307060655
:10209400A6020000000000000000A402A6023132E3
:1020A40033343536373839303938373635343332D6
:1020B4003132333435363738393039383731000D29
:0820C4000A0073736368000059
:00000001FF
