:1000000000000320D1010000054A0000BD490000A6
:10001000BD490000BD490000BD490000BD490000C8
:10002000BD490000BD490000BD490000054A00006F
:10003000054A0000BD490000CD3F0000D14000004E
:10004000054A0000054A0000054A0000054A000074
:10005000054A0000054A0000054A0000054A000064
:10006000054A0000054A0000054A0000054A000054
:10007000054A0000054A0000054A0000054A000044
:10008000054A0000054A0000054A0000054A000034
:10009000054A0000054A0000054A0000054A000024
:1000A000054A0000054A0000054A0000054A000014
:1000B000054A0000054A0000054A000035530000CB
:1000C000054A000061540000054A00008D550000FB
:1000D000054A000085560000054A0000054A000058
:1000E000054A0000054A0000054A0000054A0000D4
:1000F000054A0000054A0000054A0000054A0000C4
:10010000054A0000054A0000054A0000054A0000B3
:10011000054A0000C95A0000054A0000054A0000CF
:10012000054A0000054A0000054A0000054A000093
:10013000054A0000054A0000054A0000054A000083
:10014000054A0000054A00007D570000054A0000EE
:10015000054A0000054A0000054A0000054A000063
:10016000054A0000054A0000054A0000553E00000F
:10017000613E0000653E0000693E00006D3E0000EB
:10018000713E0000054A0000054A0000054A0000D3
:10019000054A0000054A000075580000054A0000A5
:1001A000054A0000054A0000054A0000054A000013
:1001B000054A0000054A0000753E0000813E00002F
:1001C000853E0000893E00008D3E0000913E00000B
:1001D0005C4B4CF2205210B51A804DF628121A8052
:1001E00000BF00BF00F06CF9574B4FF030621A604F
:1001F000564A9A60564ADA60564B4FF470021A60BB
:10020000554B564A1A60564A136813F4807304D14A
:1002100054490B604FF4A8531360534B1A781107DD
:1002200003D51A7842F008021A70504B5049AA229E
:100230001A70504A504B8B4204D252F8040F43F8C4
:10024000040BF8E74D4B4E4900228B4202D243F893
:10025000042BFAE74B494C4A002352F8230041F89B
:1002600023000133742BF8D1484B494A802103F80D
:10027000011B9342FBD1474B424A1A60464B8A22EC
:100280001A70A3F5805324225A70A0221A709A790A
:100290009207FCD59A79D406FCD4404A937903F0AE
:1002A0000C03082BFAD13E4B60221A7002331A78E5
:1002B000802AFCD1394B01221A715D225A719A7938
:1002C0009006FCD59979354A4906FBD5354B364918
:1002D00019600021596020231370937903F00C03F7
:1002E0000C2BFAD1314B324A1A60324B324A1A6027
:1002F00000225A60072243F8042C304AC3F80C2D20
:1003000062B604F051FF174B1B68DA0705D52C487D
:1003100004F052FC2B4B2C4A1A602C4B1B785B06CA
:1003200009D5284C284B22689A4204D1244804F06D
:1003300043FC0023236006F0E9FF04F067FB03F0B1
:10034000CFFEFEE70E20054030800440823F0400CF
:100350000100002B88ED00E0002008E0030000858C
:1003600010D0034014D0034002D0074000E0074003
:10037000D410FF1F609100003007FF1FD410FF1F33
:100380005420FF1F0002FF1F0000000000E400E0F7
:1003900064E400E008ED00E0005006400040064044
:1003A00001E007404480044000000602048004404D
:1003B000C010070014E000E01FBF02000000202072
:1003C0004D4BB9591CE00340A5C3945A00F00740B7
:1003D000FFFFFFFFFFFFFFFFFFFFFFFFFFFFFFFF2D
:1003E000FFFFFFFFFFFFFFFFFFFFFFFFFFFFFFFF1D
:1003F000FFFFFFFFFFFFFFFFFFFFFFFFFFFFFFFF0D
:10040000FFFFFFFFFFFFFFFFFFFFFFFFDEF9FFFF23
:1004100010B5054C237833B9044B13B10448AFF33E
:1004200000800123237010BDD410FF1F00000000C6
:1004300064910000084B10B51BB108490848AFF3A0
:1004400000800848036803B910BD074B002BFBD0A0
:10045000BDE81040184700BF00000000D810FF1F83
:1004600064910000D410FF1F0000000070B5044626
:1004700008460D4607F064FA2368024629462046DE
:100480005B68BDE87040184738B5044608460D461D
:1004900007F056FA2368024629465B6820469847CB
:1004A0000546204603F024FE284438BD38B50546ED
:1004B00003F06EFE0446284603F01AFE204438BDC1
:1004C00070B40748074D084C084A4FF47A76002369
:1004D00011212E802380038070BC1180704700BFE3
:1004E0001620054006200540042005400020054058
:1004F000F0B585B0002423460094CD4ACD49CE48BE
:1005000003F09CF901238DF80930E2B202A901340D
:10051000C94803F02DF9102CF7D102211F2004F057
:10052000C7FD0221202004F0C3FD0121182004F0A2
:10053000BFFD0121192004F0BBFD01211A2004F0A8
:10054000B7FD01211B2004F0B3FD01211C2004F0A4
:10055000AFFD01211D2004F0ABFD01211E2004F0A0
:10056000A7FD01211F2004F0A3FD0121202004F09C
:100570009FFD2120012104F09BFDB04802F0FAFA12
:10058000002840F037821121AD4805F0DDFFAD486D
:1005900003F0AEFDA94802F0EDFA9FEDAB0A14207E
:1005A00004F0CCFC0A2004F0B9FCA84B1B68002B1B
:1005B00040F01382A64AA74C1460A74FA749A84E43
:1005C000A84BA94DA948AA4CAA4A3960AA49336048
:1005D0002B60046011600121052004F069FD0121F8
:1005E000062004F065FD0121102004F061FD0121C9
:1005F0000F2004F05DFD0121082004F059FD0121C8
:10060000072004F055FD0121142004F051FD0121C3
:10061000152004F04DFD0121122004F049FD0021B8
:10062000162004F045FD0021172004F041FD0021B3
:10063000022004F03DFD002004F018F80C2004F026
:100640003BF80021112004F033FD0021152004F0B7
:10065000C5FA0E21894805F077FF7A4803F048FD76
:1006600072B6874C4AF202664BF28045268025809E
:1006700062B6012004F046FD0121102004F004FDC3
:10068000642004F03FFD0F217E4805F05DFF6D48BA
:1006900003F02EFD0021102004F0F6FC72B6268037
:1006A000258062B6012004F02DFD01210F2004F009
:1006B000EBFC642004F026FD0D21734805F044FF97
:1006C000604803F015FD72B62680258062B60120D1
:1006D00004F018FD0121082004F0D6FC642004F089
:1006E00011FD0E21694805F02FFF564803F000FD6B
:1006F0000021082004F0C8FC72B62680258062B66E
:10070000012004F0FFFC0121072004F0BDFC64205F
:1007100004F0F8FC0021102004F0B6FC00210F20AA
:1007200004F0B2FC0021082004F0AEFC00210720F8
:1007300004F0AAFC56483B68564A5749574E584C55
:100740000360584F584D594813600B60584A336046
:1007500040F25551574E22603980298002600024B2
:10076000204604F0E3F8374605461B21524806F8B8
:10077000015B05F0E9FE00230A223978314803F0D5
:10078000C7FC0B214D4805F0DFFE00230A22294655
:100790002C4803F0BDFC2B4803F0AAFC1B21464863
:1007A00005F0D2FE2146274803F0F2FC0B21434816
:1007B00005F0CAFE00230A222946224803F0A8FCBD
:1007C000204803F095FC1B213B4805F0BDFE214667
:1007D0001C4803F0DDFC0B21384805F0B5FE002372
:1007E0000A222946174803F093FC164803F080FCC0
:1007F0001B21314805F0A8FE2146124803F0C8FC31
:100800000B212E4805F0A0FE00230A2229460D48A0
:1008100003F07EFC0B4803F06BFC1B21264805F01F
:1008200093FE2146074803F0B3FC0B2148E000BFCC
:10083000DC1BFF1F90D003001C13FF1F9811FF1F2C
:10084000747D0000D007FF1F00401C474407FF1FB6
:100850004007FF1F52B886400C13FF1F48E16A4053
:10086000B012FF1F713D3A407011FF1FDC12FF1FD5
:100870001F8583409411FF1F9A9981409C7D000041
:100880000C200540AC7D0000BC7D0000CC7D00004C
:100890008011FF1F7C11FF1FF010FF1F7811FF1F39
:1008A000B812FF1F2A11FF1F0413FF1FFC12FF1FA6
:1008B00000A0AA440011FF1FDC7D0000F87D0000AD
:1008C0005A4805F041FE00230A222946584803F001
:1008D0001FFC574803F00CFC1B21564805F034FE62
:1008E0002146534803F054FC0B21504805F02CFEE0
:1008F00000230A2229464E4803F00AFC4C4803F024
:10090000F7FB1B214B4805F01FFE2146484803F02A
:100910003FFC0B21454805F017FE00230A2229461B
:10092000434803F0F5FB424803F0E2FB1B2141483A
:1009300005F00AFE21463E4803F02AFC0B213B4805
:1009400005F002FE00230A222946394803F0E0FBA5
:10095000374803F0CDFB1B21364805F0F5FD214655
:10096000334803F015FC0B21304805F0EDFD294616
:1009700000230A222E4803F0CBFB01342C4803F05D
:10098000B7FB0A2C7FF4ECAE4FF4FA612A4802F070
:10099000F5FC0321284802F0F3FC1521274805F057
:1009A000D3FD234803F0A4FB0E21254805F0CCFD20
:1009B00040F621611E4803F0EBFB1D4803F098FB55
:1009C0000021122004F060FB2E211E4805F0BCFD22
:1009D000174803F08DFB05B0F0BD012B12D11A4A68
:1009E0001A4C14601A4F1B491B4E1C4B1C4D1D48C2
:1009F0001D4CE9E512211D4805F0A6FD0C4803F049
:100A000077FBCAE5142B0ED10F49194E104F124C2B
:100A10001348144A174B0E60174D18493D60236068
:100A200003601160D7E50A4FD5E500BFF87D0000EF
:100A3000D007FF1FDC7D00009811FF1F047E00001F
:100A40001C7E00002C7E00004007FF1F52B886402D
:100A50000C13FF1FD7A36840B012FF1F713D3A402F
:100A60007011FF1FDC12FF1F33338340887D0000AD
:100A70009A9989409A993940CDCC6C409A9979409D
:100A80002DE9F04F2DED088B4A488DB003F030FB77
:100A9000484803F02DFB1221474805F055FD05217C
:100AA000444803F075FB0B21444805F04DFD444BD1
:100AB000404819780A22002303F02AFB3D4803F03E
:100AC00017FB72B63F4B4AF202614BF2804219802B
:100AD0001A8062B6012004F015FB36483A4D3B4CB3
:100AE000DFF8208103F004FB0721394805F02CFDD5
:100AF000384B3048196803F04BFB2E4803F0F8FAE6
:100B00000721354805F020FD29682A4803F040FBFD
:100B1000284803F0EDFA0621304805F015FD21685C
:100B2000244803F035FB234803F0E2FA15212C4852
:100B300005F00AFD2B4B1F481B680B930A2200236C
:100B40000B9903F0E5FA1B4803F0D2FA1E21264860
:100B500005F0FAFCD8F8000006F05EF841EC100B46
:100B60000021144803F01CFB0C21204805F0ECFC8C
:100B700004F0A4FA1E491F4B0E681F4A1B68106040
:100B8000801B984240D31D48124A33440B600368CF
:100B900012681049002B02F10102C4BF03F1FF33B8
:100BA00003603C2A0A6001F01E82154B08934FF047
:100BB000010A2DE0D007FF1F5C7E0000707E000060
:100BC0008C11FF1F0C200540F810FF1FF412FF1FAF
:100BD0007C7E0000F812FF1F847E00008C7E0000E7
:100BE000947E0000081CFF1FAC7E0000CC7E00003D
:100BF0009011FF1F3807FF1FD812FF1F3007FF1F7C
:100C0000AC12FF1FB812FF1F9A4B08934FF0000A57
:100C1000022004F03FFA984A13781844C3B21370C4
:100C20001BB12168002900F04C86944B05931A46AD
:100C3000934E002313709348934F03F059FA1C21ED
:100C4000924805F081FC059B8E48197803F0A0FAC4
:100C50008C4803F04DFA37218D4805F075FC894822
:100C600003F046FA15218B4805F06EFC0B218A48EB
:100C700005F06AFC00230A223178824803F048FA22
:100C8000804803F035FA1521844805F05DFC0B21FE
:100C9000814805F059FC00230A227178794803F055
:100CA00037FA784803F024FA15217D4805F04CFC0A
:100CB0000B21794805F048FC00230A22B1787148DD
:100CC00003F026FA6F4803F013FA1521754805F072
:100CD0003BFC0B21704805F037FC00230A22F17819
:100CE000684803F015FA674803F002FA15216E48C8
:100CF00005F02AFC0B21684805F026FC00230A2297
:100D00003179604803F004FA5E4803F0F1F91521E7
:100D1000664805F019FC0B215F4805F015FC00231F
:100D20000A227179574803F0F3F9564803F0E0F9C5
:100D300015215F4805F008FC0B21574805F004FC1D
:100D400000230A22B1794F4803F0E2F94D4803F03D
:100D5000CFF91521574805F0F7FB0B214E4805F058
:100D6000F3FB00230A22F179464803F0D1F9454804
:100D700003F0BEF91521504805F0E6FB0B2146486B
:100D800005F0E2FB00230A22317A3E4803F0C0F965
:100D90003C4803F0ADF91521484805F0D5FB0B217F
:100DA0003D4805F0D1FB00230A22717A354803F053
:100DB000AFF9344803F09CF9324803F099F9342133
:100DC0003F4805F0C1FB2F4803F092F93B78002B18
:100DD00001F056813B4B3C4D069300249B46A946AF
:100DE00007E0772B2B5528D801343B78E4B2A34297
:100DF0002CD907213548344D05F0A6FB00230A22E3
:100E0000315D204803F084F90321314805F09CFB53
:100E100000230A2219F804101A4803F079F9194836
:100E200003F066F9BAF1000FDED02A5D2949531CA0
:100E3000FF2ADBB24FF00102D3D1335D0B800134C6
:100E40003B788BF80020E4B2A342D2D80D4803F0DF
:100E50004FF9069B1B78002B40F00787094803F0E9
:100E600047F93B78002B00F0EE860022164D144621
:100E700037E000BFAC12FF1FD012FF1FE012FF1FB0
:100E80000011FF1FD007FF1FB412FF1FF07E0000EC
:100E9000107F0000487F0000607F00006C7F000032
:100EA000847F00009C7F0000B47F0000CC7F0000A6
:100EB000E47F0000FC7F0000148000002C80000014
:100EC000448000007611FF1FE412FF1F7C800000A9
:100ED000648200000813FF1F01343B78E4B2A34290
:100EE00014D92B5D782BF7D91521304805F02CFB50
:100EF00010212F4805F028FB2E4803F0F9F80134A3
:100F00003B78E4B2A3424FF00102EAD8002A00F095
:100F10009A86284803F0ECF8059B1B78002B53D0E9
:100F2000254B1C68002C40F0C284DFF8989019F81B
:100F3000011B204603F014FD204603F0F7FC1621A8
:100F400005461E4805F000FB00230A2229461948E1
:100F500003F0DEF819211A4805F0F6FA2146154883
:100F600003F016F9134803F0C3F81621134805F0EF
:100F7000EBFA00230A2229460E4803F0C9F819218A
:100F80000F4805F0E1FA21460A4803F001F901345F
:100F9000084803F0ADF80A2CC9D13378002B00F0D3
:100FA0008184059A00231370002111E0C88000009D
:100FB000E0800000D007FF1FF812FF1FF480000040
:100FC0000C8100000011FF1F3378002BECD10121B0
:100FD000072004F059F800210F2004F055F81120E3
:100FE00003F09EFB6FF008094FF0000B4FF0000A72
:100FF000112003F095FB05F0FDFDB9F18C0F0446BF
:101000000D46584609F101090AD805F005FE2246A9
:101010002B4605F0A3FC06F023F90AF1010A8346EA
:10102000B9F1BE0FE4D107EE90AA07EE10BAF8EEC0
:10103000E77A112187EE278ADE4803F0A9F802211A
:10104000DD4805F081FA1921DC4805F07DFAFDEE56
:10105000C87AD84817EE901A03F09AF8D54803F0EA
:1010600047F8DFEDD77AB4EEE78AF1EE10FA00F137
:10107000E185412003F054FB4FF0000B6FF00809AD
:101080004FF0000A412003F04BFB05F0B3FDB9F12E
:101090008C0F04460D46584609F101090AD805F09F
:1010A000BBFD22462B4605F059FC06F0D9F80AF1A3
:1010B000010A8346B9F1BE0FE4D107EE90AA07EE0C
:1010C00010BAF8EEE77A412187EE278AB94803F093
:1010D0005FF8DFEDBC7AB4EEE78AF1EE10FA00F1CA
:1010E000A3850621B84805F02FFA4121B14803F045
:1010F0004FF81121B54805F027FA18EE100A05F04F
:101100008BFD41EC100B0221AA4803F049F8A948D5
:1011100002F0EEFFDFEDAE7AB4EEE78AF1EE10FA00
:10112000C0F28C849FEDAB7AAB4BAC48D3ED006A38
:10113000079338EE678A1121C8EE077AB2EE027A79
:10114000E6EE877AF2EE046A87EEA67A83ED007AFD
:1011500005F0FAF90121A24805F0F6F9079B186895
:1011600005F05AFD41EC100B0321924803F018F8EA
:1011700025219C4805F0E8F98E4802F0B9FF8D481A
:1011800002F0B6FF4FF0000A4FF0C809132003F039
:10119000C7FA05F02FFD044650460D4605F03CFD0C
:1011A00002460B462046294605F0D8FB06F058F8C3
:1011B000B9F101098246E9D1DFED8B7A7D4807EE6E
:1011C00010AA87EE278A132102F0E2FF1421874834
:1011D00005F0BAF918EE100A05F01EFD41EC100BEF
:1011E0000221744802F0DCFFDFED767AB4EEE78A84
:1011F000F1EE10FA00F1C5846E4802F079FF01218A
:10120000102003F041FF0A2003F07CFF0E2003F0C2
:1012100087FA4FF0000B6FF008094FF0000A0E201C
:1012200003F07EFA05F0E6FCB9F18C0F04460D469A
:10123000584609F101090AD805F0EEFC22462B4672
:1012400005F08CFB06F00CF80AF1010A8346B9F1AF
:10125000BE0FE4D10021102003F016FF07EE90AA84
:1012600006EE10BAF8EEE77A614CDFED625AD4ED83
:10127000006A5048DFF8B8919FED5F8ADFED5F8A22
:10128000DFF8B0A186EE277A0E210025F0EE667A0F
:10129000E7EE257AB0EE086A77EEA67A87EE867AD0
:1012A00084ED007A02F074FF0821554805F04CF9EE
:1012B000206805F0B1FC41EC100B02213D4802F022
:1012C0006FFF03214F4805F03FF93A4802F010FF45
:1012D0004D4B99ED006A93ED007A4C4B8AF8005023
:1012E0001B7807EE903A37EE088AF8EEE77A484B1B
:1012F00028EE278AD3ED006A67EE867A68EE288AA0
:10130000FDEEE77AB4EEE67AF1EE10FACDED047A6E
:10131000FDEEE88A07DDD4ED007AB4EEE78AF1EE5F
:1013200010FA00F3DA843B4B3B484A219B4605F018
:101330000BF9204802F0DCFE089D384818231C21D8
:101340002B8005F001F929881A4802F021FF0421B9
:10135000334805F0F9F8174802F0CAFED4ED007AD8
:10136000304DB8EEE87A0023B4EEE77AF1EE10FAE9
:101370002B7000F1D482DDED046AF8EEE66AF4EE3B
:10138000E67AF1EE10FA00F1CA82DFED276A37EE55
:10139000667AF4EEC77AF1EE10FA4DD5234BD9ED0B
:1013A000007A93ED007AB4EEE77AF1EE10FA00F3EA
:1013B0003A8641E0D007FF1F288100002C81000001
:1013C0000000C8420000484290810000988100005F
:1013D000526C4145CDCC24410013FF1FAC8100006D
:1013E000C0810000C881000000004843F081000077
:1013F000D412FF1F4A29683D0AD7A33C9A99993F06
:101400003C820000488200004007FF1F3C07FF1F8E
:10141000F010FF1FDC12FF1F308300007C830000F0
:1014200068820000EE12FF1FCDCCCC3E7811FF1F6A
:101430007011FF1F7511FF1F4721D14805F084F877
:10144000D04802F055FED04B19221A70DFEDCF7A4A
:1014500098ED007AB4EEE77AF1EE10FA00F10C8321
:101460000E21CB4805F070F818EE100A05F0D4FBF9
:1014700041EC100B0221C34802F092FE0321C54843
:1014800005F062F8BF4802F033FE0C21C24805F0B7
:101490005BF8002301220499BA4802F039FE0321C7
:1014A000BC4805F051F8B74802F022FE1521BB48B0
:1014B00005F04AF80023012218EE901AB14802F014
:1014C00027FE0321B34805F03FF8AE4802F010FEB6
:1014D0001521B34805F038F8002301220499A948E2
:1014E00002F016FE0321AB4805F02EF8A54802F0E5
:1014F000FFFDA44802F0FCFD069B1B7823B1A24B24
:101500001B78192B00F0B1859AF80010002900F023
:1015100018820121052003F0B7FD1A21A14805F02A
:1015200013F8984802F0E4FD9F4A29780A231370C3
:10153000002900F017820121062003F0A5FD1921E2
:101540009A4805F001F88F4802F0D2FD964A0F2321
:101550001370974BDBED006AD3ED007AF4EEE67A78
:10156000F1EE10FA40F16782924B94ED006A1B781D
:101570009FED918A07EE103AB8EEC77AF3EE0E7A35
:1015800027EE267AB4EEC67AF1EE10FAC8BFB0EEB6
:10159000678A15218948DFF87C9204F0D5FF18EEA0
:1015A000100A05F039FB41EC100B0221754802F0DE
:1015B000F7FD744802F09CFD1521814804F0C4FF3A
:1015C000079B186805F028FB41EC100B02216D48C1
:1015D00002F0E6FD6B4802F08BFD734B1B780A2B83
:1015E00000F05983DFF83092CC21A9F800101520C3
:1015F00003F0F4FA1A21734804F0A6FFB9F80010BA
:10160000604802F0C5FD0E216F4804F09DFF5D4863
:1016100002F06EFD2B78002B00F004826B4D6C48BD
:10162000112104F091FF286805F0F6FA41EC100B47
:101630000221544802F0B4FD1C21664804F084FFE6
:10164000504802F055FDD4ED006AD5ED005ADFEDAB
:10165000627A9FED626A9FED627AB0EE665AA5EEFD
:10166000A75AC5EE067AF4EEC77AF1EE10FAC5ED88
:10167000007AC0F2828177EEC77A9FED5A8AF4EE43
:10168000C76AF1EE10FA27EE888A01F17180DFED6A
:10169000567AB4EEE78AF1EE10FA41F3898040F20F
:1016A000FF31142003F09AFA1421504804F04CFF43
:1016B0009FED310B0021334802F072FD06214C48AA
:1016C00004F042FF63212F4802F062FD01214948E6
:1016D00004F03AFF2B4802F00BFD6324DFED467A5D
:1016E00098ED007AB4EEE77AF1EE10FA40F1AA84B0
:1016F000424B1B680A2B00F38381122003F0CAFCC3
:10170000002800F08781DFED3C7A98ED007AB4EE96
:10171000E77AF1EE10FA47BF3021394839486421A1
:1017200004F012FF174802F0E3FC164802F0E0FC58
:101730000820012103F0A8FC334801F06DFA0028CD
:1017400040F0A681314DDFF8D4902B8801339BB255
:10175000642B88BF28804FF00F012D4898BF2B8045
:1017600004F0F2FE2988074802F012FD012107204B
:1017700056E000BFAFF300800000000000F88F408B
:10178000D8830000D007FF1F0613FF1F0000C343CC
:1017900058840000488200006884000078840000BB
:1017A00090840000E48400008C11FF1F1C85000061
:1017B000F010FF1F3C07FF1FCDCC4C3E50850000B2
:1017C00068850000808500009C850000FC10FF1FDC
:1017D000AC850000C085000000C0794400007A4458
:1017E00000006C420000484200C07F44E0850000D9
:1017F000F8850000008600000000D043F812FF1FAB
:1018000088860000BC8600009811FF1F2811FF1F6A
:10181000E48900000013FF1FF410FF1FF012FF1FE8
:1018200003F032FC00250021082003F02DFC0021EC
:10183000072003F029FCD9ED007AF2EE006AF4EEFD
:10184000E67AF1EE10FA0DDCF5EEC07AF1EE10FA60
:1018500008D4CF4B93ED007AB4EEE67AF1EE10FAAD
:1018600040F3BA82132C62DDCA4D9921287803F027
:10187000B5F9272C11DDE121287803F0AFF93B2CD5
:101880000BDD4FF4C871287803F0A8F94F2C04DD64
:10189000287840F2C32103F0A1F90DB0BDEC088B0C
:1018A000BDE8F08F059B1B78002B3FF490AB012126
:1018B000072003F0E9FB01210F2003F0E5FBFFF710
:1018C0008EBB286803283FF7B0A9052B40F2688437
:1018D0000A2300281370B04B40F36C840593AF4A81
:1018E000AF4E1378002B3FF4A6A900231121AD4879
:1018F00073723372F371B37173713371F370B370C8
:1019000073703370137004F01FFE1121A54804F0AA
:101910001BFE1121A34804F017FEFFF78CB93821F4
:10192000A14804F011FEA14802F0E2FB8EE5994BBC
:101930006421187803F052F90DB0BDEC088BBDE8B6
:10194000F08F05239A4A1846137003F09DFB182167
:10195000984804F0F9FD954802F0CAFB297800295F
:101960007FF4E9AD062003F08FFB1621924804F0C6
:10197000EBFD8E4802F0BCFBEBE5F4EEC76AF1EE3E
:1019800010FA9FED8E8A48BF002140F11187142084
:1019900003F024F914218A4804F0D6FD18EE100A49
:1019A00005F03AF941EC100B0021804802F0F8FBF9
:1019B000DFED847A9FED847A844868EE277A0621E9
:1019C00067EE877AFDEEE77A17EE904A04F0BCFDE9
:1019D0002146764802F0DCFB01217D4804F0B4FD8D
:1019E000724802F085FBDFED7B7AB4EEE78AF1EE18
:1019F00010FA7FF573AE784B1B680A2B7FF77DAE2C
:101A00001220012103F040FB122003F043FB0028C9
:101A10007FF479AE4A21714804F096FD634802F0E4
:101A200067FB82E69AF800306D4D002B7FF4F7AD2E
:101A300023682B60F3E59FED6B8AAAE537EEC88A31
:101A40009FED697A694B6A48D3ED006A0793C8EE47
:101A5000077A1121B2EE027AE6EE877AF2EE046A94
:101A600087EEA67A83ED007A04F06EFD01216148CD
:101A700004F06AFDFFF772BB002336215E482B702D
:101A80008AF8003004F060FD484802F031FBE7E4DA
:101A90005A4D5B484FF0000B4FF01C0E2946CDF815
:101AA00008B0CDF804B0CDF800B00DF12B030DF166
:101AB0002A028DF82AE001F07FFC8246002800F01F
:101AC000878210214F4804F03FFD5B460A229DF8B3
:101AD0002B10364802F01CFB0A214B4804F034FD61
:101AE0005B460A229DF82A10304802F011FB2F486D
:101AF00002F0FEFA286805F08FF841EC100B022185
:101B00002A4802F04DFB0F21404804F01DFDA98832
:101B1000264802F03DFB12213D4804F015FDE988FE
:101B2000224802F035FB13213A4804F00DFDA86865
:101B300005F072F841EC100B02211C4802F030FB5A
:101B40000F21354804F000FDE86805F065F841EC28
:101B5000100B0221154802F023FB14212F4804F03A
:101B6000F3FC124802F0C4FA9DF82A30102B00F062
:101B7000358334212A4804F0E7FC0C4802F0B8FA17
:101B800070E63121274804F0DFFCFFF735BB00BFCA
:101B90008411FF1F4C07FF1FE012FF1F3407FF1FB8
:101BA0000011FF1FDC7E00009C830000D007FF1F98
:101BB0008C11FF1F00850000388500000000000028
:101BC000E08500000000803A0000C842F88500006F
:101BD0000086000000004843F812FF1F3C8600000A
:101BE000FC10FF1FCDCC4C3ECDCC24410013FF1F79
:101BF000AC810000C4810000208400000C11FF1F94
:101C00009811FF1F248700003887000044870000D8
:101C100054870000688700007C8700008C870000E4
:101C2000A4870000088200002E21584804F08CFC94
:101C3000FFF757BA1521564804F086FC554802F0C4
:101C400057FAFFF716BA544A544800231380069AED
:101C50001821137004F078FC1421514804F074FC2E
:101C60004C4802F045FAFFF754B907214D4804F0FB
:101C70006BFC494B4748198802F08AFA03214A480D
:101C800004F062FC0C21494804F05EFC414802F07B
:101C90002FFAFFF7E3B8D9ED007ADFF83891B4EE08
:101CA000E78AF1EE10FAB9F8001006D5002900F025
:101CB000EB81013989B2A9F80010B4EEE78AF1EEA0
:101CC00010FA7FF794AC40F2112399423FF68FACA3
:101CD000013189B2A9F8001089E4162003F0DAF97D
:101CE000002840F093811B21314804F02DFC089D11
:101CF0002848298802F04CFA04212E4804F024FCDC
:101D0000244802F0F5F92B8813B901238AF8003032
:101D1000294A2A4B92ED007AD3ED007AB4EEE77AA5
:101D2000F1EE10FA934640F11882254D254A2978A4
:101D300010688142C0F2F481B4EEE77AF1EE10FA55
:101D400003DD3C2904BFFF232B701F4A1F4B92ED7C
:101D5000007AD3ED007AF4EEC77AF1EE10FA9346EA
:101D600000F3D882B1EE007AF4EEC77AF1EE10FA01
:101D70007FF5F4AA089A164800234621138004F040
:101D8000E3FB044802F0B4F9FFF7E8BA6081000011
:101D900048810000D007FF1F0813FF1F9480000038
:101DA000B08000007C80000064820000848000001D
:101DB0004C82000068820000F010FF1F9411FF1F8A
:101DC0007411FF1FF812FF1FDC12FF1F7811FF1F95
:101DD000B4820000F410FF1FB5EEC07AF1EE10FAE5
:101DE0003FF540ADAC4B04931B880A3B9BB240F6D9
:101DF000327293423FF636ADA84B06931B880A3BDE
:101E00009BB293423FF62EAD002D3FF42BADF4EE86
:101E1000C77AA34DF1EE10FAD5ED006AC0F29A82AE
:101E2000F4EEE67AF1EE10FA07DD77EEA67AF6EE3A
:101E3000006A67EEA67AC5ED007A9A4ED6ED007A72
:101E4000B4EEE77AF1EE10FA07D537EE277AF6EE20
:101E5000007A67EE277AC6ED007A10219248DFF803
:101E6000B4A204F071FB286804F0D6FE41EC100B1C
:101E700003218E4802F094F904218D4804F064FB9C
:101E80000F218C4804F060FB306804F0C5FE41EC83
:101E9000100B0321854802F083F90421844804F0E3
:101EA00053FB824802F024F9049BBAF800201B88F7
:101EB0009A4200D82AB902EB420213449B10AAF8B6
:101EC00000307D4F069B3A881B889A4204D202EB71
:101ED000420213449B103B8010217848DFF8349273
:101EE00004F032FB00230122BAF800106F48DFF83B
:101EF000C8A102F00DF90B21714804F025FB102157
:101F0000704804F021FB002301223988674802F061
:101F1000FFF80B216A4804F017FB644802F0E8F868
:101F200069480368002B00F01C83684BDFF8E8A1C8
:101F3000674804931F2104F007FB664B186804F000
:101F40006BFE41EC100B0321584802F029F90521E2
:101F5000614804F0F9FA1E21604804F0F5FA049B88
:101F6000186804F059FE41EC100B03214F4802F0B1
:101F700017F904214E4804F0E7FA4C4802F0B8F88B
:101F80001F21574804F0E0FAD8F8000004F044FE9E
:101F900041EC100B0021454802F002F90C21514898
:101FA00004F0D2FA1F21504804F0CEFADAF800000B
:101FB00004F032FE41EC100B00213C4802F0F0F836
:101FC0000B213F4804F0C0FA384802F091F849E488
:101FD0003648DFF8489102F08BF8444A1388013301
:101FE000554613801FE42B684148424901330022C3
:101FF0003C2B2B60026000F0E3803F4A236808928C
:10200000182B04BF00232360FEF7D1BD3B4B3C4897
:1020100031219B4604F098FA244802F069F8089BA5
:102020001D80FFF79BB9162003F034F8002840F01C
:1020300080816A21334804F087FA1C4802F058F87E
:10204000FFF704BA172003F025F800283FF455AB3A
:102050000021122003F018F834212B4804F074FA00
:10206000124802F045F8FFF748BB00233B21274800
:102070002B7004F069FA0D4802F03AF8FFF744BA01
:10208000234B0693FEF7E2BEB4EEE78AF1EE10FAB8
:102090003FF71EAEFFF7ABBA8811FF1F8A11FF1F73
:1020A0007C11FF1F8011FF1FF4890000D007FF1F64
:1020B000088A0000108A00000413FF1F208A000015
:1020C000348A0000408A00003007FF1F7811FF1F8C
:1020D000548A0000F010FF1F748A00007C8A000000
:1020E0009C8A0000CC7E0000BC8A00002811FF1FE3
:1020F000F812FF1FF810FF1FAC12FF1FDC12FF1FAA
:10210000FC820000208B000004860000A8840000F0
:102110007611FF1F2A11FF1FFC12FF1FF012FF1F75
:102120009C4A28700121052011713E2503219071E0
:102130006E20DFF870C29172D5725073002511467F
:1021400095480993C2F800C01573957301F010FD0E
:10215000099B9BED007AD3ED007AB4EEE77AF1EEBD
:1021600010FA7FF7F2AD8D4D8D4B29781A689142A8
:10217000BFF6E7AD874B2A7005228A499A713E2245
:102180001960DA720321012299721A7119465A7381
:10219000814800221A739A7301F0EAFC2978D0E58D
:1021A0007F4B814E1B68372B804BC8BF1170059346
:1021B000FEF741BD1A46059301231370FFF78FBB4D
:1021C0007B4B0893184623680A600288013323601A
:1021D000002A3FF415AF013A028011E7AA8895ED75
:1021E000027AB5F806E0D5ED007ADFF80092714981
:1021F000C9ED007A06EE902A77EE877AB8EEE68A85
:1022000006EE90EA0846F8EEE66A77EE887A6A4BC0
:1022100002806A4A049137EEA68A684983ED007A03
:10222000A2F800E006916648D5ED038A1A2104F071
:102230008BF918EE100A04F0EFFC41EC1A0B0621A2
:10224000B0EE4A0AF0EE6A0A5E4801F0A9FF5D4866
:1022500001F04EFF18215C4804F076F918EE900A60
:1022600004F0DAFC41EC190B0621B0EE490AF0EE5D
:10227000690A544801F094FF524801F039FFDFED3C
:10228000537A4D4B524838EEE7BA78EEA78A3021A0
:10229000C3ED008A89ED00BA04F056F9D9F80000C0
:1022A00004F0BAFC41EC100B0621464801F078FF1F
:1022B0000C21484804F048F93F4B186804F0ACFC86
:1022C00041EC100B06213F4801F06AFF3D4801F048
:1022D0000FFFB4EEE88AF1EE10FA05D5B4EECB8A22
:1022E000F1EE10FA00F3848024213B4804F02CF92D
:1022F0001E213A4804F028F92421374804F024F933
:102300001E21364804F020F92421334804F01CF93A
:10231000FFF7A8BA08993248182200230A804321FF
:102320008AF8003004F010F9264801F0E1FEFFF7CA
:1023300015B8172002F0AEFE00287FF47AAE012314
:10234000432128482B7004F0FFF81E4801F0D0FE0E
:10235000FFF77CB8B4EEE67AF1EE10FA07DD37EE5F
:10236000267AF6EE006A27EE267A85ED007A1E4E72
:1023700096ED007AF4EEC77AF1EE10FA7FF56DADC6
:1023800077EE877AB6EE007A67EE877AC6ED007A46
:1023900063E500BFBC12FF1F1C13FF1F7411FF1F5A
:1023A000F812FF1FF4E506180011FF1FE012FF1FCF
:1023B000AC12FF1F8811FF1F8411FF1F8A11FF1F1E
:1023C000DC870000D007FF1FF88700006F12033A78
:1023D000148800004888000084880000AC88000051
:1023E00070820000DC8A00008011FF1FF012FF1FC6
:1023F0002A21C24804F0A8F81A21C14804F0A4F820
:10240000B0EE4A0AF0EE6A0A0621BE4801F0C8FEA4
:102410001821BD4804F098F8B0EE490AF0EE690AB8
:102420000621B84801F0BCFEB64801F061FE059BEC
:1024300097F800A01B78002B40F02381BAF1000F21
:1024400000F01981DFF820B39DF82B200AF1FF3747
:102450001FFA87FAF15D91426FD0BAF1000FF3D104
:10246000002B00F00881A949A648FEF70DF828685E
:1024700004F0D2FB41EC100B0221A24801F090FEC7
:10248000A349A048FDF7F2FFA9889E4801F080FE0D
:10249000A0499C48FDF7EAFFE9889A4801F078FED8
:1024A0009D499848FDF7E2FFA86804F0B5FB41ECB0
:1024B000100B0221934801F073FE98499148FDF7F3
:1024C000D5FFE86804F0A8FB41EC100B02218D4811
:1024D00001F066FE92498B48FDF7D6FFEB8829682C
:1024E000A868AA888F4DC9F800102860049D8E49FD
:1024F0002A80069A83481380FDF7C6FFD9F80000AA
:1025000004F08AFB41EC100B03217E4801F048FEE9
:102510007F497C48FDF7AAFF824B186804F07CFBDA
:1025200041EC100B0321774801F03AFE7F497548D2
:10253000FDF7AAFF0125FFF776B91D217C4804F0BD
:1025400003F839466F4801F023FE6E4801F0D0FDD4
:1025500000230BF807300123BAF1000F7FF474AFAA
:102560007EE7BAF80020B9F80010DFF800A2714B3E
:1025700095ED006A704DD3ED003A98ED004A95ED67
:10258000005A9AED003AD6ED006A6C4D6C4ED5F8C3
:1025900000E007EE902AB8EEE77A07EE901AF8EE20
:1025A000E77A76EEA34A77EE847A76EE055A37EE2E
:1025B000037A77EE847A37EE037A74EEA34A35EE27
:1025C000855AF0EE085AC7EE253A012505605A48AB
:1025D0005C4DBEF10A0F87EEA57A84EEA54AC5EEE2
:1025E000257ACAED003A83ED004A88ED007AC0ED05
:1025F000007A7FF79DAC40F25450814298BF013180
:10260000DFED517A98BFA9F8001040F255518A4287
:1026100036EE676A76EEA76A88BF02F1FF3286ED72
:10262000006AC5ED006A88BF3A8081E43A7822B931
:1026300016E7BAB2002A3FF413AF571E002BF8D1A9
:10264000F15D424A0029F4D19DF82B5040492D48B4
:102650000493D555FDF70AFF049B9DF82B102948DC
:102660000A2201F055FD3B492648FDF7FFFE394699
:102670002448FDF71BFF38492248FDF705FFFFF707
:10268000F1B80121072002F0FFFC01210F2002F028
:10269000FBFCBAF1000F00F091805B4604E01FFAEA
:1026A0008BFABAF1000FC1D00AF1FF3B9DF82B2045
:1026B00016F80B109142F2D128491248FDF7D6FEC8
:1026C00059461048FDF7F2FE25490E48FDF7CEFEAB
:1026D00000230A229DF82B100A4801F019FD214918
:1026E0000848FDF7C3FE59460648FDF7DFFE1E4BBE
:1026F000002203F80A200123D1E700BF5888000018
:10270000DC870000D007FF1FF88700005C8900000D
:102710004487000054870000688700007C87000021
:10272000708900008411FF1F7C8900009C890000D3
:102730003C8900007811FF1FF010FF1FF812FF1FE7
:102740007C11FF1F8011FF1F6F12833A0011FF1FC2
:102750000C89000024890000AC890000CC880000AE
:10276000F888000000890000E412FF1FFC12FF1F20
:102770000021142002F032FA1421174803F0E4FE7D
:102780009FED130B0021154801F00AFD06211448A6
:1027900003F0DAFE0021114801F0FAFC0121114892
:1027A00003F0D2FE0D4801F0A3FC0024FEF7A0BF09
:1027B000FDEEC87A17EE901AFFF7E9B80A4B1A78BF
:1027C000002A3FF458AF534637E700BFAFF300800D
:1027D0000000000000000000E0850000D007FF1F9F
:1027E000F885000000860000B412FF1F10B50D4CE4
:1027F00002F050F80C4B20460A22092100F0E0F8C4
:102800002146052209480A4C00F0AAFD094B0A4A54
:102810001B780A480A49126822605B0803700A6044
:1028200010BD00BF2C11FF1F1013FF1F9811FF1FB9
:10283000D412FF1F3C07FF1F4807FF1FB412FF1FE2
:10284000FC10FF1F1C207047F8B503685B68044646
:102850000F4616469847054690B16FB166B1E37FC3
:102860003278D91E914202DC1A1FD2B23270384639
:1028700004F1240103F06CFF002384F84030E37777
:102880002846F8BD10B500210446807F02F0FCFB0D
:1028900030222721204600F099FC627F202142F05F
:1028A0000202204600F092FCA07F012102F0ECFB26
:1028B0000323237110BD00BF1C2A01D900207047DB
:1028C000F8B50446C77A067BA37B407B84F82200D8
:1028D000154684F8233084F8207084F8216004F1D0
:1028E000240003F035FF2B1DDBB204F12002B021E0
:1028F000204600F0EFFC2379032B02D02046FFF79F
:10290000C1FFA38A01339BB2A3820120F8BD00BF9F
:1029100010B5427F0446202142F0030200F056FC2D
:10292000A07F012102F0B0FB0423237110BD00BF82
:1029300010B504462021427F00F048FCA07F002112
:1029400002F0A2FB0223237110BD00BF38B503794A
:10295000032B01D0002038BD054601E001F012FD37
:10296000FF21284600F0C8FB10F0300F0446F5D0D8
:10297000C3060DD42B79022B02D02846FFF7D8FFCF
:1029800028463022272100F021FCC4F3401038BD36
:10299000E121284600F0B0FBECE700BF0279012AF4
:1029A0000CD010B504460022202100F00FFCA07FBF
:1029B000002102F069FB0120207110BD002070474A
:1029C00038B514460D461A462146044600F086FBEB
:1029D0000C230449A57700226377216084F8402006
:1029E000204638BD948B0000C37F032B16D9837912
:1029F00090F8221090F8232030B490F8205090F8EE
:102A00002140C57104724172827243B1438A01331D
:102A10009BB20122438280F8402030BC7047C379CA
:102A200042799A42F2D0C379FF2BF6D1EEE700BF8C
:102A3000F8B590F840507DB90279032A0CD003799B
:102A4000042B044601D0FFF763FF1721204600F056
:102A500085FB10F0010601D02846F8BD6021204614
:102A600000F07CFB202807460DD9E221204600F02B
:102A700043FB237984F84060022BE677ECD02046B4
:102A8000FFF756FFE8E740222721204600F09EFB93
:102A90003B4604F120026121204600F0D3FBE7779A
:102AA0002046FFF7A1FF94F84050002DD4D02379A1
:102AB000022BD1D02046FFF73BFF94F84050CBE7E4
:102AC00038B50446806903680021DB6998472046D1
:102AD00000F0F0FA10B90025284638BD012105465E
:102AE000A07F02F0E5FA0021A07F02F0CDFA70226B
:102AF0002721204600F06AFB3F223C21204600F0BF
:102B000065FB05223D21204600F060FB1D2120468B
:102B100000F024FB05280FD073225021204600F03E
:102B200055FB05223D21204600F050FB1D2120468B
:102B300000F014FB0528CED12379022B02D02046C9
:102B4000FFF7F6FEE121204600F0D6FAE22120460A
:102B500000F0D2FA02222521204600F037FB204661
:102B60000F22262100F032FB284638BD0160027199
:102B7000704700BF70B50446006803681B6898473B
:102B8000054658B120682679036831465B6A984744
:102B9000206803683146DB6A98472671284670BD75
:102BA00070B50446006806680D461946B36A1646B5
:102BB00098472068036832462946DB68BDE87040C4
:102BC000184700BF2DE9F04104460068069F089DA4
:102BD0001E4603689B6898478046C8B126B12068A6
:102BE00003681B6C9847307027B120680368DB6B63
:102BF00098473870079B2BB1206803685B6C984737
:102C0000079B187025B1206803689B6C9847287053
:102C10004046BDE8F08100BF006803685B68184764
:102C2000006803689B691847006803681B6B1847B6
:102C3000006803685B6B184701207047817170471B
:102C400041717047C172704701737047417370479B
:102C5000837B23EA0202114381737047C079704776
:102C6000007A7047407A7047807A7047002070473A
:102C700010B5044601E001F085FB236820465B683F
:102C800098470028F7D010BDF0B5104D83B02B68E1
:102C90000093009F2B680193019BDB1B8B4212D298
:102CA0000E46044607E001F06DFB2B680193019B83
:102CB000DB1BB34207D2236820465B689847002895
:102CC000F1D003B0F0BD002003B0F0BD081CFF1F21
:102CD0000379032B08D110B5044601F053FB237987
:102CE000032BFAD0012010BD01207047F0B50F4E24
:102CF00083B033680093009F33680193019BDB1B13
:102D00008B4210D205460C4607E001F03BFB3368CE
:102D10000193019BDB1BA34205D22B79032BF4D03B
:102D2000012003B0F0BD002003B0F0BD081CFF1F60
:102D3000064A0260FF2100220271427302828273FE
:102D4000428241718282C17201737047EC8B000034
:102D5000054B1A684FF00043D3625163D36A002BCE
:102D6000FCDA906BC0B270475007FF1F704700BF7E
:102D700030B41D4B8268D97A01B372B6D87AC507D0
:102D8000014606D5194CD96825682940D9612160CA
:102D90000146840706D5164C18692568D97A28405B
:102DA00018622060480706D5124C58692568D97A00
:102DB00028405862206009070ED462B61B68D968A3
:102DC000914207D00C4818600C49DA6042F080400C
:102DD0001861196030BC704709489969046821403E
:102DE00099620160E9E700BF5007FF1F80E100E042
:102DF00084E100E088E100E001401F0000001F8046
:102E00008CE100E0014800F009BC00BF5007FF1F43
:102E10000D4AD37A1946B3B1D80703D50B49D06907
:102E2000086019469B0703D5094B106AD17A1860D0
:102E3000480703D5074B506AD17A18600B0702D5B3
:102E4000054B926A1A6070475007FF1F00E100E0CF
:102E500004E100E008E100E00CE100E083792DE905
:102E6000F04104465BB1012B00F09280022B00F090
:102E7000A280032B00F08F800026374601E01E461B
:102E80001F466F4A6F49136843F480531360CB6841
:102E90009A016C4AD16854BF23F0806323F0C06369
:102EA000994203D011684D045DD5D3602379042B7A
:102EB00063D0032B66D0022B67D0634A6349012B92
:102EC00014BF96468E4694F805C06149DFF8AC8180
:102ED000BCF1010F0CBF4FF064504FF06050002563
:102EE00002E0172A08D0154631F8023F98FBF3F3A9
:102EF0009E4505F10102F4D30FB140F08060554BBF
:102F000053F825303EB11A0902F4706223F470437D
:102F100040F00070134303431CF1FF31A36018BF5E
:102F200001214D4800F09EFB2379013BDBB2032BCE
:102F30006BD84A4AD35C042B4DD07BB3052B57D0BA
:102F4000012B62D0062B6DD0022B37D0444942486A
:102F500000F0B0FB404800F023FB41493E48BDE88B
:102F6000F04100F0A7BB41F4804040F00100106048
:102F7000D36023791160042B9BD194F805C0DFF84E
:102F800000E1A2E7DFF8FCE09DE7DFF8FCE09AE76C
:102F90000426002775E70426082772E731492E48E2
:102FA00000F088FB2C4800F0FBFA2E492A48BDE8C7
:102FB000F04100F07FBB0026082762E72A49264837
:102FC00000F078FB244800F0EBFA27492248BDE8DE
:102FD000F04100F06FBB25491F4800F06BFB1E4815
:102FE00000F0DEFA21491C48BDE8F04100F062BB68
:102FF0001F49194800F05EFB174800F0D1FA1C4940
:103000001548BDE8F04100F055BB1A49124800F0E0
:1030100051FB114800F0C4FA16490F48BDE8F041D1
:1030200000F048BB14490C4800F044FB0A4800F08B
:10303000B7FA11490848BDE8F04100F03BBB00BFBA
:103040003C80044000C0024040420F0080841E00CB
:103050005A8D00008C8D00005007FF1F6C8C000003
:10306000087000380320003807600038000002B8FC
:1030700004300038054000380650003800879303BC
:103080000024F40000127A0000093D0010B5064C3F
:1030900000231A461946204603F002FC034A044B5B
:1030A0002260A36010BD00BF1013FF1F448C0000FE
:1030B0000320003810B5044680690368DB68984730
:1030C000207F012101F0F4FF207F012101F0DCFFCE
:1030D000642002F017F8012010BD00BF70B504464F
:1030E0000D461646FFF724FE024B2577A6612360A6
:1030F000204670BD788C000070B504460E46EFF394
:10310000108572B6BFF35F8FBFF34F8FBFF36F8F22
:10311000806903681B6A9847207F002101F0B4FF93
:10312000A069036831461B68984701210646207F45
:1031300001F0AAFFA06903685B6A984785F31088CD
:10314000BFF35F8FBFF34F8FBFF36F8FBFF35F8FFF
:10315000BFF34F8FBFF36F8F304670BD70B504461D
:103160000E46EFF3108572B6BFF35F8FBFF34F8F3C
:10317000BFF36F8F806903681B6A9847207F002127
:1031800001F082FFA069036831461B689847A06977
:10319000036800211B68984701210646207F01F043
:1031A00073FFA06903685B6A984785F31088BFF3D3
:1031B0005F8FBFF34F8FBFF36F8FBFF35F8FBFF38F
:1031C0004F8FBFF36F8F304670BD00BFF8B5044618
:1031D0000E461746EFF3108572B6BFF35F8FBFF34D
:1031E0004F8FBFF36F8F806903681B6A9847207FFA
:1031F000002101F049FFA069036831461B68984728
:103200000646A069036839461B6898474FF49673D1
:10321000013BFDD10121207F01F036FFA069036849
:103220005B6A984785F31088BFF35F8FBFF34F8FBA
:10323000BFF36F8FBFF35F8FBFF34F8FBFF36F8FFE
:103240003046F8BD2DE9F84305460E46144699462A
:10325000EFF3108772B6BFF35F8FBFF34F8FBFF3EB
:103260006F8F806903681B6A9847287F002101F0EF
:103270000BFFA869036831461B6898478046B9F17F
:10328000000F0DD009F1FF36F6B22644013CA869C3
:10329000036800211B68984704F8010FB442F6D177
:1032A0000121287F01F0F0FEA86903685B6A984756
:1032B00087F31088BFF35F8FBFF34F8FBFF36F8F1C
:1032C000BFF35F8FBFF34F8FBFF36F8F4046BDE8F3
:1032D000F88300BF2DE9F84305460E46144699468B
:1032E000EFF3108772B6BFF35F8FBFF34F8FBFF35B
:1032F0006F8F806903681B6A9847287F002101F05F
:10330000C3FEA869036831461B6898478046B9F137
:10331000000F0CD009F1FF36F6B22644013CA86933
:1033200014F8011F03681B689847B442F7D10121C4
:10333000287F01F0A9FEA86903685B6A984787F3B4
:103340001088BFF35F8FBFF34F8FBFF36F8FBFF353
:103350005F8FBFF34F8FBFF36F8F4046BDE8F88399
:1033600010B50446FFF702FC00230322C821227493
:103370002373E181A360204610BD00BFC181704767
:103380000174704730B5044683B01546FFF74CFC16
:10339000204600228021FFF74BFC02A9212301F8DF
:1033A000013D01222B462046FFF7FAFB2046FFF79E
:1033B00037FC03B030BD00BFF0B587B00D461746EF
:1033C0001E460446FFF728FC18B90025284607B01A
:1033D000F0BD0DF1170E0DF116000DF11503294684
:1033E000019000933A46CDF808E005AB2046FFF780
:1033F000E9FB05460028E8D09DF91730002BE4DBF7
:103400009DF81530FF2B06D09DF814209DF816105E
:103410002046FFF7B7FF9DF814209DF8163014449E
:10342000617C9942D1D006B132700C9A1AB10C99D4
:103430009DF815200A700D9A02B113700E9A1AB1F8
:103440000E999DF817200A702846637407B0F0BDE6
:1034500010B4047F4160022CC26003D05DF8044BBD
:1034600000F052BD83685DF8044B1847F0B4464B3A
:10347000464A986B5C6B01791170454922790A7054
:103480001A6B00790870002A46D05968C9688A42C8
:103490003ED82168CC8B240402F1FF3065D4C0F300
:1034A0000E00C883C88B80B2C882996B0968C88B2C
:1034B000000452D4C2F30E00C883C88B002480B22B
:1034C00012F1FF32C88218BF01221C63596B2E48CB
:1034D00009680D6800F12C04A54236D00068C46864
:1034E00014F0804F0C680D6815BF248824780235CD
:1034F000013544F000440D604463996B254B097914
:103500001970214912B14A6B12791A70F0BC7047D8
:10351000521A1A630122D9E7D86B196805681E4C44
:103520000A63CC62CC682D681C4E24F080440327CB
:10353000B542CC6083F82D701FD1037F4260022B0F
:10354000C2601ED0F0BC00F0DFBC016890F82C0017
:10355000CC6840F000404863CFE7CC8BC2F3080052
:1035600004F47E442043C883A7E7CC8BC0F3080053
:1035700004F47E442043C88394E72B461146F0BCF4
:1035800018478368F0BC18475007FF1F1F80004092
:103590001C8000401B80004000000FFF51340000E1
:1035A00090E80C00F0B41C6859682568164F174E57
:1035B00029432160164D17491760D66015611160C7
:1035C000417A154A5C180C3194F82C4053F821507C
:1035D00002EBC40149680D60017A5C1803EB8101BC
:1035E000247ECD6902EBC40149680D60817A5818C8
:1035F00003EB810390F84000596C02EBC002F0BC71
:1036000053681960704700BF01401F000110003867
:103610000110007800001F80B48E000070B4417A61
:1036200044680E4B05680E4E2144002291F82C1080
:1036300003EBC10149680A60017A2144097E03EB6A
:10364000C10149680A60817A214491F8401003EB76
:10365000C1035B681A602E6070BC7047B48E0000B6
:1036600001401F004268036805CA10B40468224381
:103670000260DA6889B942F08072D9688A4209D05A
:10368000196848040CD40A48186042F08040DA6097
:10369000186119605DF8044B704722F08072ECE706
:1036A00042F08041DA605DF8044B1961704700BF59
:1036B00001401F004268036805CA10B40468224331
:1036C0000260D868840100F0E06205D5080900F4C2
:1036D000706021F470410143D8681143814209D0E0
:1036E0001A68500409D40848186041F08040D96035
:1036F00018611A605DF8044B704741F08042D96050
:103700005DF8044B1A61704701401F00704700BF0D
:103710000F2910B405DC002926DC012380F85C3475
:1037200002E00F2380F85C3400224FF080640368CD
:103730001101803301325C5090F85C14C1F1100328
:103740009342F4DC102B0BD01B014FF00061026898
:103750008032D1501033B3F5807FF8D190F85C14EB
:103760005DF8044B0846704780F85C14DCE700BF46
:1037700090F85C34C3F110039A421EDA30B4044668
:103780000D4603C904EBC203043383E803006B78DE
:10379000A3B923686D68134803F18401102313FB58
:1037A0000211AD04284008602168803113FB021229
:1037B000136823F40013136030BC704723686868F3
:1037C00003F18401102313FB021120F06040086014
:1037D0002168803113FB0212136843F40013136055
:1037E000EAE700BF0000FC1F90F85C34C3F110034F
:1037F0009A4221DA10B404682368DB010CD42368F0
:1038000043F0804323600468236843F080532360BF
:1038100004682368DB01FCD54FF4086303EB8202E4
:1038200011510268136823F0805313600268136813
:10383000DB01FCD45DF8044B704700BFF0B50446D3
:103840008648226883B082429DF8205000F0DA80DA
:10385000834B9A4200F0E580824A8048137843F017
:10386000800313702368834200F0C2807C4A934235
:1038700000F0DE805A6822F400525A602268136811
:1038800043F0804313602268136823F00043136001
:1038900022681368DE02FCD4136883F0007313609F
:1038A00023681A689501FCD41A68D001FCD5186801
:1038B0006D4DB5FBF1F540F40030052D6B4A1860F5
:1038C00092FBF5FE8E4440F2C58094460223002709
:1038D00004E014D0052803F101031AD9B5FBF3F075
:1038E000192803F1FF3600FB03F2F3D89CFBF2F238
:1038F0000A44002AB8BF52429645EADD37460B28F3
:1039000074D91228D8BF37460528964603F101031B
:10391000E4D87B1CB5FBF3F5053D142D5DD8BEF551
:10392000967F5ADC5249226805EB45054B19485DE4
:1039300059789B7800F00700C90440F4800001F436
:1039400060111B04014303F4E0230B4343EA0767C0
:1039500057602268136843F48033136094F85C3432
:103960000025C3F11003AB428DF801508DF80050D3
:10397000019511DDEEB2324600212046FFF734FFFB
:10398000324669462046FFF7F3FE94F85C34013571
:10399000C3F11003AB42EDDC2268136823F08053BF
:1039A000136023681A68D101FCD41A681201FCD490
:1039B00002212046FFF7ACFE284B22689A4241D0F4
:1039C0002C492D4B40204FF0804208701A6023682C
:1039D0004FF6FF729A6203B0F0BD3921274802F01A
:1039E000B3FD274800F084FB03B0F0BD964671E7B5
:1039F000A2F5E732A2F5E272136843F010031360F8
:103A0000236837E7012B0CBF1E4B1F4B4FF400728E
:103A1000012D1A600CBF1D4B1D4B4FF400721A6034
:103A20001AE71C481C4A4FF400730360136013E745
:103A3000A2F5B722A2F5FA62136843F010031360EF
:103A4000236817E715490C4B40204FF400620870BB
:103A50001A60BCE7012300275CE700BF004002407A
:103A600000400A40005006400024F40000DC0BFF38
:103A70009007FF1F5EE400E008E100E0E88D000031
:103A8000D007FF1F48A00440309004404CA00440E1
:103A90003490044060D0044064D004404BE400E023
:103AA000F0B404681023803413FB02444FF0006527
:103AB00025600C79002C36D004680D68843413FB23
:103AC000024425F060452560CD7A8F7A04684E7BEC
:103AD0002D0445EA076588340F7B354313FB024408
:103AE00045EA07252560CD7B8F7B04684E7C2D043D
:103AF00045EA07658C340F7C13FB0244354345EAE5
:103B0000072525600C79C4B14C790068897980302B
:103B1000090401F4702113FB0203ECB141F0476189
:103B20001960F0BC704704680D68104E843413FBB4
:103B30000244AD042E402660C6E74C7900688979BE
:103B40008030090401F4702113FB02034CB941F0E9
:103B500040621A60F0BC704741F046611960F0BCE9
:103B6000704741F041611960F0BC70470000FC1FD4
:103B700070B5046890F85C248034C2F10F0204EB45
:103B80000214236803F07063B3F1006F04F11004B2
:103B90004AD00132102AF4D1B0F84A54B0F848346F
:103BA000013505F00F059BB29D4244D0B0F84A3470
:103BB0000A689BB203EB830300EB830301F1090462
:103BC000C3F80423B0F84A340E799BB203EB8303A5
:103BD00000EB8303002283F80863B0F84A344E797F
:103BE0009BB203EB830300EB830383F80963B0F814
:103BF0004A3489799BB203EB830300EB830383F898
:103C00000A13B0F84A3414F8011F9BB203EB830384
:103C100000EB830313440132082A83F80E13F0D11A
:103C2000A0F84A54012070BD002AB5DBD2B2FFF7DC
:103C300037FF012070BD002070BD00BF0368F0B4E5
:103C40008033102515FB02331B68C3F303438B71CC
:103C50000468803415FB0244246804F40014002C2A
:103C600014BF012400240C71046804F1800415FBC6
:103C700002442468C4F300544C71046815FB0244E8
:103C8000D4F8846026F0604608BFB60C0E60D4F805
:103C900088404C73270A260C042B4FEA14640F73D8
:103CA000CE728C7210D900688C3015FB0205072B80
:103CB0002A684A744FEA12244FEA12404FEA12620D
:103CC0000C74C8738A7307D80A330B44002212316C
:103CD00003F8012B8B42FBD1F0BC70472DE9F04F6C
:103CE000026889B08046D2F830A0064600244FF022
:103CF000010B06E0022B3DD00134102C06F1080622
:103D000033D00BFA04F515EA0A0FF5D04FEA04197F
:103D100002F1800353F80930C3F30363062B29D063
:103D2000082BE7D1B8F84814B8F84A3489B29BB2E6
:103D30009942E1D0B8F8481489B201EB810108EB4F
:103D40008101E2B201F541714046FFF7A9FEB8F8E2
:103D50004834D8F800200133013403F00F03102C4D
:103D6000A8F8483406F10806CBD1C2F830A009B053
:103D7000BDE8F08FE2B203A94046FFF75FFF08F508
:103D80008B63019608F5896700221E4657F8040FD9
:103D900020B143681D4235D1002B46DBBE42F5D130
:103DA000019E12BBB8F84474B8F84634013707F0E6
:103DB0001F079BB29F4218D0B8F844E403AD0FCD63
:103DC0001FFA8EFE0EEB8E0E08EB8E0E0EF1800E9D
:103DD000CEF804002868CEF80810CEF80C20CEF8F3
:103DE0001030CEF81400A8F8447473798BB1D8F869
:103DF0000030B268843322F0604243F80920D8F8DA
:103E0000002079E70368114A1B68934218D1012208
:103E1000C4E7B168D8F800300D4A890484330A40F9
:103E200043F80920D8F8002066E70368074A1B68B2
:103E30009342ECD04FF0FF3203A998470122ADE73F
:103E4000224603A998470122A8E700BF0D370000CA
:103E50000000FC1F0148FFF741BF00BF1C13FF1FFC
:103E6000704700BF704700BF704700BF704700BF7A
:103E7000704700BF0148FFF731BF00BF7C17FF1F2D
:103E8000704700BF704700BF704700BF704700BF5A
:103E9000704700BF17491848184B194A10B40B60F7
:103EA0000023184C03704370A1F844341460A1F847
:103EB0004634C1F84C34A1F84834C1F85034A1F864
:103EC0004A34C1F85434A2F84434C1F85834A2F842
:103ED0004634C2F84C34A2F84834C2F85034C2F820
:103EE0005434A2F84A34C2F8583443605DF8044BA5
:103EF000704700BF1C13FF1FDC1BFF1F0040024068
:103F00007C17FF1F00400A4010B4EFF3108272B616
:103F1000437F33B9017F012908D0032910D0012341
:103F2000437702B962B65DF8044B7047114C2168C3
:103F3000A1B1114943610B68836108605861EEE7E4
:103F40000E4C216881B10E4943610B6883610860A2
:103F500058610C4B4FF080511960E0E7064B41610E
:103F6000816120601860DAE7054B41618161206062
:103F70001860EEE7F41BFF1FF01BFF1FE41BFF1F81
:103F8000E81BFF1F04ED00E070B5EFF3108272B67E
:103F90000C4C206880B10C4E00254369236073B13E
:103FA0009D6102B962B6457783689847EFF3108246
:103FB00072B620680028F0D102B962B670BD3360D5
:103FC000EFE700BFE41BFF1FE81BFF1FFFF7DCBF8D
:103FD000184A30B41468002C27D0036821688B423B
:103FE0000ED2CB1A00218460C1602360E0601060B3
:103FF0000223037530BC704711688B42144608D306
:10400000A2685B1A0360002AF6D18260C460A060D7
:10401000EEE7D268C2608460E060C568CB1A022215
:10402000A8602360027530BC70478460C460106073
:10403000DEE700BFEC1BFF1FF8B5224E34682CB33F
:104040002368002B3AD1204F1D4604E03468ECB1C0
:104050002368002B32D1A36803B1DD60206933608F
:10406000036825751B68BB4221D1037F4560022B85
:10407000C46020D0FFF748FF6368002BE6D02360C0
:104080002046FFF7A5FF3468002CE1D1EFF3108341
:1040900072B60E4A00211068116003B962B628B1E9
:1040A0008468FFF795FF20460028F9D1F8BD224625
:1040B00000219847E0E783689847DDE7013B2360EC
:1040C000E4E700BFEC1BFF1F51340000FC1BFF1F87
:1040D000024A136801331360FFF7AEBF081CFF1FCD
:1040E00008B5FCF705FAFCF7CBFC00F04BF9FAE752
:1040F00000B5064A036812885B6883B001A9ADF871
:1041000004200222984703B05DF804FB248E0000CF
:10411000F0B507468BB0002A33D0012A08BF0A2227
:1041200051B3212400E0F4B2B1FBF2F502FB15110A
:10413000C8B2092900F1300198BFC8B20AA988BFE6
:104140003730214488BFC0B201F8240C661E2946CE
:10415000002DE8D133B1013CE4B20AAB23442D2257
:1041600003F8242C3B6801AA11195B683846C4F196
:10417000220298470BB0F0BD30228DF82520212473
:10418000E8E70368C9B21B6898470BB0F0BD00BFF1
:104190000029BABF49422D2300230A22FFF7B8BFE6
:1041A0002DE9F04357EC106B85B005460C4610EE38
:1041B000102A3B4610EE100A394603F01BF800287F
:1041C00040F0B28027F00049304649464FF0FF32B8
:1041D000594B03F00FF890B9304649464FF0FF3283
:1041E000554B02F0E9FF50B92B6854495B682846EB
:1041F000032298478046404605B0BDE8F0834FF063
:1042000060424F4B3046394602F0EAFF002872D137
:104210004FF060424B4B3046394602F0C3FF002856
:1042200069D1002200233046394602F0BBFF002846
:1042300064D18146002C67D0434900204FF000082C
:104240003BA3D3E9002308F1010802F039FD5FFA2E
:1042500088F39C42F4D802460B463046394602F0B9
:104260007DFB0F46064602F0DBFF804602F0B2FC03
:1042700002460B463046394602F06EFB4B46064678
:104280000F460A2241462846FFF742FF0F2C28BF5F
:104290000F2404F101092E2380465FFA89F98DF875
:1042A000003001240022294B3046394602F008FD37
:1042B0000F46064602F0B4FF04AB2344C0B200F13F
:1042C000300203F8102C02F095FC02460B463046F3
:1042D000394602F041FB0134E4B24C4506460F4634
:1042E000E0D12B6822465B682846694698474046DD
:1042F00005B0BDE8F0832B68154977E707F1004367
:104300001F464FF0010995E700220F4B3046394612
:1043100002F024FB02F084FF4B4601460A222846A5
:10432000FFF7F6FE804666E72B680A495EE700BFA6
:10433000000000A09999B93FFFFFEF7F308E000089
:10434000FFFFEF41FFFFEFC10000E03F000024400E
:104350002C8E0000288E000002F0DAB802F0B2B80D
:1043600002F08CB802F0C6B802F0A2B902F07CB933
:104370000846114602F0E8B8084602F069B900BFE5
:10438000704700BF38B52C4C237803B138BD0123EA
:10439000237002F0AFF8002842D100F0BBFF0028E4
:1043A0003BD101F04DF8002834D101F0DFF870BBAB
:1043B00001F058F940BB01F0D1F910BB01F04AFA05
:1043C000E0B900232370EFF30583002BDED1EFF378
:1043D000108172B6194B186828B3194C227812BB99
:1043E00045691D60012323700DB3AA6101B962B64E
:1043F00000254577836898472570C7E702F064FA7F
:10440000DFE702F05FFAD9E702F05AFAD3E702F0E9
:1044100055FACDE702F050FAC7E702F04BFAC0E7D1
:10442000FFF7AEFFB9E70029B0D162B638BD054B42
:104430001D600029DCD1DAE7001CFF1FF41BFF1F01
:10444000F81BFF1FF01BFF1F374A384913681B0674
:10445000FCD40B6813F08003F8D172B634490A78A3
:10446000002A5FD0334A3448F0B4344C17680668E9
:104470002568D4680C303E44143200681268304F0E
:1044800035442C4420440244C2F34E022D4E2E48A3
:104490002E4D2F4C42F400423A60376806682D6872
:1044A0002C4A24680C303E44006812682A4F354478
:1044B0002C4420440244C2F34E02284E2848294D81
:1044C000294C42F400423A60376806682D68274A52
:1044D00024680C303E4400681268254F35442C4453
:1044E00020440244C2F34E02224E2348234D244C62
:1044F00042F400423A60376806682D68214A246811
:104500000C303E440068126835442C442044024478
:10451000C2F34E021C4842F4004202600B7062B6C5
:10452000F0BC704762B6704724B0034024B00B4023
:10453000021CFF1F38B003403CB0034040B00340B2
:104540002CB0034058B003405CB0034060B003405F
:1045500064B003406CB0034030B0034038B00B404F
:104560003CB00B4040B00B4044B00B404CB00B4053
:104570002CB00B4058B00B405CB00B4060B00B400F
:1045800064B00B406CB00B4030B00B4030B42948E5
:10459000294A2A4B2A4D6024E121047011701B78AE
:1045A000284C082B30D00A2B2748284937D00C2B11
:1045B0000CBF35225D2212232A60236002600B604B
:1045C000234B24491B78244ABBB101230B601360A1
:1045D000224B23491B78234A012B26D9042B0FD9C0
:1045E000082B1ED9102B94BF862387230B601360E2
:1045F0001D4B01221A7030BC70470B601360E7E757
:1046000084230B601360F3E700F58E200F49083018
:10461000212213232A60236002600B60D0E7392235
:10462000F7E785230B601360E2E780230B601360DC
:10463000DEE700BF0040074001400740E007FF1FE2
:1046400008B003400CB0034008B00B400CB00B4066
:10465000051CFF1F20B0034020B00B40E107FF1FE7
:1046600024B0034024B00B40021CFF1F68B10E4A67
:104670001378C3B90D4909780120107019B10C499C
:104680000C4A0B601360FFF781BF074B1A7852B1D9
:10469000064A18701378002BF5D0054A054B1060B8
:1046A0001860FFF773BF7047051CFF1F021CFF1F38
:1046B00024B0034024B00B400C2830B417D9102389
:1046C000984228BF18461C46104A114D1178181AF6
:1046D0008C42287018D00F4913700B7823B10E4903
:1046E0000E4A00230B60136030BCFFF74FBF0A284F
:1046F00002D90C231C46E7E7082802D90A231C46E6
:10470000E2E708231C46DFE730BC7047E007FF1FE5
:10471000011CFF1F021CFF1F24B0034024B00B40EC
:1047200047282FD8334B2DE9F0411E5CFF2E2BD0AC
:10473000314B1B78002B2AD132062CD472B62F4D68
:104740002F4C2F46012326602B7062B672B6236869
:104750001B060CD43B781BB9F4E72B78002BF1D067
:1047600062B6FFF70FFE72B623681806F5D5254B23
:104770001B6800222A7062B6234A107843FA00F0C0
:10478000BDE8F081002070470020BDE8F081FFF710
:104790005BFE3206D2D572B61C4DDFF87C801C4C15
:1047A00006F04007FFB206F03F06D8F80030DFB150
:1047B00023F01003C8F8003001232660134A2B7041
:1047C00062B672B6236819060CD413781BB9ECE7ED
:1047D0002B78002BE9D062B6FFF7D4FD72B62368C0
:1047E0001B06F5D50B4BC3E743F01003C8F80030A8
:1047F000E2E700BF5C8E0000021CFF1F041CFF1FCD
:1048000000B0034010B00340011CFF1F031CFF1F3A
:1048100000B00B4010B00B400CB00B400A4A0B49E3
:10482000136843F4805313600B7843B1084B802224
:104830001A7080F30C00074B00B218807047044BCD
:10484000C0221A70F5E700BF2C800440051CFF1F32
:1048500021C00C4000C00C400A4A0B49136843F4C5
:10486000005313600B7843B1084B80221A7080F319
:104870000C00074B00B218807047044BC0221A701E
:10488000F5E700BF2C800440051CFF1F21D00C4021
:1048900000D00C40F0B51D4B1D4E596818689A6841
:1048A000DB6885B06C460FC43378990721D5194A67
:1048B000194C137813F0700318BF137000F0C0F890
:1048C000164A1749174B8027177000261220052219
:1048D00026706D4608701A7072B6043C45F00105EA
:1048E0002046A84762B600F0C5F8237813F070039D
:1048F00009D10D4B064901E0013B02D00A78D207ED
:10490000FAD505B0F0BD237005B0F0BDA48E00004F
:104910000100024000000240040002400700024083
:104920000B0002400A000240410D0300B0F5805F19
:104930000AD210B5094B1B78DB07044606D504F1F3
:10494000A0500078C0B210BD00207047FFF7A2FF52
:1049500004F1A0500078C0B210BD00BF01000240B9
:10496000B0F5805F1DD238B5124B1B78DA070D46C3
:10497000044617D504F1A0542378AB4210D000F0C0
:104980005FF80D4A137813F0700318BF1370094ACB
:1049900025701378DB07FCD5BDE8384000F06AB815
:1049A00038BD704704F1A054FFF774FF2378AB4281
:1049B000E5D1F5E7010002400000024008B5104CC7
:1049C00008E0236859050DD423681A050FD423681D
:1049D000DB0411D423685803F3D501F075F823687C
:1049E0005905F1D500F0A6FC23681A05EFD500F0B3
:1049F00037FD2368DB04EDD500F0C8FDEAE700BF12
:104A00003480044008B5FFF7D9FF00BF704700BFEE
:104A1000094908B50B6830B16A461844A2F500523E
:104A2000904202D20860184608BD02F069FC0C23CF
:104A300003604FF0FF3008BDE407FF1FFEE700BF33
:104A4000084A1378802B01D0002070470649074B95
:104A500007480860002119701378802BFCD00120D2
:104A6000704700BF03E007404480044001E0074076
:104A700000002822094A1378012B01D0002070473A
:104A800003F1804303F5FC23602119701378802B18
:104A9000FCD1034B034A1A600120704703E0074032
:104AA0004480044000000602F0B44D1E2E4600244F
:104AB00000E00134B0FBF2F302FB1300092800F11F
:104AC00030078ABF3730F8B2C0B206F8010F184677
:104AD000002BEED10A1953704CB1107815F8016F04
:104AE00028700133E01A834202F80169F5DB0846B9
:104AF000F0BC704710B4114B53F8302092F880424C
:104B000034B1012379B182F880305DF8044B7047ED
:104B100003EBC0035B681A6851B922F002021A6005
:104B20005DF8044B704782F800315DF8044B704724
:104B300042F003021A605DF8044B7047B48E000027
:104B40001C4A02EBC00301295B6811D004291BD069
:104B500052F83000002280F8802229B1022920D0AA
:104B6000032922D01A6070474FF480721A60704790
:104B700052F830004FF4A27280F880121A601A685E
:104B800022F020021A60704752F830104FF4A272DF
:104B9000012081F880021A601A6842F020021A602F
:104BA000704740F203121A6070474FF481721A6026
:104BB000704700BFB48E000030B4054B054D064C65
:104BC000002210211A602A602060196030BC7047F2
:104BD00014D0034004D0034000D0034038B5A0F106
:104BE0004203012B044624D900297ADD994B1B7816
:104BF000012505FA03F28A4202D83F282CD938BD94
:104C0000C21E012A30D9A0F11D02012A78D90E282E
:104C10005BD9A4F12302032A5CD9A4F11002012A72
:104C200094BF8D4A8D4A126802FB011222FA03F3E7
:104C300020E0884B1B780B2B0AD90C2B1CBF0C3B9C
:104C40001941422C084657D0BDE83840FFF704BE52
:104C5000C3F10C039940F4E72946FFF74BFF2946BF
:104C6000BDE83840FFF76CBF7D4A126802FB0112B5
:104C700022FA03F3A21E242A00F2E380DFE812F0F6
:104C8000DA00D300CC00C500BE00B700B000A90018
:104C9000A200E100E100E1009B00E10094008D0032
:104CA000E100E10086007F0078007100E100E10092
:104CB000E100E100E1006A006300E100E100E100E1
:104CC000E1005C0055004E00470044F28412C240EF
:104CD000D2079ED5634A126802FB011222FA03F33F
:104CE000C8E73F288BD80021FFF704FF20460121A9
:104CF000BDE83840FFF724BFBDE83840FFF78EBD60
:104D0000594A126802FB011222FA03F3B2E757492B
:104D1000574A0B604FF45173136038BD5549564ADA
:104D20000B604FF45173136038BD5449544A0B6003
:104D30004FF45173136038BD5249534A0B604FF41E
:104D40005173136038BD5149514A0B604FF4517390
:104D5000136038BD4F49504A0B604FF451731360D4
:104D600038BD4E494E4A0B6040F24443136038BD93
:104D70004C494D4A0B6040F24443136038BD4B49E7
:104D80004B4A0B6040F24443136038BD49494A4ADC
:104D90000B6040F24443136038BD4849484A0B60F9
:104DA00040F24463136038BD4649474A0B6040F205
:104DB0004463136038BD4549454A0B6040F24443A3
:104DC000136038BD4349444A0B6040F244431360CA
:104DD00038BD4249424A0B6040F24443136038BD3B
:104DE0004049414A0B6040F24443136038BD3F499B
:104DF0003F4A0B6040F24443136038BD3D493E4A90
:104E00000B6040F24443136038BD3C493C4A0B60A0
:104E100040F24443136038BD3A493B4A0B604FF4BB
:104E20005173136038BD3949394A0B604FF45173DF
:104E3000136038BD3749384A0B6040F24443136071
:104E400038BD3F2C3FF6DBAE7F29D4BF00210121C6
:104E5000204649E7E807FF1F08900C400880034000
:104E60000890034008900B4008800B4048900B408E
:104E70002CB0044040900B4028B0044038900B40C8
:104E800024B0044030900B4020B0044018800B4008
:104E90004CA0044010800B4048A004401880034000
:104EA00008B004401080034004B004404080034038
:104EB00018C004403880034014C0044018900C40CF
:104EC00004A0044010900C4000A0044018900B4037
:104ED00004C004402880034010B0044020800340F8
:104EE0000CB0044028900B400CC0044020900B40B4
:104EF00008C004403080034010C004404880034094
:104F00001CC00440189003403490044010900340AB
:104F10003090044010900B4000C0044038B110287D
:104F200028BF1020044AC3B2107813707047024A99
:104F30000123107813707047E807FF1FA0F11001DC
:104F4000C9B2012970B45BD9DFED3B7A3B4AB4EEBC
:104F5000E70AF1EE10FA47F6122346BF1A46022579
:104F60000125DFED376A002322FA03F407EE904AA9
:104F7000F8EEE77A27EEA67AB4EEC70AF1EE10FA59
:104F800007DA0133072BEFD1D20907EE902AF8EEAA
:104F9000E77A87EE807A4FF6FF74C21EF6EE007A4B
:104FA00077EE677AFCEEE77A17EE906AA64228BFA2
:104FB0002646012A344637D917280ED9A0F11D02FA
:104FC000012A35D90E281ED92338032820D90129D2
:104FD00014D81C4A1C4E1D481DE01D4AC24002F058
:104FE000010282F00106002AE8D01A4A1A481B4939
:104FF000166043EAC50306600C60136070BC70471E
:10500000174A0125ADE744F28412C240D207DBD52E
:10501000144A154E154843EAC5030021116031605A
:105020000460136070BC7047114A124E1248F2E7D8
:10503000124A134E1348EEE7C0E1E44000879303A1
:105040000000803700900C4004900C4008900C4009
:105050006006F000008003400480034008800340A5
:105060000024F40000900B4004900B4008900B408B
:1050700000900340049003400890034000800B40E0
:1050800004800B4008800B403F2801D8FFF732BD59
:10509000704700BF3F2806D8044B53F8303093F8D0
:1050A0000002C0B270470020704700BFB48E0000FD
:1050B0003F2801D8FFF744BD704700BF72B60D49C5
:1050C0000D4B0E4A1B680868126862B6520102D581
:1050D000322B88BF0130C3F52F33094903F21F3348
:1050E0004FF47A729B08A1FB031302FB00F000EB64
:1050F00093007047081CFF1F18E000E004ED00E07B
:10510000176CC1162DE9F843054672B6224F234BA2
:10511000234A1B683C68126862B6520102D5322BE2
:1051200088BF0134B5B3C3F52F3303F21F331D4ECF
:10513000DFF86890DFF868809B084FF47A72A6FB6E
:10514000031302FB04F404EB930472B6D9F80010C5
:105150003A68D8F800E062B6C1F52F3303F21F3386
:105160009B08A6FB03031EF0806FC4EB93034FF470
:105170007A7002D0322988BF013200FB0233B3F5C6
:105180007A7F04D3013D05D004F57A74DDE7FFF79B
:10519000F9F8DAE7BDE8F883081CFF1F18E000E023
:1051A00004ED00E0176CC116F8B54E4B4E48DFF821
:1051B0005CC14E4C4E49DFF858E14E4E4E4D4F4FBC
:1051C0004FF000621A604FF080521A604FF00052A8
:1051D0001A604FF080421A604FF000421A600022BD
:1051E000026028234EF6FF70CCF80000CEF80030A5
:1051F00023600EF5012E0B6033602B6006F5002650
:105200003B6005F50025A36207F500278B6204F5D6
:10521000012401F5012106F6E87605F6E87507F5A3
:105220007F6710310EF1100E203433602B60CEF802
:1052300000303B600B602360314CBB618B61092106
:105240002160A7F5002704F58054203F08343A6018
:105250002060BB60E36047F8041C04F5FD2407F5FB
:10526000FE27043704F2FC7422603860A360FB6000
:1052700044F8041C083404F6FC74C7F8FC2F2060C2
:10528000A4F5E124A4F2DC7433602B60C7F8F81FA6
:1052900021681C4841F40071216001681A4C0EF528
:1052A0007F4E0EF1E80E07F5883706F5803605F5D6
:1052B000803541F000710160CEF8002047F6FF71A3
:1052C0000822396033602B602260FFF75FF93220DB
:1052D000FFF718FF01F024F84FF4AF70BDE8F84075
:1052E000FFF710BF04E100E0048003401480034096
:1052F0001C800340248003402C8003403480034002
:10530000008003400480044000900C40088003406B
:105310000C800340054A064B10781B78C0B2DBB204
:10532000984238BF4030C01A704700BF101CFF1FA2
:10533000111CFF1FF0B4384B1A7912F0300F2CD02B
:1053400072B6997D01F0FF0200293DD062B6334F5D
:10535000334938780D78334E1C46C0B2EDB2431C49
:10536000402BE17928BF0023AB4202F1FF32C9B2E2
:105370001CBFF154184612F0FF02F0D12A4B1B68F3
:10538000C2B23A704BB1A84236BFC5F14005401BCE
:1053900040192728C4BF01221A701F49CA78D2B207
:1053A000150616D452060DD51B4B1B795B0609D585
:1053B0001E4B1F491B6800220A7003B11A70164B5E
:1053C0003C22DA70F0BC70474022D9795A7462B638
:1053D000E3E70B791C06E5D5164B174E1C7833789E
:1053E000E4B2DBB29C420ED0144D01E0A3420AD0DD
:1053F0000133402B28BF00230879E85CC0B2C87194
:10540000087D0728F2D9DBB2034933700B791806FF
:1054100044BF7C23CB70C5E700A00640101CFF1FD3
:10542000111CFF1F541CFF1F0C1CFF1F981CFF1F8B
:10543000941CFF1F9C1CFF1F951CFF1F141CFF1FAB
:10544000054A064B10781B78C0B2DBB2984238BFD1
:105450004030C01A704700BF101DFF1FA51CFF1F62
:10546000F0B4384B1A7912F0300F2CD072B6997D07
:1054700001F0FF0200293DD062B6334F334938783E
:105480000D78334E1C46C0B2EDB2431C402BE1797F
:1054900028BF0023AB4202F1FF32C9B21CBFF15456
:1054A000184612F0FF02F0D12A4B1B68C2B23A70C4
:1054B0004BB1A84236BFC5F14005401B4019272813
:1054C000C4BF01221A701F49CA78D2B2150616D479
:1054D00052060DD51B4B1B795B0609D51E4B1F4988
:1054E0001B6800220A7003B11A70164B3C22DA7056
:1054F000F0BC70474022D9795A7462B6E3E70B7961
:105500001C06E5D5164B174E1C783378E4B2DBB297
:105510009C420ED0144D01E0A3420AD00133282B47
:1055200028BF00230879E85CC0B2C871087D07284D
:10553000F2D9DBB2034933700B79180644BF7C23E0
:10554000CB70C5E700B00640101DFF1FA51CFF1F54
:10555000D01CFF1FA01CFF1F141DFF1FA41CFF1F3A
:10556000181DFF1F111DFF1FA81CFF1F054A064B1A
:1055700010781B78C0B2DBB2984238BF4030C01AF6
:10558000704700BF201DFF1F211DFF1F30B42B4B94
:105590001A7994061FD52A48DA7903782949013304
:1055A0003F2B0978C8BF00238B42D2B203D0264CD0
:1055B000D9B2E2540170254A116861B1244A1278C7
:1055C000D2B2934236BFC2F140029B1A9B18272BDE
:1055D000C4BF01230B70194AD378DBB2180611D46B
:1055E0005A060DD5154B1B795B0609D5194B1A497F
:1055F0001B6800220A7003B11A70104B2C22DA705B
:1056000030BC704711790906EAD5144910480C7866
:105610000178C9B28C420DD04A1C272A84BF0021D0
:105620000A460F4D054C98BFD1B2AA5CD2B2E271C6
:105630000170D5E76C21D170D2E700BF00C00640F1
:10564000201DFF1F211DFF1F4C1DFF1F1C1DFF1FC5
:105650008D1DFF1F901DFF1F8C1DFF1F941DFF1F21
:10566000241DFF1F054A064B10781B78C0B2DBB221
:10567000984238BF4030C01A704700BF9C1DFF1FC2
:105680009D1DFF1F30B42B4B1A7994061FD52A4855
:10569000DA790378294901333F2B0978C8BF002301
:1056A0008B42D2B203D0264CD9B2E2540170254AC3
:1056B000116861B1244A1278D2B2934236BFC2F166
:1056C00040029B1A9B18272BC4BF01230B70194A59
:1056D000D378DBB2180611D45A060DD5154B1B79B9
:1056E0005B0609D5194B1A491B6800220A7003B1E1
:1056F0001A70104B2C22DA7030BC704711790906F1
:10570000EAD5144910480C780178C9B28C420DD002
:105710004A1C272A84BF00210A460F4D054C98BF1A
:10572000D1B2AA5CD2B2E2710170D5E76C21D1701E
:10573000D2E700BF00D006409C1DFF1F9D1DFF1F2C
:10574000C81DFF1F981DFF1F091EFF1F0C1EFF1FF6
:10575000081EFF1F101EFF1FA01DFF1F054A064B3E
:1057600010781B78C0B2DBB2984238BF4030C01A04
:10577000704700BF181EFF1F191EFF1F30B42B4BB0
:105780001A7994061FD52A48DA7903782949013312
:105790003F2B0978C8BF00238B42D2B203D0264CDE
:1057A000D9B2E2540170254A116861B1244A1278D5
:1057B000D2B2934236BFC2F140029B1A9B18272BEC
:1057C000C4BF01230B70194AD378DBB2180611D479
:1057D0005A060DD5154B1B795B0609D5194B1A498D
:1057E0001B6800220A7003B11A70104B2C22DA7069
:1057F00030BC704711790906EAD5144910480C7875
:105800000178C9B28C420DD04A1C272A84BF0021DE
:105810000A460F4D054C98BFD1B2AA5CD2B2E271D4
:105820000170D5E76C21D170D2E700BF00A00E4017
:10583000181EFF1F191EFF1F441EFF1F141EFF1FEF
:10584000851EFF1F881EFF1F841EFF1F8C1EFF1F4B
:105850001C1EFF1F054A064B10781B78C0B2DBB236
:10586000984238BF4030C01A704700BF941EFF1FD7
:10587000951EFF1F30B42C4B5A6894021FD52B483D
:10588000DA6803782A4901333F2B0978C8BF00231F
:105890008B4204D0274CD2B2D9B2E2540170264ACE
:1058A000116861B1254A1278D2B2934236BFC2F173
:1058B00040029B1A9B18272BC4BF01230B701A4A66
:1058C0009368180202D55268110211D45A020DD5FC
:1058D000154B5B685B0209D5194B1A491B680022FE
:1058E0000A7003B11A70184B00221A6030BC70475E
:1058F000164A124910780A78D2B290420DD001327D
:10590000272A84BF00200246114D074C98BFD0B211
:10591000AA5CD2B2E2600870D8E70E480A4A0024B6
:10592000012104601160D1E700400C40941EFF1F6C
:10593000951EFF1FC01EFF1F901EFF1F011FFF1F90
:10594000041FFF1F001FFF1F58018843081FFF1F70
:10595000981EFF1F5C018843431E032B14D872B6A8
:105960000A4951F8230068B170B4094C058834F82D
:105970001320466841F82360521B24F8132062B6B6
:1059800070BC704762B6704700207047641FFF1FED
:105990003C20FF1F013803280BD872B6074B53F881
:1059A000203043B100205B680130002BFBD162B690
:1059B0007047002070471846F9E700BFB81FFF1F67
:1059C000F0B472B61A491B4E012311F8014B194F5E
:1059D0009A00240742F0010505D556F8324064B11B
:1059E00056F83520BAB10133052BEED162B6124B11
:1059F00000221A70F0BC00F01BBD0F4C0F4D217837
:105A000047F8325007EB431308304A1E58602270A3
:105A100062B6F0BC70470849094B0A7847F8353040
:105A200007EBC5030830013A58600A7062B6F0E728
:105A3000E49000000000FF1FE11FFF1F88004000EE
:105A4000C8004000431E032B1DD81B4A400140F0F4
:105A5000100030B4104472B6184CE25C032A1BD814
:105A6000DFE802F00212151703220D88E25410F04D
:105A7000080F14BFC823882343EA05430831036095
:105A8000416062B630BC704708300222EDE7052263
:105A9000EBE708300422E8E7094A52F8230038B15E
:105AA000084A52F82300416042F8231062B6E9E741
:105AB00042F82310034AF7E70000FF1FF01FFF1F03
:105AC000B81FFF1FC81FFF1F2DE9F04FDFF804A309
:105AD000DFF804B387B044E0A94F4FEA930807EB1F
