:1000000000800020BD010000AD48000065480000F0
:10001000654800006548000065480000654800002C
:10002000654800006548000065480000AD480000D4
:10003000AD48000065480000F53E0000F93F0000B3
:10004000AD480000AD480000AD480000AD480000DC
:10005000AD480000AD480000AD480000AD480000CC
:10006000AD480000AD480000AD480000AD480000BC
:10007000AD480000AD480000AD480000AD480000AC
:10008000AD480000AD480000AD480000AD4800009C
:10009000AD480000AD480000AD480000AD4800008C
:1000A000AD480000AD480000AD480000AD4800007C
:1000B000AD480000D13D0000DD3D0000E13D000005
:1000C000E53D0000E93D0000ED3D0000AD480000C9
:1000D000AD480000AD480000AD480000AD4800004C
:1000E000AD480000AD480000AD480000AD4800003C
:1000F000AD480000494F0000AD48000075500000B9
:10010000AD480000A1510000AD480000AD4800001E
:10011000AD480000AD480000AD480000AD4800000B
:10012000AD480000AD480000AD480000AD480000FB
:10013000AD480000AD480000AD480000AD480000EB
:10014000AD480000AD480000AD480000AD480000DB
:10015000AD480000AD480000AD480000AD480000CB
:10016000AD480000E9530000AD480000AD48000074
:10017000AD480000AD480000AD480000AD480000AB
:10018000AD480000AD480000AD480000AD4800009B
:10019000AD480000AD480000AD480000AD4800008B
:1001A000AD480000AD480000AD480000AD4800007B
:1001B000AD480000AD480000AD480000564B4CF281
:1001C000205210B51A804DF628121A8000BF00BFC9
:1001D00000F076F9514B4FF010621A60504A9A6065
:1001E000504ADA60504A136813F4807304D14F49BF
:1001F0000B604FF4A85313604D4B1A78110703D5C9
:100200001A7842F008021A704A4B4B492A221A7097
:100210004A4A4B4B8B4204D252F8040F43F8040B6A
:10022000F8E7484B484900228B4202D243F8042B9E
:10023000FAE74649464A002352F8230041F82300D2
:1002400001336F2BF8D1434B434A802103F8011B44
:100250009342FBD1414B3D4A1A60414B8A221A70AE
:10026000A3F5805324225A70A0221A709A7992071B
:10027000FCD59A79D406FCD43A4A937903F00C035E
:10028000082B384BF9D103221A7140225A719A79FE
:100290009006FCD5334A9179324B4906FBD5324A58
:1002A000324911600221516020221A709A7902F0BD
:1002B0000C020C2AFAD12E4B2E4A1A602E4B2F4AD2
:1002C0001A6000225A60072243F8042C2C4AC3F813
:1002D0000C2D62B604F0B8FD144B1B68DA0705D587
:1002E000284804F085FB284B284A1A60284B1B78C5
:1002F0005B0609D5244C254B22689A4204D121483B
:1003000004F076FB0023236006F098FF04F0D2FA95
:1003100003F07AFEFEE700BF0E2005403080044067
:10032000823F04000100002B10D0034014D0034092
:1003300002D0074000E00740BC90FF1F388F00004C
:100340002087FF1FBC90FF1F6C9AFF1F0082FF1FBA
:100350000000000000E400E05FE400E008ED00E0E1
:100360000050064000400640448004400000030165
:1003700004800440C010050014E000E0FF76010096
:10038000000020202983B9591CE00340A5C3945ADA
:1003900000F00740FFFFFFFFFFFFFFFFFFFFFFFF32
:1003A000FFFFFFFFFFFFFFFFFFFFFFFFFFFFFFFF5D
:1003B000FFFFFFFFFFFFFFFFFFFFFFFFFFFFFFFF4D
:1003C000FFFFFFFFFFFFFFFFFFFFFFFFFFFFFFFF3D
:1003D000FFFFFFFFFFFFFFFFFFFFFFFFFFFFFFFF2D
:1003E000FFFFFFFFFFFFFFFFFFFFFFFFFFFFFFFF1D
:1003F000FFFFFFFFFFFFFFFFFFFFFFFFFFFFFFFF0D
:10040000FFFFFFFFFFFFFFFFFFFFFFFFDEF9FFFF23
:1004100010B5054C237833B9044B13B10448AFF33E
:1004200000800123237010BDBC90FF1F000000005E
:100430003C8F0000084B10B51BB108490848AFF3CA
:1004400000800848036803B910BD074B002BFBD0A0
:10045000BDE81040184700BF00000000C090FF1F1B
:100460003C8F0000BC90FF1F0000000070B50446E8
:1004700008460D4607F0E4F923680246294620465F
:100480005B68BDE87040184738B5044608460D461D
:1004900007F0D6F92368024629465B68204698474C
:1004A0000546204603F0B8FD284438BD38B505465A
:1004B00003F002FE0446284603F0AEFD204438BD9A
:1004C00070B40748074D084C084A4FF47A76002369
:1004D00011212E802380038070BC1180704700BFE3
:1004E0001620054006200540042005400020054058
:1004F000F0B585B0002423460094CD4ACD49CE48BE
:1005000003F088F901238DF80930E2B202A9013421
:10051000C94803F01BF9102CF7D10221242004F064
:100520001DFC0221252004F019FC0121182004F0F3
:1005300015FC0121192004F011FC01211A2004F0FE
:100540000DFC01211B2004F009FC01211C2004F0FA
:1005500005FC01211D2004F001FC01211E2004F0F6
:10056000FDFB01211F2004F0F9FB0121202004F0F4
:10057000F5FB2120012104F0F1FBB04802F004FB5F
:10058000002840F038821121AD4805F061FCAD48EB
:1005900003F042FDA94802F0F7FAAB49142004F039
:1005A00047FB0A2004F034FBA84B1B68002B40F0EB
:1005B0001482A74BA74C1C60A74FA84EA84DA94872
:1005C000A94AAA49AA4BAB4C3960AB4933602B60AE
:1005D000046011600121052004F0C0FB0121062008
:1005E00004F0BCFB0121102004F0B8FB01210F2016
:1005F00004F0B4FB0121082004F0B0FB0121072026
:1006000004F0ACFB0121142004F0A8FB012115200B
:1006100004F0A4FB0121122004F0A0FB002116200D
:1006200004F09CFB0021172004F098FB002102201D
:1006300004F094FB002003F095FF0C2003F0B8FFBA
:100640000021112004F08AFB0021152004F0E2F9BA
:100650000E218A4805F0FCFB7A4803F0DDFC72B6F7
:10066000874C4AF202664BF280452680258062B6AE
:10067000012004F09BFB0121102004F05BFB6420AF
:1006800004F094FB0F217F4805F0E2FB6D4803F076
:10069000C3FC0021102004F04DFB72B6268025809B
:1006A00062B6012004F082FB01210F2004F042FB1E
:1006B000642004F07BFB0D21734805F0C9FB614801
:1006C00003F0AAFC72B62680258062B6012004F0F1
:1006D0006DFB0121082004F02DFB642004F066FB73
:1006E0000E216A4805F0B4FB564803F095FC002142
:1006F000082004F01FFB72B62680258062B6012018
:1007000004F054FB0121072004F014FB642004F0E2
:100710004DFB0021102004F00DFB00210F2004F000
:1007200009FB0021082004F005FB0021072004F04C
:1007300001FB57483B685749574A584E584C03608D
:10074000DFF878E1574D58480B60136040F255517F
:10075000564A3360564E2260AEF80010298002607F
:100760000024204604F03CF8374605461B2151483A
:1007700006F8015B05F06CFB00230A22397831484A
:1007800003F05AFC0B214C4805F062FB00230A22BF
:1007900029462C4803F050FC2A4803F03DFC1B215D
:1007A000444805F055FB2146264803F085FC0B2103
:1007B000414805F04DFB00230A222946214803F059
:1007C0003BFC204803F028FC1B213A4805F040FB85
:1007D00021461C4803F070FC0B21374805F038FB1C
:1007E00000230A222946174803F026FC154803F087
:1007F00013FC1B212F4805F02BFB2146114803F069
:100800005BFC0B212C4805F023FB00230A22294620
:100810000C4803F011FC0B4803F0FEFB1B2125489C
:1008200005F016FB2146074803F046FC0B2147E084
:100830006897FF1F90D003000893FF1F8091FF1F50
:10084000747C0000B887FF1F00401C473487FF1FDF
:100850003087FF1F52B886409492FF1F9C92FF1F63
:100860005891FF1FC892FF1F7C91FF1F48E16A400B
:10087000713D3A401F8583409A9981409C7C0000DD
:100880000C200540AC7C0000BC7C0000CC7C00004F
:100890006491FF1F6891FF1FD890FF1F6091FF1F99
:1008A000A492FF1FF092FF1FE892FF1F00A0AA442E
:1008B000E890FF1FDC7C0000F87C00001291FF1F15
:1008C0005A4805F0C5FA00230A222946584803F081
:1008D000B3FB574803F0A0FB1B21564805F0B8FABC
:1008E0002146534803F0E8FB0B21504805F0B0FACD
:1008F00000230A2229464E4803F09EFB4C4803F091
:100900008BFB1B214B4805F0A3FA2146484803F016
:10091000D3FB0B21454805F09BFA00230A22294608
:10092000434803F089FB424803F076FB1B21414812
:1009300005F08EFA21463E4803F0BEFB0B213B48F2
:1009400005F086FA00230A222946394803F074FB91
:10095000374803F061FB1B21364805F079FA214640
:10096000334803F0A9FB0B21304805F071FA294602
:1009700000230A222E4803F05FFB01342C4803F0C9
:100980004BFB0A2C7FF4EDAE4FF4FA612A4802F0DB
:10099000EBFC0321284802F0E9FC1521274805F06B
:1009A00057FA234803F038FB0E21254805F050FA8A
:1009B00040F621611E4803F07FFB1D4803F02CFB2D
:1009C0000021122004F0B6F92E211E4805F040FA4D
:1009D000174803F021FB05B0F0BD012B13D11A4BD2
:1009E0001A4C1C601A4F1B4E1B4D1C481C4A1D49BB
:1009F0001D4B1E4CE8E512211D4805F029FA0C4854
:100A000003F00AFBC9E5142B0ED10F49104F114C0E
:100A10001148124A174E184B0E60184D18493D6088
:100A2000236003601160D5E5094FD3E5F87C000031
:100A3000B887FF1FDC7C00008091FF1F047D000051
:100A40001C7D00002C7D00003087FF1F52B88640BF
:100A50009492FF1F9C92FF1F5891FF1FC892FF1F87
:100A60007C91FF1FD7A36840713D3A4033338340E8
:100A7000887C00009A9989409A993940CDCC6C4085
:100A80009A997940FFFFFFFF2DE9F04F4B4893B053
:100A900003F0C2FA494803F0BFFA1221484805F0B2
:100AA000D7F90521454803F007FB0B21454805F020
:100AB000CFF9454B414819780A22002303F0BCFACC
:100AC0003E4803F0A9FA72B6404B4AF202614BF27B
:100AD000804219801A8062B6012004F067F9DFF8BD
:100AE0002CB136483A4D3B4C03F096FA07213A4870
:100AF00005F0AEF9DBF80010304803F0DDFA2F48BE
:100B000003F08AFA0721354805F0A2F929682B4835
:100B100003F0D2FA294803F07FFA0621304805F0A5
:100B200097F92168254803F0C7FA244803F074FABE
:100B300015212C4805F08CF92B4B20481B680F938E
:100B40000A2200230F9903F077FA1C4803F064FA95
:100B50001E21264805F07CF9254B186805F0DAFCC3
:100B6000002602460B460096144803F0ADFA0C210D
:100B7000204805F06DF904F0F7F81F491F4B0F6886
:100B80001F4A1B681060C01B984241D31D48DBF808
:100B900000203B440B600368B34202F10102C4BF72
:100BA00003F1FF3303603C2ACBF8002001F01282EE
:100BB000154B08934FF001082DE000BFB887FF1FC9
:100BC0005C7D0000707D00007491FF1F0C200540CB
:100BD000E090FF1FE092FF1F7C7D0000847D0000FD
:100BE0008C7D0000947D00009497FF1FAC7D000079
:100BF000A492FF1FCC7D00007891FF1F2887FF1F64
:100C0000C492FF1F2087FF1F9892FF1FE492FF1FCF
:100C10009C4B0893B046022004F092F89A4A13784D
:100C20001844C3B213701BB12168002900F02B8651
:100C3000964B05931A46964F002313709548DFF89C
:100C4000A4A203F0E9F91C21934805F001F9059BE2
:100C50009048197803F030FA8E4803F0DDF9372117
:100C60008E4805F0F5F88B4803F0D6F915218C482D
:100C700005F0EEF80B218B4805F0EAF800230A2274
:100C80003978844803F0D8F9824803F0C5F9152172
:100C9000854805F0DDF80B21824805F0D9F80023DE
:100CA0000A2279787B4803F0C7F97A4803F0B4F94F
:100CB00015217E4805F0CCF80B217A4805F0C8F8DC
:100CC00000230A22B978734803F0B6F9714803F09B
:100CD000A3F91521764805F0BBF80B21714805F002
:100CE000B7F800230A22F9786A4803F0A5F96948A1
:100CF00003F092F915216F4805F0AAF80B21694815
:100D000005F0A6F800230A223979624803F094F925
:100D1000604803F081F91521674805F099F80B2127
:100D2000604805F095F800230A227979594803F0C4
:100D300083F9584803F070F91521604805F088F8E8
:100D40000B21584805F084F800230A22B97951484C
:100D500003F072F94F4803F05FF91521584805F088
:100D600077F80B214F4805F073F800230A22F97930
:100D7000484803F061F9474803F04EF915215148FE
:100D800005F066F80B21474805F062F800230A22B7
:100D9000397A404803F050F93E4803F03DF91521F7
:100DA000494805F055F80B213E4805F051F800235D
:100DB0000A22797A374803F03FF9364803F02CF9D4
:100DC000344803F029F93421404805F041F831480E
:100DD00003F022F99AF80030002B01F056813C4BC9
:100DE0003C4D069399462B4600244546984608E01C
:100DF000772B335528D801349AF80030E4B2A34257
:100E00002CD907213448334E05F022F800230A225A
:100E1000395D204803F010F90321304805F018F837
:100E200000230A2218F804101A4803F005F919489B
:100E300003F0F2F8002DDED0325D2949531CFF2A61
:100E4000DBB24FF00102D3D13B5D0B8001349AF845
:100E5000003089F80020E4B2A342D2D80D4803F054
:100E6000DBF8069B1B78002B40F0DB86094803F07B
:100E7000D3F89AF80030002B00F0C1860022154DFF
:100E8000144637E09892FF1FBC92FF1FCC92FF1FC1
:100E9000E890FF1FB887FF1FF07D0000107E000064
:100EA000487E0000607E00006C7E0000847E0000B2
:100EB0009C7E0000B47E0000CC7E0000E47E00003A
:100EC000FC7E0000147F00002C7F0000447F0000A7
:100ED0005D91FF1FD092FF1F7C7F000064810000A6
:100EE000F492FF1FA092FF1F01349AF80030E4B281
:100EF000A34215D92B5D782BF6D91521304804F083
:100F0000A7FF10212F4804F0A3FF2F4803F084F817
:100F100001349AF80030E4B2A3424FF00102E9D85C
:100F2000002A00F06C86284803F076F8059B1B78B1
:100F3000002B51D0DBF80040002C40F09A84234E67
:100F400016F8011B204603F065FC204603F048FC20
:100F5000162105461E4804F07BFF00230A2229467D
:100F6000194803F069F819211A4804F071FF214665
:100F7000154803F0A1F8144803F04EF81621144860
:100F800004F066FF00230A2229460F4803F054F8B4
:100F90001921104804F05CFF21460B4803F08CF83F
:100FA0000134094803F038F80A2CC9D13B78002BEA
:100FB00000F05A84059A00231370002110E000BF4E
:100FC000C87F0000E07F0000B887FF1FE890FF1F88
:100FD000F47F00000C8000003B78002BEDD1012154
:100FE000072003F0A7FE00210F2003F0A3FE11202D
:100FF00003F012FB6FF008064FF000094FF00008F5
:10100000112003F009FB05F073FA8C2E04460D46FF
:1010100006F1010648460AD805F07CFA22462B461E
:1010200005F01AF905F09AFD08F101088146BE2E77
:10103000E6D1404605F09CFE0146484605F0A0FF7B
:1010400011210446C04803F037F80221BF4804F0DC
:10105000FFFE1921BE4804F0FBFE204606F0A2F870
:101060000146B94803F028F8B74802F0D5FF2046FA
:10107000B84906F06FF8002840F0B885232003F047
:10108000CBFA4FF000096FF008064FF0000823205C
:1010900003F0C2FA05F02CFA8C2E04460D4606F138
:1010A000010648460AD805F035FA22462B4605F0D7
:1010B000D3F805F053FD08F101088146BE2EE6D1B4
:1010C000404605F055FE0146484605F059FF2321EC
:1010D00004469D4802F0F0FF20469F4906F03AF88A
:1010E000002840F07D8506219C4804F0B1FE2321B4
:1010F000954802F0E1FF1121994804F0A9FE20462D
:1011000005F008FA022502460B4600958E4802F0CB
:10111000DBFF8D4802F080FF9249204606F02EF852
:10112000002800F06584904B904918680C931E4687
:1011300005F072FE8B490546204605F063FD8C499B
:1011400005F01EFF0146284605F05EFD894905F0C1
:1011500017FF11213060884804F07AFE012187488A
:1011600004F076FE0C9B186805F0D4F903240246BF
:101170000B460094744802F0A7FF2521804804F034
:1011800067FE714802F048FF6F4802F045FF4FF0DC
:101190000008C826132003F03FFA05F0A9F9044619
:1011A00040460D4605F0B6F902460B462046294654
:1011B00005F052F805F0D2FC013E8046EAD17149B3
:1011C00005F0DEFE132104465F4802F075FF14218E
:1011D0006D4804F03DFE204605F09CF902250246CC
:1011E0000B460095584802F06FFF20465A4905F01B
:1011F000B1FF002840F02584534802F00DFF012183
:10120000102003F097FD0A2003F0D0FD0E2003F01C
:1012100003FA00266FF0080400250E2003F0FCF905
:1012200005F066F98C2C8046894604F101043046AD
:1012300009D805F06FF942464B4605F00DF805F068
:101240008DFC01350646BE2CE7D10021102003F0AD
:1012500071FD284605F08CFD4C4C0146D4F8008009
:10126000304605F08DFE4A4905F0D6FD414605F0B1
:10127000CBFC0146404605F0C7FC464905F080FE20
:101280000E212060304802F017FF0821424804F088
:10129000DFFD206805F03EF9022502460B46009569
:1012A000294802F011FF03213C4804F0D1FD2648F3
:1012B00002F0B2FE3A4A3B4B10781D6805F058FD2B
:1012C00039490646284605F09FFC314605F0A4FD45
:1012D000364B81461968304605F09EFD05F062FFE9
:1012E00033498046484605F097FD05F05BFF314BDA
:1012F00007901968304B284600251D7005F048FFFF
:1013000030B12168484605F043FF002840F0C18411
:101310002A4B2B480A934A2104F09AFD0A4802F00E
:101320007BFE089D274818231C212B8004F090FD8C
:101330002988054802F0C0FE0421234804F088FDF6
:10134000014802F069FE41E0B887FF1F28800000D5
:101350002C8000000000C84200004842908000003D
:1013600098800000526C4145EC92FF1F0000104134
:10137000CDCC244100002041AC800000C0800000A2
:10138000C880000000004843F0800000C092FF1FAA
:101390004A29683D000040403C810000488100002F
:1013A0002C87FF1F3087FF1F0AD7A33C5891FF1FD0
:1013B0009A99993FD890FF1F5C91FF1FC892FF1F19
:1013C000308200007C82000068810000BC4D0798DC
:1013D00000232B7005F0CCFC26680890314605F000
:1013E000B9FE002840F08082404605F0C1FC01466D
:1013F000304605F0AFFE002840F07682B1490898EB
:1014000005F000FC0146304605F0A4FE40B1AE4EAA
:10141000AE4B3068196805F0BBFE002840F0FA8535
:101420004721AB4804F014FDAA4802F0F5FDAA4B91
:1014300019221A70A94BAA49186805F08BFE0028DA
:1014400040F0C2830E21A74804F002FD484605F093
:1014500061F8022602460B4600969E4802F034FED2
:101460000321A14804F0F4FC9A4802F0D5FD0C21B8
:101470009E4804F0EDFC002301224146954802F00D
:10148000DBFD0321984804F0E3FC924802F0C4FD20
:101490001521974804F0DCFC0023012207998D48B0
:1014A00002F0CAFD0321904804F0D2FC894802F002
:1014B000B3FD15218F4804F0CBFC002301224146E7
:1014C000844802F0B9FD0321874804F0C1FC81483B
:1014D00002F0A2FD7F4802F09FFD069B1B7823B11E
:1014E0007D4B1B78192B00F0C585834B197800299B
:1014F00000F070820121052003F01CFC1A217F48B6
:1015000004F0A6FC734802F087FD7D4A0A2313709D
:101510002978002900F0F0810121062003F00AFC5F
:101520001921784804F094FC6A4802F075FD744A69
:101530000F2313700A9B1E68734B3146186805F021
:1015400009FE002800F0CD81704B187805F010FCE2
:10155000314605F061FC216805F01AFE002800F014
:10156000C081DFF8EC816A48DFF8E891152104F0CA
:101570006FFC404604F0CEFF022602460B46009662
:10158000544802F0A1FD534802F046FD1521614880
:1015900004F05EFC0C9B186804F0BCFF0096024649
:1015A0000B464C4802F090FD4A4802F035FD544B82
:1015B0001B780A2B00F04B83574E4FF0CC09A6F84E
:1015C00000904946152003F025FA1A21534804F0EB
:1015D0003FFC31883F4802F06FFD0E21504804F077
:1015E00037FC3C4802F018FD2B78002B00F08F816F
:1015F0004C4D4D48112104F02BFC286804F08AFF63
:10160000022602460B460096324802F05DFD1C2180
:10161000464804F01DFC2F4802F0FEFC24684449B3
:10162000286805F0F9FB214605F0EEFA414905F07E
:10163000A7FC41492860804605F0A0FD0646002829
:1016400000F06E813C49404605F0DCFA3B4905F06C
:10165000E3FB39490546204605F07CFD0446002899
:1016600041F084803649284605F092FD002801F0BB
:10167000778040F2FF31142003F0CCF91421314877
:1016800004F0E6FB0CA3D3E900230094114802F018
:101690001BFD06212C4804F0DBFB63210D4802F002
:1016A0000BFD0121294804F0D3FB0A4802F0B4FCE9
:1016B00052E000BFAFF300800000000000F88F4050
:1016C000DA92FF1FCDCCCC3E6091FF1F5891FF1FD7
:1016D000D8820000B887FF1FF292FF1FA492FF1F5D
:1016E0000000C34358830000488100006883000065
:1016F00078830000908300005C91FF1FE48300006A
:101700007491FF1F1C840000D890FF1F2C87FF1FBF
:101710005084000068840000DC90FF1F808400007B
:101720009C840000E490FF1FAC840000C084000093
:1017300000C0794400007A4400006C420000484236
:1017400000C07F44E0840000F884000000850000B1
:101750000000F041EC92FF1F6324BD4BBD491868A7
:1017600005F0F8FC0546002800F07184DBF8003035
:101770000A2B00F31581122003F0E2FA002800F092
:101780001981B34BB349186805F0E4FC002800F058
:1017900050813021B04804F05BFBB04802F03CFCC3
:1017A000AE4802F039FC0820012103F0C3FAAC482E
:1017B00001F03CFA002840F09581AA4DDFF81C9317
:1017C0002B8801339BB2642B88BF28804FF00F0118
:1017D000A54898BF2B8004F03BFB29889F4802F066
:1017E0006BFC0121072003F0A5FA00260021082048
:1017F00003F0A0FA0021072003F09CFAD9F800506A
:101800004FF08241284605F0C3FC70B900212846FC
:1018100005F0A0FC48B9954B1F684FF0824138464F
:1018200005F0B6FC002800F0CF82132C40F3CA80EC
:101830008F4D9921287803F0EDF8272C11DDE12157
:10184000287803F0E7F83B2C0BDD4FF4C8712878BB
:1018500003F0E0F84F2C04DD287840F2C32103F0B8
:10186000D9F813B0BDE8F08F059B1B78002B3FF42F
:10187000B6AB0121072003F05DFA01210F2003F030
:1018800059FAFFF7B4BB286803283FF7D1A9052B05
:1018900040F2FF830A2300281370764B40F306843E
:1018A0000593754A754F1378002B3FF4C7A90023A1
:1018B000112173487B723B72FB71BB717B713B7171
:1018C000FB70BB707B703B70137004F0C1FA112188
:1018D0006B4804F0BDFA1121694804F0B9FAFFF72A
:1018E000ADB9DFF8FC813EE63821664804F0B0FA75
:1018F0005A4802F091FB9DE5062003F01BFA1621E1
:10190000614804F0A5FA554802F086FB12E65F4BE9
:101910005F4D1B78002B7FF46CAE23682B6068E66C
:101920005C49204605F016FC00253146002800F0F1
:101930001787142003F06EF81421574804F088FA32
:10194000284604F0E7FD002402460B460094434875
:1019500002F0BAFB4FF06A51284605F05DFA4F4994
:1019600005F05AFA05F01EFC062104464C4804F026
:101970006FFA2146394802F09FFB0121494804F0E3
:1019800067FA364802F048FB2846474905F0E2FB73
:1019900000283FF4E2AEDBF800300A2B7FF7EBAE15
:1019A0001220012103F0C6F9122003F0C9F9002822
:1019B0007FF4E7AE4A213D4804F04AFA274802F096
:1019C0002BFBEDE62A4B6421187803F023F813B0C3
:1019D000BDE8F08F0523364A1846137003F0AAF9C4
:1019E0001821344804F034FA1C4802F015FB8FE546
:1019F000314B32480C9321461D4605F003F930491E
:101A000005F0BEFA2F490446286805F005FA01469C
:101A1000204605F0F9F82C4905F0B2FA11212860AA
:101A20002A4804F015FA0121294804F011FAFFF7B9
:101A300099BB6421274804F00BFA084802F0ECFA3D
:101A4000AEE63121244804F003FAFFF7D5BB00BF0E
:101A5000A492FF1F0000D04388850000B887FF1FB5
:101A60008091FF1F1091FF1FE48800006C91FF1F01
:101A70003C87FF1FCC92FF1F2487FF1FE890FF1FAA
:101A8000DC7D00009C820000388400005C91FF1F18
:101A9000E490FF1F00006C42E08400000000C84298
:101AA000F884000000850000000048433C850000E9
:101AB0007491FF1F00840000EC92FF1F526C41459F
:101AC000CDCC24410000104100002041AC8000003A
:101AD000C4800000BC85000008810000DC92FF1F6C
:101AE000CDCC4C3E994D9A4800230293019300932C
:101AF0001C2629460DF13B030DF13A028DF83A60A0
:101B000001F050FC0646002800F05A82102191484E
:101B100004F09EF900230A229DF83B108E4802F043
:101B20008BFA0A218D4804F093F900230A229DF8CC
:101B30003A10894802F080FA874802F06DFA0023D3
:101B40000A222978844802F077FA0F21844804F0A9
:101B50007FF96988804802F0AFFA1221814804F0C9
:101B600077F9A9887C4802F0A7FA13217E4804F08F
:101B70006FF9A86804F0CEFC022602460B460096D8
:101B8000754802F0A1FA0F21784804F061F9E8687D
:101B900004F0C0FC00960B4602466F4802F094FA2F
:101BA0001421734804F054F96B4802F035FA9DF89B
:101BB0003A30102B00F0F48234216E4804F048F9DA
:101BC000654802F029FA30E66B4A6C48002336215A
:101BD0002B70137004F03CF95F4802F01DFA31E4F9
:101BE0002E21674804F034F9FFF77DBA15216548C6
:101BF00004F02EF9584802F00FFAFFF73FBA624A94
:101C0000624800231380069A1821137004F020F90B
:101C100014215F4804F01CF94F4802F0FDF9FFF76A
:101C200082B907215B4804F013F9574B4A481988D9
:101C300002F042FA0321584804F00AF90C215748EF
:101C400004F006F9444802F0E7F9FFF70FB9D9F8B4
:101C5000003006931946404605F07CFA504E069B2C
:101C6000B6F8009048B1B9F1000F00F0E28109F137
:101C7000FF391FFA89F9A6F800901946404605F089
:101C800087FA20B140F21123994540F2D7814946A5
:101C900098E4162003F054F8002840F0AE811B2190
:101CA000404804F0D5F8089D2B48298802F004FA32
:101CB00004213D4804F0CCF8274802F0ADF92B8808
:101CC00013B92D4A01231370384B394A1B681093FE
:101CD000109B106835491B1AB3F57A7F17D3354D21
:101CE000354B09681B6811912E68119911601846CF
:101CF00031460A9305F02EFA0A9B002840F03882FC
:101D00001946304605F026FA002840F01D822B4E79
:101D10002B4B366819680A93304605F039FA0546A8
:101D2000002840F0EE8230464FF0814105F012FA73
:101D300000283FF44BAB089B22481D80462104F04D
:101D400087F8054802F068F9FFF740BBF490FF1FE1
:101D50008091FF1F24860000B887FF1F388600008F
:101D60004486000054860000688600007C860000DF
:101D70008C860000A48600005C91FF1F2083000079
:101D80006080000048800000F492FF1F947F0000F4
:101D9000B07F00007C7F000064810000847F000031
:101DA000DC90FF1F4C810000688100009497FF1FAA
:101DB000F892FF1F7C91FF1FD890FF1F6091FF1FBB
:101DC000C892FF1FB48100000021384605F0C2F917
:101DD00000287FF42AADB84B07931B880A3B9BB2BF
:101DE00040F6327293423FF620ADB44B0C931B8801
:101DF0000A3B9BB293423FF618AD002E3FF415AD5F
:101E00003946284605F0BAF9AD4ED6F800800028CC
:101E100000F0E9832846414605F0BAF940B1414651
:101E2000284604F0F1FE4FF07C5104F0F5FF3060DD
:101E3000DFF80C83D8F800503846294605F08AF9B7
:101E400048B12946384604F0DFFE4FF07C5104F0DB
:101E5000E3FFC8F8000010219A489B4D03F0F8FFFB
:101E6000306804F057FB032702460B46009797485B
:101E700002F02AF90421964803F0EAFF0F21954861
:101E800003F0E6FFD8F8000004F044FB0097024698
:101E90000B468E4802F018F904218D4803F0D8FF54
:101EA0008A4802F0B9F8079B2A881B889A4200D812
:101EB00022B902EB420213449B102B80864F0C9BED
:101EC0003A881B889A4204D202EB420213449B10C8
:101ED0003B8010218148DFF8009203F0B9FF002316
:101EE00001222988794802F0A7F80B217C4803F0E9
:101EF000AFFF10217B4803F0ABFF0023012239889C
:101F0000724802F099F80B21754803F0A1FF6F4861
:101F100002F082F8744A1368002B00F0F182734ECD
:101F2000734D74481F2103F093FF734B186804F03E
:101F3000F1FA032702460B460097644802F0C4F802
:101F400005216E4803F084FF1E216D4803F080FFD9
:101F5000306804F0DFFA009702460B465B4802F057
:101F6000B3F804215A4803F073FF584802F054F8BC
:101F70001F21644803F06CFF634B186804F0CAFA31
:101F8000002602460B460096504802F09DF80C21B0
:101F90005E4803F05DFF1F215D4803F059FF28688C
:101FA00004F0B8FA009602460B46484802F08CF856
:101FB0000B214B4803F04CFF444802F02DF834E469
:101FC0004248DFF8809102F027F8524A1388013323
:101FD00013800BE42B685049013300223C2B2B600B
:101FE000CBF8002000F07F814C4A23680892182B20
:101FF00004BF00232360FEF7DDBD494B49480A9327
:10200000312103F025FF314802F006F8089B1D80BE
:10201000FFF7DCB9162002F093FE002840F0808123
:102020006A21414803F014FF284801F0F5FFFFF74B
:1020300001BA1946404605F0ABF8A0B309F1010911
:102040001FFA89F9A6F800904946FFF7BBBA172096
:1020500002F076FE00283FF48EAB2946122002F0F3
:1020600069FE3421314803F0F3FE184801F0D4FF33
:10207000FFF781BB00233B212D482B7003F0E8FEC6
:10208000124801F0C9FFFFF730BA2A4B0693FEF75A
:10209000E5BEDBF80030284F372B284BC8BF117046
:1020A0000593FEF7CBBD0146FFF78CBA1A460593A0
:1020B00001231370FFF7F5BB7091FF1F7291FF1F93
:1020C0006491FF1FF48800001291FF1FB887FF1F63
:1020D0000889000010890000F092FF1F208900008D
:1020E00034890000408900002087FF1F6091FF1F96
:1020F000E892FF1F54890000D890FF1F74890000E8
:102100007C8900009C890000A492FF1FCC7D000008
:10211000BC8900001091FF1FE090FF1F9892FF1FE5
:10212000C892FF1FFC810000208A00000485000087
:10213000A88300005D91FF1FE890FF1FCC92FF1F56
:102140006891FF1FDC92FF1F7E4B7F4A1A600522B9
:102150009A713E220321DA72012299721A715A731E
:102160001946002279481A739A7301F0BFFCCEE534
:10217000744B754A1A6001221A7105210322997164
:102180009A723E216E22D9725A73194600226F4804
:102190001A739A7301F0AAFC6D4B2E681B68AFE5A9
:1021A0006C4B6D4A287807930C9204F0DDFDAB6808
:1021B0006A4AB5F80280AE88DFF8D49113601946F8
:1021C000654A644B1680A3F80080C9F8000004F04B
:1021D0001BFD0690404604F0CBFD069B01461846C9
:1021E00004F012FD8046304604F0C2FD0146404630
:1021F00004F00AFDEB68069380461A21584803F064
:1022000027FE404604F086F9062602460B46009655
:102210005448CDE9082301F057FF524801F0FCFE75
:102220001821514803F014FE069804F073F9009643
:1022300002460B464B48CDE90A2301F045FF4948C9
:1022400001F0EAFE0698494904F0DCFC47490D908C
:10225000C9F80000069804F0D7FC404B86463021B0
:102260004348C3F800E0CDF818E003F0F1FDD9F8D9
:10227000000004F04FF9009602460B46394801F081
:1022800023FF0C213B4803F0E3FD344B186804F0B6
:1022900041F9009602460B46324801F015FF3148DD
:1022A00001F0BAFE0699404604F054FF28B10D999A
:1022B000404604F06DFF00286CD124212E4803F025
:1022C000C7FD1E212D4803F0C3FD24212A4803F039
:1022D000BFFD1E21294803F0BBFD2421264803F041
:1022E000B7FDFFF7A2BA264B0893184623680A6089
:1022F000028801332360002A3FF479AE013A02805C
:1023000075E608991F4818220A801F4A00234321B6
:10231000137003F09DFD134801F07EFEFFF756B8E1
:10232000172002F00DFD00287FF47AAE012343212F
:1023300016482B7003F08CFD0A4801F06DFEFFF784
:1023400079B800BFA892FF1FF4E506180893FF1F95
:10235000D890FF1F7091FF1F7291FF1F6C91FF1F9C
:10236000DC860000B887FF1FF88600006F12033A72
:10237000148700004887000084870000AC870000B5
:102380009892FF1F708100005C91FF1FDC890000A4
:10239000DC92FF1F2A21A848DFF8F48203F058FDE1
:1023A0001A21A64803F054FDDDE908230096A4484D
:1023B00001F08AFE1821A34803F04AFDDDE90A2353
:1023C00000969F4801F080FE9D4801F025FE059B88
:1023D0009AF800601B78002B40F08881002E00F0F6
:1023E0007F81DFF8B0A2059306F1FF389DF83B30FE
:1023F00017F808209A421FFA88F670D0002EF3D101
:10240000059B002B00F06C818F498D48FEF73CF84E
:1024100000230A2229788A4801F00EFE8B49884859
:10242000FEF724F86988864801F046FE884984480A
:10243000FEF71CF8A988824801F03EFE85498048D5
:10244000FEF714F8A86804F065F8022602460B4669
:1024500000967B4801F038FE7F497948FEF706F880
:10246000E86804F057F8009602460B46744801F0FD
:102470002BFE7A497248FEF707F8287804F074FCBE
:10248000AE68C9F800006A88AB88754D75492E6042
:10249000079D6B482A800C9A1380FDF7F5FFD9F849
:1024A000000004F037F8032502460B460095644807
:1024B00001F00AFE65496248FDF7D8FF684B1868CD
:1024C00004F028F8009502460B465D4801F0FCFD3B
:1024D00065495B48FDF7D8FF0126FFF787B91D2145
:1024E000624803F0B5FC4146554801F0E5FD54480B
:1024F00001F092FD00230AF80830012305937DE7DF
:102500005B493368D1F800A006934FF0010EC2F882
:1025100000E01846514604F077FB514604F074FB86
:102520005449554E554D04F02BFDD8F80030D6F8DF
:1025300000801A464E4B059218604146104604F042
:1025400063FB414604F060FB4A4904F019FD4C4B23
:102550003060B3F800A04B4BD3F80080504604F035
:1025600007FC414604F050FB414604F04DFB414955
:1025700004F006FD434BB9F80090D5F800801860D0
:10258000484604F0F5FB414604F03EFB414604F0AA
:102590003BFB3849DFF8008104F0F2FCDBF8002057
:1025A00028600A2A7FF7BDAC069B3749184604F01D
:1025B00029FB364B34491860059804F025FB40F29E
:1025C00054539A45C8F8000004D82D4B0AF1010A6B
:1025D000A3F800A040F25553994584BF09F1FF3993
:1025E000A7F800909DE43846414604F0D1FD40B183
:1025F0004146384604F008FB4FF07C5104F00CFCD7
:102600003060DFF89480D8F800702846394604F02E
:10261000A1FD00283FF41FAC3946284604F0F4FA27
:102620004FF07C5104F0F8FBC8F8000013E49AF86E
:102630000030BBBBE4E600BF58870000DC8600002A
:10264000B887FF1FF88600005C8800004486000001
:1026500054860000688600007C86000070880000B8
:102660006C91FF1F7C8800009C8800003C88000063
:10267000D890FF1F000040406091FF1FE892FF1FAD
:102680001291FF1FA492FF1F6F12833A6491FF1FE4
:10269000A092FF1FD092FF1F6891FF1FB3B2002BC3
:1026A0003FF4AEAE059A5E1E002AF7D1BA5D424BEA
:1026B000002AF3D19DF83B20404941489A55FDF747
:1026C000D5FE059B9DF83B103D480A2201F0B4FC65
:1026D0003C493B48FDF7CAFE31463948FDF7E6FE66
:1026E00039493748FDF7D0FEFFF79FB80121072091
:1026F00002F020FB01210F2002F01CFB002E55D020
:102700000023059303E01FFA88F6002E8FD006F110
:10271000FF389DF83B3017F808209A42F3D12B4937
:102720002748FDF7A3FE41462548FDF7BFFE28498F
:102730002348FDF79BFE00230A229DF83B1020480A
:1027400001F07AFC23491E48FDF790FE41461C48E3
:10275000FDF7ACFE204B00229A5501230593D2E7EA
:10276000284604F01FFD0146FFF7E3B800211420BE
:1027700002F050F900241421184803F069FB0022EC
:10278000002300940E4801F09FFC0621144803F03A
:102790005FFB21460A4801F08FFC0121114803F03C
:1027A00057FB074801F038FCFEF7E0BF98F800300F
:1027B000002B95D0059675E7E890FF1F0C88000068
:1027C000B887FF1F24880000AC880000CC87000079
:1027D000F887000000880000D092FF1FE08400000E
:1027E000F88400000085000070B5114C114D82B0D6
:1027F00001F0AEFF104B20460A22092100F0EAF852
:10280000214605220D480E4C00F0A0FD0D4A0E4B4E
:1028100011680E4A01911B7812680D480D49019EFE
:102820002E605B08237002600A6002B070BD00BFBA
:102830001491FF1FF892FF1FFC92FF1F8091FF1F52
:10284000A092FF1F9497FF1F2C87FF1F3887FF1F41
:10285000C092FF1FE490FF1F1C207047F8B503686B
:102860005B6804460F4616469847054690B16FB11F
:1028700066B1E37F3278D91E914202DC1A1FD2B2D0
:102880003270384604F1240103F0E6FB002384F89B
:102890004030E3772846F8BD10B500210446807F1C
:1028A00002F048FA30222721204600F085FC627FA2
:1028B000202142F00202204600F07EFCA07F012190
:1028C00002F038FA0323237110BD00BF1C2A01D97E
:1028D00000207047F8B50446C77A067BA37B407B8F
:1028E00084F82200154684F8233084F8207084F898
:1028F000216004F1240003F0AFFB2B1DDBB204F1D7
:102900002002B021204600F0DBFC2379032B02D00B
:102910002046FFF7C1FFA38A01339BB2A3820120A7
:10292000F8BD00BF10B5427F0446202142F00302EB
:1029300000F042FCA07F012102F0FCF90423237186
:1029400010BD00BF10B504462021427F00F034FCCA
:10295000A07F002102F0EEF90223237110BD00BF19
:1029600038B50379032B01D0002038BD054601E0BE
:1029700001F098FCFF21284600F0B4FB10F0300F66
:102980000446F5D0C3060DD42B79022B02D028467D
:10299000FFF7D8FF28463022272100F00DFCC4F3B2
:1029A000401038BDE121284600F09CFBECE700BF59
:1029B0000279012A0CD010B504460022202100F033
:1029C000FBFBA07F002102F0B5F90120207110BDB2
:1029D0000020704738B514460D461A462146044675
:1029E00000F072FB0C230449A57700226377216075
:1029F00084F84020204638BD948A0000C37F032B12
:102A000016D9837990F8221090F8232030B490F8EA
:102A1000205090F82140C57104724172827243B116
:102A2000438A01339BB20122438280F8402030BCAC
:102A30007047C37942799A42F2D0C379FF2BF6D11D
:102A4000EEE700BFF8B590F840507DB90279032A4F
:102A50000CD00379042B044601D0FFF763FF172144
:102A6000204600F071FB10F0010601D02846F8BDA9
:102A70006021204600F068FB202807460DD9E2219E
:102A8000204600F02FFB237984F84060022BE67784
:102A9000ECD02046FFF756FFE8E7402227212046EA
:102AA00000F08AFB3B4604F120026121204600F041
:102AB000BFFBE7772046FFF7A1FF94F84050002DB9
:102AC000D4D02379022BD1D02046FFF73BFF94F8D6
:102AD0004050CBE738B50446806903680021DB69C4
:102AE0009847204600F0DCFA10B90025284638BD8A
:102AF00001210546A07F02F031F90021A07F02F0FC
:102B000019F970222721204600F056FB3F223C2174
:102B1000204600F051FB05223D21204600F04CFBF1
:102B20001D21204600F010FB05280FD073225021F4
:102B3000204600F041FB05223D21204600F03CFBF1
:102B40001D21204600F000FB0528CED12379022B61
:102B500002D02046FFF7F6FEE121204600F0C2FA3F
:102B6000E221204600F0BEFA02222521204600F094
:102B700023FB20460F22262100F01EFB284638BDED
:102B800001600271704700BF70B5044600680368B9
:102B90001B689847054658B1206826790368314676
:102BA0005B6A9847206803683146DB6A984726715C
:102BB000284670BD70B50446006806680D46194683
:102BC000B36A164698472068036832462946DB6890
:102BD000BDE87040184700BF2DE9F0410446006889
:102BE000069F089D1E4603689B6898478046C8B1AB
:102BF00026B1206803681B6C9847307027B12068A5
:102C00000368DB6B98473870079B2BB1206803681B
:102C10005B6C9847079B187025B1206803689B6C14
:102C2000984728704046BDE8F08100BF00680368FF
:102C30005B681847006803689B6918470068036869
:102C40001B6B1847006803685B6B184701207047CF
:102C50008171704741717047C1727047017370474D
:102C600041737047837B23EA0202114381737047EB
:102C7000C0797047007A7047407A7047807A704711
:102C80000020704710B5044601E001F00BFB2368FB
:102C900020465B6898470028F7D010BDF0B5104D6E
:102CA00083B02B680093009F2B680193019BDB1B73
:102CB0008B4212D20E46044607E001F0F3FA2B686D
:102CC0000193019BDB1BB34207D2236820465B685C
:102CD00098470028F1D003B0F0BD002003B0F0BD4C
:102CE0009497FF1F0379032B08D110B5044601F018
:102CF000D9FA2379032BFAD0012010BD01207047A7
:102D0000F0B50F4E83B033680093009F3368019392
:102D1000019BDB1B8B4210D205460C4607E001F0FD
:102D2000C1FA33680193019BDB1BA34205D22B79C7
:102D3000032BF4D0012003B0F0BD002003B0F0BDA0
:102D40009497FF1F064A0260FF210022027142731E
:102D500002828273428241718282C1720173704722
:102D6000EC8A0000054B1A684FF00043D3625163B0
:102D7000D36A002BFCDA906BC0B270474087FF1F0C
:102D8000704700BF30B4184B8268D97AB9B172B6B7
:102D9000D97ACD07084606D5144CD868256828404E
:102DA0009861206008468C0706D5114C1969256882
:102DB000D87A2940D961216041070ED462B61B68D8
:102DC000D968914207D00B4818600B49DA6042F08D
:102DD00080401861196030BC704708485969046820
:102DE000214019620160E9E74087FF1F80E100E0B0
:102DF00084E100E001401F0000001F8088E100E046
:102E0000014800F0FFBB00BF4087FF1F0A4AD37A8A
:102E1000194683B1D80703D5084990690860194657
:102E2000980703D5064BD069D17A18604B0702D5B5
:102E3000044B126A1A6070474087FF1F00E100E0F0
:102E400004E100E008E100E083792DE9F041044667
:102E50005BB1012B00F09280022B00F0A280032BCB
:102E600000F08F800026374601E01E461F46704A5C
:102E70007049136843F480531360CB689A016D4A1C
:102E8000D16854BF23F0806323F0C063994203D01C
:102E900011684D045DD5D3602379042B63D0032BD7
:102EA00066D0022B67D0644A6449012B14BF964652
:102EB0008E4694F805C06249DFF8AC81BCF1010F81
:102EC0000CBF4FF064504FF06050002502E0172A0D
:102ED00008D0154631F8023F98FBF3F39E4505F103
:102EE0000102F4D30FB140F08060564B53F8253007
:102EF0003EB11A0902F4706223F4704340F000708E
:102F0000134303431CF1FF31A36018BF01214E4856
:102F100000F09CFB2379013BDBB2032B6DD84B4ABD
:102F2000D35C042B4DD07BB3052B59D0012B64D03F
:102F3000062B6FD0022B37D04549434800F0ACFB3D
:102F4000414800F021FB42493F48BDE8F04100F014
:102F5000A3BB41F4804040F001001060D3602379AE
:102F60001160042B9BD194F805C0DFF800E1A2E7C3
:102F7000DFF8FCE09DE7DFF8FCE09AE70426002795
:102F800075E70426082772E732492F4800F084FBD2
:102F90002D4800F0F9FA2F492B48BDE8F04100F028
:102FA0007BBB0026082762E72B49274800F074FB0B
:102FB000254800F0E9FA28492348BDE8F04100F02F
:102FC0006BBB4FF06051204800F066FB1E4800F0DC
:102FD000DBFA4FF060511C48BDE8F04100F05CBBEB
:102FE0001E49194800F058FB174800F0CDFA1B495C
:102FF0001548BDE8F04100F04FBB1949124800F0F8
:103000004BFB114800F0C0FA15490F48BDE8F041EC
:1030100000F042BB13490C4800F03EFB0A4800F0A8
:10302000B3FA10490848BDE8F04100F035BB00BFD5
:103030003C80044000C0024040420F0080841E00DB
:10304000C68B0000F88B00004087FF1F6C8B0000D0
:10305000076001380110013806500138032001389B
:103060000320033805400138006CDC020024F40022
:1030700000127A0000093D0010B5064C00231A46E4
:103080001946204603F090F8034A044B2260A360DF
:1030900010BD00BFFC92FF1F448B000001100138DF
:1030A00010B5044680690368DB689847207F0121DA
:1030B00001F054FE207F012101F03CFE642001F06C
:1030C00075FE012010BD00BF70B504460D461646C2
:1030D000FFF738FE024B2577A6612360204670BDBE
:1030E000788B000070B504460E46EFF3108572B67B
:1030F000BFF35F8FBFF34F8FBFF36F8F806903689C
:103100001B6A9847207F002101F014FEA069036824
:1031100031461B68984701210646207F01F00AFED0
:10312000A06903685B6A984785F31088BFF35F8FD7
:10313000BFF34F8FBFF36F8FBFF35F8FBFF34F8F1F
:10314000BFF36F8F304670BD70B504460E46EFF387
:10315000108572B6BFF35F8FBFF34F8FBFF36F8FD2
:10316000806903681B6A9847207F002101F0E2FD17
:10317000A069036831461B689847A069036800216D
:103180001B68984701210646207F01F0D3FDA06906
:1031900003685B6A984785F31088BFF35F8FBFF3BE
:1031A0004F8FBFF36F8FBFF35F8FBFF34F8FBFF3AF
:1031B0006F8F304670BD00BFF8B504460E46174607
:1031C000EFF3108572B6BFF35F8FBFF34F8FBFF37E
:1031D0006F8F806903681B6A9847207F002101F088
:1031E000A9FDA069036831461B6898470646A06997
:1031F000036839461B689847A023013BFDD1012194
:10320000207F01F097FDA06903685B6A984785F30A
:103210001088BFF35F8FBFF34F8FBFF36F8FBFF384
:103220005F8FBFF34F8FBFF36F8F3046F8BD00BF86
:103230002DE9F84305460E4614469946EFF31087EC
:1032400072B6BFF35F8FBFF34F8FBFF36F8F80698D
:1032500003681B6A9847287F002101F06BFDA8696D
:10326000036831461B6898478046B9F1000F0DD0BE
:1032700009F1FF36F6B22644013CA8690368002133
:103280001B68984704F8010FB442F6D10121287F4A
:1032900001F050FDA86903685B6A984787F31088BE
:1032A000BFF35F8FBFF34F8FBFF36F8FBFF35F8F9E
:1032B000BFF34F8FBFF36F8F4046BDE8F88300BF69
:1032C0002DE9F84305460E4614469946EFF310875C
:1032D00072B6BFF35F8FBFF34F8FBFF36F8F8069FD
:1032E00003681B6A9847287F002101F023FDA86925
:1032F000036831461B6898478046B9F1000F0CD02F
:1033000009F1FF36F6B22644013CA86914F8011F02
:1033100003681B689847B442F7D10121287F01F068
:1033200009FDA86903685B6A984787F31088BFF3B3
:103330005F8FBFF34F8FBFF36F8FBFF35F8FBFF30D
:103340004F8FBFF36F8F4046BDE8F88310B504463A
:10335000FFF716FC00230322C82122742373E181A6
:10336000A360204610BD00BFC18170470174704743
:1033700030B5044683B01546FFF760FC20460022B6
:103380008021FFF75FFC02A9212301F8013D012202
:103390002B462046FFF70EFC2046FFF74BFC03B000
:1033A00030BD00BFF0B587B00D4617461E46044637
:1033B000FFF73CFC18B90025284607B0F0BD0DF119
:1033C000170E0DF116000DF115032946019000931B
:1033D0003A46CDF808E005AB2046FFF7FDFB054671
:1033E0000028E8D09DF91730002BE4DB9DF815305C
:1033F000FF2B06D09DF814209DF816102046FFF7ED
:10340000B7FF9DF814209DF816301444617C994252
:10341000D1D006B132700C9A1AB10C999DF81520D2
:103420000A700D9A02B113700E9A1AB10E999DF896
:1034300017200A702846637407B0F0BD10B4047FEB
:103440004160022CC26002D010BC00F0F1BC836865
:1034500010BC1847F0B4464B464A186BDC6A017939
:103460001170454922790A709A6A00790870002A19
:1034700046D05968C9688A423ED82168CC8B24045A
:1034800002F1FF3065D4C0F30E00C883C88B80B250
:10349000C882196B0968C88B000452D4C2F30E00AD
:1034A000C883C88B002480B212F1FF32C88218BFD3
:1034B00001229C62D96A2E4809680D6800F1240433
:1034C000A54236D00068C46814F0804F0C680D68BF
:1034D00015BF248824780235013544F000440D607E
:1034E0004463196B254B09791970214912B1CA6AD5
:1034F00012791A70F0BC7047521A9A620122D9E709
:10350000586B196805681E4C0A63CC62CC682D683C
:103510001C4E24F080440327B542CC6083F825700C
:103520001FD1037F4260022BC2601ED0F0BC00F0AE
:103530007FBC016890F82400CC6840F000404863EC
:10354000CFE7CC8BC2F3080004F47E442043C88349
:10355000A7E7CC8BC0F3080004F47E442043C88363
:1035600094E72B461146F0BC18478368F0BC184717
:103570004087FF1F1F8000401C8000401B800040D0
:1035800000000FFF3D34000090E80C00F0B41C6810
:1035900059682568164F174E29432160164D174963
:1035A0001760D66015611160417A154A5C180A31BE
:1035B00094F8244053F8215002EBC40149680D608F
:1035C000017A5C1803EB8101247ECD6902EBC40112
:1035D00049680D60817A581803EB810390F8300038
:1035E000596B02EBC002F0BC53681960704700BF12
:1035F00001401F00011000380110007800001F80FA
:103600007C8D000070B4417A44680E4B05680E4E04
:103610002144002291F8241003EBC10149680A609B
:10362000017A2144097E03EBC10149680A60817A6D
:10363000214491F8301003EBC1035B681A602E60DF
:1036400070BC70477C8D000001401F004268036819
:1036500005CA10B4046822430260DA6881B942F0F6
:103660008072D9688A4209D0196848040BD4094885
:10367000186042F08040DA601861196010BC704731
:1036800022F08072EDE742F08041DA6010BC1961EF
:10369000704700BF01401F004268036805CA10B4AC
:1036A000046822430260D868840100F0E06205D516
:1036B000080900F4706021F470410143D868114397
:1036C000814209D01A68500408D40748186041F0B4
:1036D0008040D96018611A6010BC704741F0804288
:1036E000D96010BC1A61704701401F00704700BFCD
:1036F0000F2910B405DC002925DC012380F85C3497
:1037000002E00F2380F85C3400224FF080640368ED
:103710001101803301325C5090F85C14C1F1100348
:103720009342F4DC102B0BD01B014FF000610268B8
:103730008032D1501033B3F5807FF8D190F85C140B
:1037400010BC0846704780F85C14DDE790F85C34E4
:10375000C3F110039A421EDA30B404460D4603C981
:1037600004EBC203043383E803006B78A3B9236836
:103770006D68134803F18401102313FB0211AD049B
:10378000284008602168803113FB0212136823F47B
:103790000013136030BC70472368686803F184012C
:1037A000102313FB021120F0604008602168803173
:1037B00013FB0212136843F400131360EAE700BF1F
:1037C0000000FC1F90F85C34C3F110039A4220DA29
:1037D00010B404682368DB010CD4236843F08043F1
:1037E00023600468236843F08053236004682368DF
:1037F000DB01FCD54FF4086303EB82021151026830
:10380000136823F08053136002681368DB01FCD453
:1038100010BC7047F0B5744A0446006883B090420B
:103820009DF8205000F0CE80704A6F48137843F026
:10383000800313702368834200F0BA805A6822F430
:1038400000525A602268136843F080431360226874
:10385000136823F00043136022681368DE02FCD46F
:10386000136883F00073136023681A689501FCD411
:103870001A68D001FCD518685D4DB5FBF1F540F430
:103880000030052D5B4A186092FBF5FE8E4440F235
:10389000A88094460223002704E014D0052803F1F1
:1038A00001031AD9B5FBF3F0192803F1FF3600FB29
:1038B00003F2F3D89CFBF2F20A44002AB8BF52424A
:1038C0009645EADD37460B2870D91228D8BF37460F
:1038D0000528964603F10103E4D87B1CB5FBF3F5FC
:1038E000053D142D59D8BEF5967F56DC4249226815
:1038F00005EB45054B19485D59789B7800F00700AA
:10390000C90440F4800001F460111B04014303F476
:10391000E0230B4343EA076757602268136843F4C8
:103920008033136094F85C340025C3F11003AB427C
:103930008DF801508DF80050019511DDEEB2324640
:1039400000212046FFF73EFF324669462046FFF73A
:10395000FDFE94F85C340135C3F11003AB42EDDC9D
:103960002268136823F08053136023681A68D1011A
:10397000FCD41A681201FCD402212046FFF7B8FEDD
:103980001E491F4B40204FF0005208701A602368F8
:103990004FF6FF729A6203B0F0BD3921194802F068
:1039A00057FA194800F038FB03B0F0BD964675E7AA
:1039B000A2F5E732A2F5E272136843F01003136038
:1039C00023683BE7012B0CBF104B114B4FF40072E7
:1039D000012D1A600CBF0F4B0F4B4FF400721A6091
:1039E00022E70123002779E700400240005006400B
:1039F0000024F40000DC0BFF7887FF1F1DE400E0CB
:103A000000E100E0CC8C0000B887FF1F48A0044014
:103A1000309004404CA0044034900440F0B404685A
:103A20001023803413FB02444FF0006525600C79AD
:103A3000002C36D004680D68843413FB024425F052
:103A400060452560CD7A8F7A04684E7B2D0445EA67
:103A5000076588340F7B354313FB024445EA07258D
:103A60002560CD7B8F7B04684E7C2D0445EA07657D
:103A70008C340F7C13FB0244354345EA072525604F
:103A80000C79C4B14C79006889798030090401F45B
:103A9000702113FB0203ECB141F047611960F0BCE7
:103AA000704704680D68104E843413FB0244AD0463
:103AB0002E402660C6E74C79006889798030090479
:103AC00001F4702113FB02034CB941F040621A600B
:103AD000F0BC704741F046611960F0BC704741F09E
:103AE00041611960F0BC70470000FC1F70B50468AC
:103AF00090F85C248034C2F10F0204EB02142368B6
:103B000003F07063B3F1006F04F110044AD0013286
:103B1000102AF4D1B0F84A54B0F84834013505F011
:103B20000F059BB29D4244D0B0F84A340A689BB25C
:103B300003EB830300EB830301F10904C3F80423BF
:103B4000B0F84A340E799BB203EB830300EB830396
:103B5000002283F80863B0F84A344E799BB203EB35
:103B6000830300EB830383F80963B0F84A3489794F
:103B70009BB203EB830300EB830383F80A13B0F8D3
:103B80004A3414F8011F9BB203EB830300EB830359
:103B900013440132082A83F80E13F0D1A0F84A54D6
:103BA000012070BD002AB5DBD2B2FFF737FF01203C
:103BB00070BD002070BD00BF0368F0B480331025D5
:103BC00015FB02331B68C3F303438B710468803415
:103BD00015FB0244246804F40014002C14BF0124D3
:103BE00000240C71046804F1800415FB024424686D
:103BF000C4F300544C71046815FB0244D4F884608B
:103C000026F0604608BFB60C0E60D4F888404C73AE
:103C1000270A260C042B4FEA14640F73CE728C72A1
:103C200010D900688C3015FB0205072B2A684A74EE
:103C30004FEA12244FEA12404FEA12620C74C87322
:103C40008A7307D80A330B440022123103F8012B80
:103C50008B42FBD1F0BC70472DE9F04F026889B070
:103C60008046D2F830A0064600244FF0010B06E053
:103C7000022B3DD00134102C06F1080633D00BFA8C
:103C800004F515EA0A0FF5D04FEA041902F1800392
:103C900053F80930C3F30363062B29D0082BE7D16F
:103CA000B8F84814B8F84A3489B29BB29942E1D0C6
:103CB000B8F8481489B201EB810108EB8101E2B246
:103CC00001F541714046FFF7A9FEB8F84834D8F82D
:103CD00000200133013403F00F03102CA8F84834FE
:103CE00006F10806CBD1C2F830A009B0BDE8F08FCC
:103CF000E2B203A94046FFF75FFF08F58B63019628
:103D000008F5896700221E4657F8040F20B1436862
:103D10001D4235D1002B46DBBE42F5D1019E12BBC0
:103D2000B8F84474B8F84634013707F01F079BB25F
:103D30009F4218D0B8F844E403AD0FCD1FFA8EFEB1
:103D40000EEB8E0E08EB8E0E0EF1800ECEF80400F8
:103D50002868CEF80810CEF80C20CEF81030CEF837
:103D60001400A8F8447473798BB1D8F80030B268A5
:103D7000843322F0604243F80920D8F8002079E724
:103D80000368114A1B68934218D10122C4E7B16845
:103D9000D8F800300D4A890484330A4043F80920DA
:103DA000D8F8002066E70368074A1B689342ECD006
:103DB0004FF0FF3203A998470122ADE7224603A93D
:103DC00098470122A8E700BFED3600000000FC1F65
:103DD0000148FFF741BF00BF0893FF1F704700BFB6
:103DE000704700BF704700BF704700BF704700BFFB
:103DF0000C4A0D490D4B13600023A2F84434C2F85D
:103E00004C34A2F84634C2F85034A2F84834C2F810
:103E10005434A2F84A34C2F858340B704B704B60DB
:103E2000704700BF0893FF1F6897FF1F00400240C4
:103E300010B4EFF3108272B6437F33B9017F0129CA
:103E400007D003290FD00123437702B962B610BC13
:103E50007047124C2168A1B1114943610B6883611D
:103E600008605861EFE70F4C216881B10E4943614A
:103E70000B688361086058610C4B4FF080511960EA
:103E8000E1E7074B4161816120601860DBE7064B89
:103E90004161816120601860EEE700BF8097FF1FDD
:103EA0007C97FF1F7097FF1F7497FF1F04ED00E0C2
:103EB00070B5EFF3108272B60C4C206880B10C4ED6
:103EC00000254369236073B19D6102B962B64577ED
:103ED00083689847EFF3108272B620680028F0D10B
:103EE00002B962B670BD3360EFE700BF7097FF1F85
:103EF0007497FF1FFFF7DCBF184A30B41468002C1A
:103F000027D0036821688B420ED2CB1A002184602F
:103F1000C1602360E06010600223037530BC70470D
:103F200011688B42144608D3A2685B1A0360002A0A
:103F3000F6D18260C460A060EEE7D268C26084609F
:103F4000E060C568CB1A0222A8602360027530BC0D
:103F500070478460C4601060DEE700BF7897FF1F81
:103F6000F8B5224E34682CB32368002B3AD1204F89
:103F70001D4604E03468ECB12368002B32D1A368FD
:103F800003B1DD6020693360036825751B68BB429F
:103F900021D1037F4560022BC46020D0FFF748FF8A
:103FA0006368002BE6D023602046FFF7A5FF346846
:103FB000002CE1D1EFF3108372B60E4A0021106895
:103FC000116003B962B628B18468FFF795FF2046F7
:103FD0000028F9D1F8BD224600219847E0E7836820
:103FE0009847DDE7013B2360E4E700BF7897FF1FB8
:103FF0003D3400008897FF1F024A136801331360A5
:10400000FFF7AEBF9497FF1F08B5FCF771FAFCF7F6
:104010003BFD00F047F9FAE700B5064A036812884D
:104020005B6883B001A9ADF804200222984703B071
:104030005DF804FB088D0000F0B507468BB0002A40
:1040400033D0012A08BF0A2251B3212400E0F4B280
:10405000B1FBF2F502FB1511C8B2092900F13001DC
:1040600098BFC8B20AA988BF3730214488BFC0B200
:1040700001F8240C661E2946002DE8D133B1013C1D
:10408000E4B20AAB23442D2203F8242C3B6801AA96
:1040900011195B683846C4F1220298470BB0F0BD95
:1040A00030228DF825202124E8E70368C9B21B6877
:1040B00098470BB0F0BD00BF0029BABF49422D237D
:1040C00000230A22FFF7B8BF2DE9F04385B08046F0
:1040D0001946104616461F469DF8305002F008FD5E
:1040E000002840F0B18027F00044304621464FF0D0
:1040F000FF32594B02F0FCFC98B9304621464FF094
:10410000FF32554B02F0D6FC58B9D8F8003053496D
:104110005B684046032298478146484605B0BDE8A3
:10412000F083304639464FF060424D4B02F0D6FCEA
:10413000002870D1304639464FF06042494B02F0BA
:10414000AFFC002867D1304639460022002302F038
:10415000A7FC002863D18146002D65D0424B002486
:104160000022104619463AA3D3E9002302F026FAAA
:1041700001340B46E1B28D420246F2D83046394650
:1041800002F06AF80F46064602F0C8FC044602F048
:104190009FF902460B463046394602F05BF84B4623
:1041A00006460F460A2221464046FFF745FF0F2DDF
:1041B00028BF0F2501352E238146EDB28DF8003042
:1041C00001240022294B3046394602F0F7F90F4608
:1041D000064602F0A3FC04AB2344C0B200F1300257
:1041E00003F8102C02F084F902460B46304639469B
:1041F00002F030F80134E4B2AC4206460F46E0D19A
:10420000D8F8003022465B684046694698474846E1
:1042100005B0BDE8F083D8F80030154978E707F11C
:1042200000474FF0010997E700220F4B304639460F
:1042300002F012F802F072FC4B4601460A22404698
:10424000FFF7FAFE814668E7D8F8003009495FE7D2
:10425000000000A09999B93FFFFFEF7F148D000087
:10426000FFFFEF41FFFFEFC10000E03F00002440EF
:10427000108D00000C8D000001F0CEBD01F0A6BD38
:1042800001F080BD01F0BABD01F096BE01F070BE34
:104290000846114601F0DCBD084601F05DBE00BFD6
:1042A000704700BF38B5224C237803B138BD0123D5
:1042B000237001F0A3FD70BB00F036FE40BB00F0A0
:1042C000C9FE10BB00F05CFFE0B900232370EFF3E0
:1042D0000583002BEAD1EFF3108172B6154B1868F5
:1042E000E0B1154C2278CAB945691D6001232370DD
:1042F000C5B1AA6101B962B60025457783689847C0
:104300002570D3E701F05EFFDFE701F059FFD9E741
:1043100001F054FFD3E7FFF7C3FFCDE70029C5D174
:1043200062B638BD054B1D600029E5D1E3E700BF4B
:104330008C97FF1F8097FF1F8497FF1F7C97FF1F9D
:10434000374A384913681B06FCD40B6813F0800306
:10435000F8D172B634490A78002A5FD0334A34481B
:10436000F0B4344C176806682568D4680C303E44B5
:10437000143200681268304F35442C442044024403
:10438000C2F34E022D4E2E482E4D2F4C42F40042C9
:104390003A60376806682D682C4A24680C303E4421
:1043A000006812682A4F35442C4420440244C2F36A
:1043B0004E02284E2848294D294C42F400423A60CA
:1043C000376806682D68274A24680C303E44006828
:1043D0001268254F35442C4420440244C2F34E0257
:1043E000224E2348234D244C42F400423A60376861
:1043F00006682D68214A24680C303E440068126823
:1044000035442C4420440244C2F34E021C4842F47A
:10441000004202600B7062B6F0BC704762B6704733
:1044200024B0034024B00B408E97FF1F38B00340E8
:104430003CB0034040B003402CB0034058B00340B0
:104440005CB0034060B0034064B003406CB0034014
:1044500030B0034038B00B403CB00B4040B00B4094
:1044600044B00B404CB00B402CB00B4058B00B404C
:104470005CB00B4060B00B4064B00B406CB00B40C4
:1044800030B00B4030B42948294A2A4B2A4D6024C9
:10449000E121047011701B78284C082B30D00A2BB6
:1044A0002748284937D00C2B0CBF35223D22122338
:1044B0002A60236002600B60234B24491B78244A46
:1044C000BBB101230B601360224B23491B78234AA5
:1044D000012B26D9042B0FD9082B1ED9102B94BFE2
:1044E000862387230B6013601D4B01221A7030BC9A
:1044F00070470B601360E7E784230B601360F3E7FA
:1045000000F58E200F490830012213232A60236012
:1045100002600B60D0E73922F7E785230B60136058
:10452000E2E780230B601360DEE700BF0040074036
:1045300001400740C887FF1F08B003400CB003408C
:1045400008B00B400CB00B409197FF1F20B0034008
:1045500020B00B40C987FF1F24B0034024B00B409C
:104560008E97FF1F68B10E4A1378C3B90D490978B9
:104570000120107019B10C490C4A0B601360FFF751
:1045800081BF074B1A7852B1064A18701378002B76
:10459000F5D0054A054B10601860FFF773BF7047F0
:1045A0009197FF1F8E97FF1F24B0034024B00B404C
:1045B0000C2830B417D91023984228BF18461C463F
:1045C000104A114D1178181A8C42287018D00F49D2
:1045D00013700B7823B10E490E4A00230B60136051
:1045E00030BCFFF74FBF0A2802D90C231C46E7E76F
:1045F000082802D90A231C46E2E708231C46DFE705
:1046000030BC7047C887FF1F8D97FF1F8E97FF1F15
:1046100024B0034024B00B4028282FD8334B2DE979
:10462000F0411E5CFF2E2BD0314B1B78002B2AD182
:1046300032062CD472B62F4D2F4C2F460123266004
:104640002B7062B672B623681B060CD43B781BB97C
:10465000F4E72B78002BF1D062B6FFF723FE72B699
:1046600023681806F5D5254B1B6800222A7062B610
:10467000234A107843FA00F0BDE8F081002070472B
:104680000020BDE8F081FFF75BFE3206D2D572B69E
:104690001C4DDFF87C801C4C06F04007FFB206F092
:1046A0003F06D8F80030DFB123F01003C8F800301F
:1046B00001232660134A2B7062B672B6236819066E
:1046C0000CD413781BB9ECE72B78002BE9D062B639
:1046D000FFF7E8FD72B623681B06F5D50B4BC3E761
:1046E00043F01003C8F80030E2E700BF408D00003F
:1046F0008E97FF1F9097FF1F00B0034010B003403C
:104700008D97FF1F8F97FF1F00B00B4010B00B401D
:104710000CB00B400A4A0B49136843F480531360F2
:104720000B7843B1084B80221A7080F30C00074BC2
:1047300000B218807047044BC0221A70F5E700BF22
:104740002C8004409197FF1F21C00C4000C00C40FA
:10475000F0B51B4B1B4E596818689A68DB6885B02A
:104760006C460FC4337899071DD5174A174C137838
:10477000174913F0700318BF1370164A164B8027A1
:10478000177000263320032226706D4608701A70B9
:1047900072B6043C45F001052046A84762B623786E
:1047A00013F0700309D10D4B064901E0013B02D023
:1047B0000A78D207FAD505B0F0BD237005B0F0BD78
:1047C0006C8D000001000240000002400400024025
:1047D0000B000240070002400A000240410D0300A6
:1047E000B0F5006F0AD210B5094B1B78DB07044601
:1047F00006D504F1A0500078C0B210BD002070476B
:10480000FFF7A6FF04F1A0500078C0B210BD00BFB2
:1048100001000240B0F5006F17D238B50F4B1B787E
:10482000DA070D46044611D504F1A0500378AB42D7
:104830000AD00B4A137813F0700318BF1370074A9D
:1048400005701378DB07FCD538BD7047FFF780FF94
:1048500004F1A0500378AB42EBD1F5E70100024030
:104860000000024008B5104C08E0236859050DD43B
:1048700023681A050FD42368DB0411D42368580376
:10488000F3D500F0B1FD23685905F1D500F05CFBCC
:1048900023681A05EFD500F0EDFB2368DB04EDD5A6
:1048A00000F07EFCEAE700BF3480044008B5FFF763
:1048B000D9FF00BF704700BF094908B50B6830B188
:1048C0006A461844A2F58052904202D20860184607
:1048D00008BD02F0ADFC0C2303604FF0FF3008BDB3
:1048E000CC87FF1FFEE700BFF0B44D1E2E4600240C
:1048F00000E00134B0FBF2F302FB1300092800F1E1
:1049000030078ABF3730F8B2C0B206F8010F184638
:10491000002BEED10A1953704CB1107815F8016FC5
:1049200028700133E01A834202F80169F5DB08467A
:10493000F0BC704710B40F4B53F8302092F880420F
:104940002CB1012369B182F8803010BC704703EBB1
:10495000C0035B681A6841B922F002021A6010BCF9
:10496000704782F8003110BC704742F003021A60B1
:1049700010BC70477C8D00001C4A02EBC00301296B
:104980005B6811D004291BD052F83000002280F857
:10499000802229B1022920D0032922D01A60704731
:1049A0004FF480721A60704752F830004FF4A272D0
:1049B00080F880121A601A6822F020021A6070478C
:1049C00052F830104FF4A272012081F880021A6070
:1049D0001A6842F020021A60704740F203121A600F
:1049E00070474FF481721A60704700BF7C8D0000E1
:1049F00030B4054B054D064C002210211A602A6088
:104A00002060196030BC704714D0034004D00340CC
:104A100000D00340282838B52ED0002904464FDDA9
:104A20005F4B1B78012505FA03F28A4202D8212840
:104A300037D938BD0338C2B2012A3AD9202C4AD01E
:104A4000192C48D0574A126802FB011222FA03F3CC
:104A50001D2800F29B80DFE800F0928B847D9999FD
:104A6000766F99999999999999999968615A5399F1
:104A70004C99999999999945494B1B780B2B08D9D1
:104A80000C2B1CBF0C3B19410846BDE83840FFF712
:104A900041BEC3F10C0399400846BDE83840FFF71A
:104AA00039BE2946FFF746FF2946BDE83840FFF7E3
:104AB00063BF3D4A126802FB011222FA03F3C7E703
:104AC0002128B6D80021FFF735FF20460121BDE897
:104AD0003840FFF751BF354A126802FB011222FA33
:104AE00003F3B5E73249334A0B604FF45173136057
:104AF00038BD3149314A0B604FF45173136038BDF2
:104B00002F49304A0B6040F24443136038BD2E49B0
:104B10002E4A0B6040F24443136038BD2C492D4AA5
:104B20000B6040F24443136038BD2B492B4A0B60A5
:104B300040F24443136038BD29492A4A0B6040F2D1
:104B40004443136038BD2849284A0B6040F244436F
:104B5000136038BD2649274A0B6040F24443136076
:104B600038BD2549254A0B6040F24443136038BDE7
:104B70002349244A0B604FF45173136038BD224916
:104B8000224A0B604FF45173136038BD212C3FF65D
:104B900050AF7F29D4BF00210121204693E700BFF9
:104BA000D087FF1F088003400890034008800B4017
:104BB00010800B4048A0044018800B404CA00440DB
:104BC0001880034008B004401080034004B0044043
:104BD0004080034018C004403880034014C00440A3
:104BE0002880034010B00440208003400CB00440F3
:104BF0003080034010C00440488003401CC0044083
:104C000018900340349004401090034030900440CA
:104C100038B1102828BF1020044AC3B2107813708E
:104C20007047024A0123107813707047D087FF1F26
:104C30002DE9F8430E4680463249334D304602F0A6
:104C400089FA47F6122300281ABF1D464FF00209C1
:104C50004FF00109002425FA04F002F085F84FF026
:104C60005E51074602F0D8F80146304602F086FA57
:104C700030B90134072CEED1E80902F075F8074687
:104C80003146384602F07CF94FF07C5101F0BAFF12
:104C900002F0AEFA4FF6FF729042A8F1030328BF6C
:104CA0001046012B29D9B8F1170F17D8174B23FA43
:104CB00008F303F0010383F0010223B9B8F1190FDF
:104CC0000FD0BDE8F883124B124D13491A6044EA25
:104CD000C9042A6008601C60BDE8F883B8F1200FA1
:104CE000ECD10E4B0E4D0F49002244EAC9041A6064
:104CF0002A6008601C60BDE8F8830B4B0B4D0C4923
:104D0000F2E700BF001BB740006CDC026006F00059
:104D100000800340048003400880034000800B4073
:104D200004800B4008800B40009003400490034037
:104D300008900340212801D8FFF7FCBD704700BF51
:104D4000212806D8044B53F8303093F80002C0B243
:104D500070470020704700BF7C8D0000212801D8DB
:104D6000FFF70ABE704700BF72B60C490C4B0D4AE4
:104D70001B680868126862B6520102D5322B88BFE0
:104D800001300949C3F5BB334FF47A72FF33A1FBFD
:104D9000031302FB00F000EB931070479497FF1F82
:104DA00018E000E004ED00E0ABAAAAAA2DE9F84360
:104DB000054672B6204F214B214A1B683C68126899
:104DC00062B6520102D5322B88BF013495B3C3F5C8
:104DD000BB331C4EDFF86490DFF86480FF334FF480
:104DE0007A72A6FB031302FB04F404EB931472B66D
:104DF000D9F800103A68D8F800E062B6C1F5BB33C4
:104E0000FF33A6FB03031EF0806FC4EB93134FF434
:104E10007A7002D0322988BF013200FB0233B3F529
:104E20007A7F04D3013D05D004F57A74DFE7FFF7FC
:104E300039FADCE7BDE8F8839497FF1F18E000E03B
:104E400004ED00E0ABAAAAAAF8B52D4B2D49DFF876
:104E5000D0E0DFF8D0C02C4E2C4D2D4C2D4A2E4FDB
:104E60004FF4000018604FF0807018604FF0007031
:104E700018604FF0806018604FF0006018600020EC
:104E8000086028234BF6FF71CCF80010CEF80030F4
:104E9000336013602B6023603B60B362936209222E
:104EA00045F8242CC4F8D80F05F57F65C7F8D41F42
:104EB00007F5FF2707F5FA67C6F8F83F2B6006F5F8
:104EC000FF26C4F8D42F05F5FD2504F5FF2438602E
:104ED00006F2F4761148316005F5FF6504F5FD64CE
:104EE0002B6023600260FFF7CDFA3220FFF75EFFF0
:104EF00000F0A6FE4FF4AF70BDE8F840FFF756BFD4
:104F000008E100E004800340148003402480034053
:104F10002C8003401C8003403480034000800B4001
:104F20000C80034008800340054A064B10781B782C
:104F3000C0B2DBB2984238BF4030C01A704700BFE1
:104F40009C97FF1F9D97FF1FF0B4384B1A7912F002
:104F5000300F2CD072B6997D01F0FF0200293DD0B0
:104F600062B6334F334938780D78334E1C46C0B2A1
:104F7000EDB2431C402BE17928BF0023AB4202F184
:104F8000FF32C9B21CBFF154184612F0FF02F0D133
:104F90002A4B1B68C2B23A704BB1A84236BFC5F16A
:104FA0004005401B40192728C4BF01221A701F4921
:104FB000CA78D2B2150616D452060DD51B4B1B79F2
:104FC0005B0609D51E4B1F491B6800220A7003B1FE
:104FD0001A70164B3C22DA70F0BC70474022D97927
:104FE0005A7462B6E3E70B791C06E5D5164B174EEB
:104FF0001C783378E4B2DBB29C420ED0144D01E051
:10500000A3420AD00133402B28BF00230879E85C73
:10501000C0B2C871087D0728F2D9DBB203493370EA
:105020000B79180644BF7C23CB70C5E700A006406F
:105030009C97FF1F9D97FF1FE097FF1F9897FF1FEB
:105040002498FF1F2098FF1F2898FF1F2198FF1FFB
:10505000A097FF1F054A064B10781B78C0B2DBB241
:10506000984238BF4030C01A704700BF9C98FF1F5D
:105070003198FF1FF0B4384B1A7912F0300F2CD052
:1050800072B6997D01F0FF0200293DD062B6334F20
:10509000334938780D78334E1C46C0B2EDB2431C0C
:1050A000402BE17928BF0023AB4202F1FF32C9B2A5
:1050B0001CBFF154184612F0FF02F0D12A4B1B68B6
:1050C000C2B23A704BB1A84236BFC5F14005401B91
:1050D00040192728C4BF01221A701F49CA78D2B2CA
:1050E000150616D452060DD51B4B1B795B0609D548
:1050F0001E4B1F491B6800220A7003B11A70164B21
:105100003C22DA70F0BC70474022D9795A7462B6FA
:10511000E3E70B791C06E5D5164B174E1C78337860
:10512000E4B2DBB29C420ED0144D01E0A3420AD09F
:105130000133282B28BF00230879E85CC0B2C8716E
:10514000087D0728F2D9DBB2034933700B791806C2
:1051500044BF7C23CB70C5E700B006409C98FF1F7E
:105160003198FF1F5C98FF1F2C98FF1FA098FF1F0E
:105170003098FF1FA498FF1F9D98FF1F3498FF1FB2
:10518000054A064B10781B78C0B2DBB2984238BF94
:105190004030C01A704700BFAC98FF1FAD98FF1F8A
:1051A00030B42B4B1A7994061FD52A48DA79037844
:1051B000294901333F2B0978C8BF00238B42D2B263
:1051C00003D0264CD9B2E2540170254A116861B16E
:1051D000244A1278D2B2934236BFC2F140029B1ADF
:1051E0009B18272BC4BF01230B70194AD378DBB25D
:1051F000180611D45A060DD5154B1B795B0609D537
:10520000194B1A491B6800220A7003B11A70104B1F
:105210002C22DA7030BC704711790906EAD514499E
:1052200010480C780178C9B28C420DD04A1C272A4C
:1052300084BF00210A460F4D054C98BFD1B2AA5C2D
:10524000D2B2E2710170D5E76C21D170D2E700BF14
:1052500000C00640AC98FF1FAD98FF1FD898FF1FF5
:10526000A898FF1F1999FF1F1C99FF1F1899FF1F6E
:105270002099FF1FB098FF1F431E032B14D872B64E
:105280000A4951F8230068B170B4094C058834F814
:105290001320466841F82360521B24F8132062B69D
:1052A00070BC704762B67047002070477C99FF1F42
:1052B000549AFF1F013803280BD872B6074B53F8D6
:1052C000203043B100205B680130002BFBD162B677
:1052D0007047002070471846F9E700BFD099FF1FBC
:1052E000F0B472B61A491B4E012311F8014B194F45
:1052F0009A00240742F0010505D556F8324064B102
:1053000056F83520BAB10133052BEED162B6124BF7
:1053100000221A70F0BC00F00FBD0F4C0F4D217829
:1053200047F8325007EB431308304A1E586022708A
:1053300062B6F0BC70470849094B0A7847F8353027
:1053400007EBC5030830013A58600A7062B6F0E70F
:10535000BC8E00000080FF1FF999FF1F88004000ED
:10536000C8004000431E032B1DD81B4A400140F0DB
:10537000100030B4104472B6184CE25C032A1BD8FB
:10538000DFE802F00212151703220D88E25410F034
:10539000080F14BFC823882343EA0543083103607C
:1053A000416062B630BC704708300222EDE705224A
:1053B000EBE708300422E8E7094A52F8230038B145
:1053C000084A52F82300416042F8231062B6E9E728
:1053D00042F82310034AF7E70080FF1F089AFF1FD7
:1053E000D099FF1FE099FF1F2DE9F04FDFF804A3CC
:1053F000DFF804B387B044E0A94F4FEA930807EB06
:10540000C809013ED9F8042003F00803F6B2A2F15E
:10541000080003F0FF04002B40F0FE8057F83830FE
:105420001B0C99B222F8081C002B00F0EC809D4B5D
:1054300022F8064C42F8044C53F82620002A00F0CB
:105440002B82994D55F826305860984C45F8260027
:1054500034F81630194424F8161000F04DFC0028DA
:1054600000F01382924A934B19F0080F00F10800E4
:1054700018BF1346C9F8040047F8383008238AF8E3
:1054800000309AF80040E4B260071AD58A4B1B78C6
:10549000A3B18A490A7802F0FF0322B1013BDBB2D3
:1054A0000B7003B900BE86490A7802F0FF032AB1E7
:1054B000013BDBB20B70002B00F0BD8104238AF8A6
:1054C000003004F0080303F0FF02002B00F0C88056
:1054D0009BF80030DBB21E098ED19C08704F57F844
:1054E000342007EBC401C2F38302013A49680C2A55
:1054F00000F28580DFE802F07979838383838383F8
:1055000042838383070008686E4B6F4D0193684B9D
:105510004A686E4E47F8343081B240F28164694B7C
:105520006A60286000220120A1421A603A61BA61D3
:10553000307000F2E380B1F5D06F80F02782B1F5D2
:10554000817F00F0E08100F2C381802900F0368283
:10555000822940F0DE81A9885D4B01F07F0104299A
:1055600000F2D8815B4C89000B44227062701A787B
:10557000930740F122832070022023E2514B0193D4
:105580001A683AB3544B514E5449188834780D7800
:105590004028864645F0020828BF4FF0400E002CF8
:1055A00084F001043470CEEB00000CBF8824C824C2
:1055B00007EBC80680B285F0010544EA0E4472602C
:1055C000188047F8384072440D70002800F0B7800A
:1055D000019B1A603C4B1A88B2F5A06F0FD10021D5
:1055E0009A7859703E4B1A7009E0374A108842F297
:1055F0002102904200F0A8802D4A47F83420394A11
:10560000012313703AE72A4A2A4B19F0080F18BFF2
:10561000134647F8383031E700F08EFB324A334901
:1056200052F82630002B00F03B8158688C5D42F820
:10563000260003F10802C9F80420032C05D8DFE88E
:1056400004F02C02292602228A551A8819F0080F24
:105650000CBF8823C82343EA024347F838300DE7DC
:10566000E00700F1EB80210600F12881A20706D5B2
:105670001F4A204913780220DBB213700870E3063A
:1056800002D51C4B10221A7007B0BDE8F08F04221F
:105690008A55DAE705228A55D7E703228A55D4E7E7
:1056A0000080FF1F7C99FF1F2899FF1F549AFF1F3E
:1056B000C800400088004000049AFF1F8D99FF1F1A
:1056C0000C9AFF1F2499FF1FF099FF1F8C99FF1F51
:1056D000C0200740FC99FF1F3899FF1FF899FF1F52
:1056E0009820074094200740D099FF1F089AFF1F79
:1056F00088200740802007409020074042F2210484
:10570000A14200F0948043D8B1F5086F00F0A88161
:10571000B1F5106F40F0FD80B84AB94CA97811700E
:1057200004F1800503E00834AC4200F09E81236A56
:105730001906F8D5606A083800F0FEFAF3E7BEF102
:10574000400F18BF002243E7AE4ACD1D11F8013BC0
:1057500002F8013FA942F9D1AB4A1268862A00F04B
:105760001181AA49AA4E0A78307882F001050028F2
:1057700042F002020D700CBF8821C82147F8321098
:1057800007EBC20280F0010000213070516033E766
:1057900042F22124A14240F0FE81DFF8BCC29D4BC1
:1057A0009D49AC78DCF800501D6081460C700020EB
:1057B000029080468446044694490D7845F0020ED6
:1057C00007EBCE03B9F1000F5C600CBF8824C8243E
:1057D00044EA080385F0010447F83E3032700C704B
:1057E000DFF81CE28A4BDFF82482002840F0988022
:1057F000BCF1400F1BD144F0020407EBC403029F2D
:10580000DFF8FCE15F60002A40F09F80020442F074
:10581000880207444EF8342086F800900D703B460D
:10582000402804D100207D4A019910800B607C4AF9
:1058300001231370E3E600F0EBFB3FE6704B784882
:1058400072491A614FF0020E80F800E0754F0A703D
:10585000754919609960754E754D764C9A610D21A8
:105860003970FF213170DFF8F4E129702270724D38
:10587000724A8EF800109F27012406F8047C5D60B0
:105880000470DA6007B0BDE8F08F6D4A47F8380061
:10589000137801331370F1E543F82600694DD4E520
:1058A0008B5D032B67D801A252F823F07D540000D2
:1058B0007D54000001590000FB58000059495C4B21
:1058C00080220D2008701A70A2077FF5D8AECFE6AF
:1058D00040F20232914240F05681A98801F07F01E6
:1058E000042916D86A88A2B94E4C89000C44814616
:1058F000217841F00201217059E701238B55BDE564
:1059000000238B55BAE5A98801F07F01042940F2F4
:105910004781444B0F221A70414A012313706EE6EF
:1059200040287FF668AF44F002040EEBC401029EEB
:105930004E60AAB1444A83F800903346403888F854
:10594000005040334EF834206DE70204029B86F885
:10595000009042F0C8020D7003444EF834205FE717
:1059600083F80090029B304A88F80050403840335A
:105970004EF8342057E719F0080F0CBF0223032319
:105980008B557BE5314A0F211170EAE6304A5468A5
:10599000002CBED06888B5F804E003E00C325468EF
:1059A000002CB6D013888342F8D153887345F5D1C3
:1059B000000A03280CBF2078108903E0254C022040
:1059C00022706270EA88824280F00C810F490D7863
:1059D000402A45F0020E944607EBCE0028BF4FF058
:1059E000400C04EB0C0344600293CCEB02004FEA42
:1059F0000C484FF001090022C824E9E6049AFF1F71
:105A00000080FF1F5B9AFF1F5C9AFF1FF899FF1F22
:105A10008C99FF1F649AFF1F1C9AFF1F3899FF1F64
:105A200094200740C020074088004000882007409D
:105A300080200740982007403C99FF1F9099FF1F46
:105A4000F999FF1F2899FF1FC80040008D99FF1F7B
:105A5000C08E0000FC99FF1F9497FF1F8C20074009
:105A6000684A694C12782270ACE76849684B694A09
:105A700002916949694C6A4D039405964FF00009FB
:105A800088461C4616460495206828B1456800F0F3
:105A900053F92846002DF9D100232360049B306878
:105AA0001A46002342F8293028B1456800F044F92D
:105AB0002846002DF9D100223260029A98F8003071
:105AC0001146002241F8042B039A0291023B4FF049
:105AD000000122F81910032B07D8DFE803F0340285
